{
  "_format": "hh-sol-artifact-1",
  "contractName": "Factory",
  "sourceName": "contracts/Factory.sol",
  "abi": [
    {
      "inputs": [
        {
          "internalType": "bool",
          "name": "_worldEnabled",
          "type": "bool"
        },
        {
          "internalType": "contract IWorldID",
          "name": "_worldId",
          "type": "address"
        },
        {
          "internalType": "string",
          "name": "_appId",
          "type": "string"
        },
        {
          "internalType": "string",
          "name": "_actionId",
          "type": "string"
        },
        {
          "internalType": "bool",
          "name": "_ensEnabled",
          "type": "bool"
        }
      ],
      "stateMutability": "nonpayable",
      "type": "constructor"
    },
    {
      "anonymous": false,
      "inputs": [
        {
          "indexed": true,
          "internalType": "uint256",
          "name": "index",
          "type": "uint256"
        },
        {
          "indexed": false,
          "internalType": "address",
          "name": "addr",
          "type": "address"
        }
      ],
      "name": "OracleCreated",
      "type": "event"
    },
    {
      "inputs": [
        {
          "internalType": "bytes32",
          "name": "node",
          "type": "bytes32"
        }
      ],
      "name": "addr",
      "outputs": [
        {
          "internalType": "address",
          "name": "",
          "type": "address"
        }
      ],
      "stateMutability": "view",
      "type": "function"
    },
    {
      "inputs": [
        {
          "internalType": "string",
          "name": "name",
          "type": "string"
        },
        {
          "internalType": "bytes32",
          "name": "node",
          "type": "bytes32"
        },
        {
          "internalType": "string",
          "name": "script",
          "type": "string"
        },
        {
          "internalType": "uint256",
          "name": "stakeRequirement",
          "type": "uint256"
        },
        {
          "internalType": "uint256",
          "name": "bountyAmount",
          "type": "uint256"
        },
        {
          "internalType": "uint256",
          "name": "cooloff",
          "type": "uint256"
        }
      ],
      "name": "createOracle",
      "outputs": [],
      "stateMutability": "nonpayable",
      "type": "function"
    },
    {
      "inputs": [
        {
          "internalType": "uint256",
          "name": "",
          "type": "uint256"
        }
      ],
      "name": "oracles",
      "outputs": [
        {
          "internalType": "address",
          "name": "",
          "type": "address"
        }
      ],
      "stateMutability": "view",
      "type": "function"
    },
    {
      "inputs": [
        {
          "internalType": "string",
          "name": "",
          "type": "string"
        }
      ],
      "name": "oraclesByName",
      "outputs": [
        {
          "internalType": "address",
          "name": "",
          "type": "address"
        }
      ],
      "stateMutability": "view",
      "type": "function"
    },
    {
      "inputs": [
        {
          "internalType": "bytes32",
          "name": "",
          "type": "bytes32"
        }
      ],
      "name": "oraclesByNode",
      "outputs": [
        {
          "internalType": "address",
          "name": "",
          "type": "address"
        }
      ],
      "stateMutability": "view",
      "type": "function"
    }
  ],
  "bytecode": "0x60c06040523480156200001157600080fd5b5060405162003c0e38038062003c0e833981810160405281019062000037919062000309565b8415156080811515815250508373ffffffffffffffffffffffffffffffffffffffff1660a08173ffffffffffffffffffffffffffffffffffffffff168152505082600090816200008891906200061a565b5081600190816200009a91906200061a565b5080600260006101000a81548160ff021916908315150217905550505050505062000701565b6000604051905090565b600080fd5b600080fd5b60008115159050919050565b620000eb81620000d4565b8114620000f757600080fd5b50565b6000815190506200010b81620000e0565b92915050565b600073ffffffffffffffffffffffffffffffffffffffff82169050919050565b60006200013e8262000111565b9050919050565b6000620001528262000131565b9050919050565b620001648162000145565b81146200017057600080fd5b50565b600081519050620001848162000159565b92915050565b600080fd5b600080fd5b6000601f19601f8301169050919050565b7f4e487b7100000000000000000000000000000000000000000000000000000000600052604160045260246000fd5b620001df8262000194565b810181811067ffffffffffffffff82111715620002015762000200620001a5565b5b80604052505050565b600062000216620000c0565b9050620002248282620001d4565b919050565b600067ffffffffffffffff821115620002475762000246620001a5565b5b620002528262000194565b9050602081019050919050565b60005b838110156200027f57808201518184015260208101905062000262565b60008484015250505050565b6000620002a26200029c8462000229565b6200020a565b905082815260208101848484011115620002c157620002c06200018f565b5b620002ce8482856200025f565b509392505050565b600082601f830112620002ee57620002ed6200018a565b5b8151620003008482602086016200028b565b91505092915050565b600080600080600060a08688031215620003285762000327620000ca565b5b60006200033888828901620000fa565b95505060206200034b8882890162000173565b945050604086015167ffffffffffffffff8111156200036f576200036e620000cf565b5b6200037d88828901620002d6565b935050606086015167ffffffffffffffff811115620003a157620003a0620000cf565b5b620003af88828901620002d6565b9250506080620003c288828901620000fa565b9150509295509295909350565b600081519050919050565b7f4e487b7100000000000000000000000000000000000000000000000000000000600052602260045260246000fd5b600060028204905060018216806200042257607f821691505b602082108103620004385762000437620003da565b5b50919050565b60008190508160005260206000209050919050565b60006020601f8301049050919050565b600082821b905092915050565b600060088302620004a27fffffffffffffffffffffffffffffffffffffffffffffffffffffffffffffffff8262000463565b620004ae868362000463565b95508019841693508086168417925050509392505050565b6000819050919050565b6000819050919050565b6000620004fb620004f5620004ef84620004c6565b620004d0565b620004c6565b9050919050565b6000819050919050565b6200051783620004da565b6200052f620005268262000502565b84845462000470565b825550505050565b600090565b6200054662000537565b620005538184846200050c565b505050565b5b818110156200057b576200056f6000826200053c565b60018101905062000559565b5050565b601f821115620005ca5762000594816200043e565b6200059f8462000453565b81016020851015620005af578190505b620005c7620005be8562000453565b83018262000558565b50505b505050565b600082821c905092915050565b6000620005ef60001984600802620005cf565b1980831691505092915050565b60006200060a8383620005dc565b9150826002028217905092915050565b6200062582620003cf565b67ffffffffffffffff811115620006415762000640620001a5565b5b6200064d825462000409565b6200065a8282856200057f565b600060209050601f8311600181146200069257600084156200067d578287015190505b620006898582620005fc565b865550620006f9565b601f198416620006a2866200043e565b60005b82811015620006cc57848901518255600182019150602085019450602081019050620006a5565b86831015620006ec5784890151620006e8601f891682620005dc565b8355505b6001600288020188555050505b505050505050565b60805160a0516134e762000727600039600061031a015260006102f901526134e76000f3fe60806040523480156200001157600080fd5b50600436106200005e5760003560e01c80633b3b57de14620000635780634657b3c114620000995780635b69a7d814620000b9578063abd461fd14620000ef578063ad8c7fce1462000125575b600080fd5b6200008160048036038101906200007b919062000614565b6200015b565b6040516200009091906200068b565b60405180910390f35b620000b76004803603810190620000b1919062000845565b62000198565b005b620000d76004803603810190620000d191906200091f565b620004fb565b604051620000e691906200068b565b60405180910390f35b6200010d600480360381019062000107919062000951565b6200053b565b6040516200011c91906200068b565b60405180910390f35b6200014360048036038101906200013d919062000614565b62000584565b6040516200015291906200068b565b60405180910390f35b60006005600083815260200190815260200160002060009054906101000a900473ffffffffffffffffffffffffffffffffffffffff169050919050565b600073ffffffffffffffffffffffffffffffffffffffff16600487604051620001c2919062000a1b565b908152602001604051809103902060009054906101000a900473ffffffffffffffffffffffffffffffffffffffff1673ffffffffffffffffffffffffffffffffffffffff16146200024a576040517f08c379a0000000000000000000000000000000000000000000000000000000008152600401620002419062000a95565b60405180910390fd5b600073ffffffffffffffffffffffffffffffffffffffff166005600087815260200190815260200160002060009054906101000a900473ffffffffffffffffffffffffffffffffffffffff1673ffffffffffffffffffffffffffffffffffffffff1614620002ef576040517f08c379a0000000000000000000000000000000000000000000000000000000008152600401620002e69062000b07565b60405180910390fd5b60008686868686867f00000000000000000000000000000000000000000000000000000000000000007f000000000000000000000000000000000000000000000000000000000000000060006001600260009054906101000a900460ff166040516200035b90620005b7565b620003719b9a9998979695949392919062000d1d565b604051809103906000f0801580156200038e573d6000803e3d6000fd5b5090506003819080600181540180825580915050600190039060005260206000200160009091909190916101000a81548173ffffffffffffffffffffffffffffffffffffffff021916908373ffffffffffffffffffffffffffffffffffffffff1602179055508060048860405162000407919062000a1b565b908152602001604051809103902060006101000a81548173ffffffffffffffffffffffffffffffffffffffff021916908373ffffffffffffffffffffffffffffffffffffffff160217905550806005600088815260200190815260200160002060006101000a81548173ffffffffffffffffffffffffffffffffffffffff021916908373ffffffffffffffffffffffffffffffffffffffff1602179055506001600380549050620004b9919062000e29565b7f804775e1c4cbdcdd4f587b62fa0fd7907140c20d90200655a8d19a2697870f1482604051620004ea91906200068b565b60405180910390a250505050505050565b600381815481106200050c57600080fd5b906000526020600020016000915054906101000a900473ffffffffffffffffffffffffffffffffffffffff1681565b6004818051602081018201805184825260208301602085012081835280955050505050506000915054906101000a900473ffffffffffffffffffffffffffffffffffffffff1681565b60056020528060005260406000206000915054906101000a900473ffffffffffffffffffffffffffffffffffffffff1681565b61264d8062000e6583390190565b6000604051905090565b600080fd5b600080fd5b6000819050919050565b620005ee81620005d9565b8114620005fa57600080fd5b50565b6000813590506200060e81620005e3565b92915050565b6000602082840312156200062d576200062c620005cf565b5b60006200063d84828501620005fd565b91505092915050565b600073ffffffffffffffffffffffffffffffffffffffff82169050919050565b6000620006738262000646565b9050919050565b620006858162000666565b82525050565b6000602082019050620006a260008301846200067a565b92915050565b600080fd5b600080fd5b6000601f19601f8301169050919050565b7f4e487b7100000000000000000000000000000000000000000000000000000000600052604160045260246000fd5b620006fd82620006b2565b810181811067ffffffffffffffff821117156200071f576200071e620006c3565b5b80604052505050565b600062000734620005c5565b9050620007428282620006f2565b919050565b600067ffffffffffffffff821115620007655762000764620006c3565b5b6200077082620006b2565b9050602081019050919050565b82818337600083830152505050565b6000620007a36200079d8462000747565b62000728565b905082815260208101848484011115620007c257620007c1620006ad565b5b620007cf8482856200077d565b509392505050565b600082601f830112620007ef57620007ee620006a8565b5b8135620008018482602086016200078c565b91505092915050565b6000819050919050565b6200081f816200080a565b81146200082b57600080fd5b50565b6000813590506200083f8162000814565b92915050565b60008060008060008060c08789031215620008655762000864620005cf565b5b600087013567ffffffffffffffff811115620008865762000885620005d4565b5b6200089489828a01620007d7565b9650506020620008a789828a01620005fd565b955050604087013567ffffffffffffffff811115620008cb57620008ca620005d4565b5b620008d989828a01620007d7565b9450506060620008ec89828a016200082e565b9350506080620008ff89828a016200082e565b92505060a06200091289828a016200082e565b9150509295509295509295565b600060208284031215620009385762000937620005cf565b5b600062000948848285016200082e565b91505092915050565b6000602082840312156200096a5762000969620005cf565b5b600082013567ffffffffffffffff8111156200098b576200098a620005d4565b5b6200099984828501620007d7565b91505092915050565b600081519050919050565b600081905092915050565b60005b83811015620009d8578082015181840152602081019050620009bb565b60008484015250505050565b6000620009f182620009a2565b620009fd8185620009ad565b935062000a0f818560208601620009b8565b80840191505092915050565b600062000a298284620009e4565b915081905092915050565b600082825260208201905092915050565b7f4e616d6520616c72656164792065786973747300000000000000000000000000600082015250565b600062000a7d60138362000a34565b915062000a8a8262000a45565b602082019050919050565b6000602082019050818103600083015262000ab08162000a6e565b9050919050565b7f4e6f646520616c72656164792065786973747300000000000000000000000000600082015250565b600062000aef60138362000a34565b915062000afc8262000ab7565b602082019050919050565b6000602082019050818103600083015262000b228162000ae0565b9050919050565b600062000b3682620009a2565b62000b42818562000a34565b935062000b54818560208601620009b8565b62000b5f81620006b2565b840191505092915050565b62000b7581620005d9565b82525050565b62000b86816200080a565b82525050565b60008115159050919050565b62000ba38162000b8c565b82525050565b6000819050919050565b600062000bd462000bce62000bc88462000646565b62000ba9565b62000646565b9050919050565b600062000be88262000bb3565b9050919050565b600062000bfc8262000bdb565b9050919050565b62000c0e8162000bef565b82525050565b7f4e487b7100000000000000000000000000000000000000000000000000000000600052602260045260246000fd5b6000600282049050600182168062000c5c57607f821691505b60208210810362000c725762000c7162000c14565b5b50919050565b60008190508160005260206000209050919050565b6000815462000c9c8162000c43565b62000ca8818662000a34565b9450600182166000811462000cc6576001811462000cdd5762000d14565b60ff19831686528115156020028601935062000d14565b62000ce88562000c78565b60005b8381101562000d0c5781548189015260018201915060208101905062000ceb565b808801955050505b50505092915050565b600061016082019050818103600083015262000d3a818e62000b29565b905062000d4b602083018d62000b6a565b818103604083015262000d5f818c62000b29565b905062000d70606083018b62000b7b565b62000d7f608083018a62000b7b565b62000d8e60a083018962000b7b565b62000d9d60c083018862000b98565b62000dac60e083018762000c03565b81810361010083015262000dc1818662000c8d565b905081810361012083015262000dd8818562000c8d565b905062000dea61014083018462000b98565b9c9b505050505050505050505050565b7f4e487b7100000000000000000000000000000000000000000000000000000000600052601160045260246000fd5b600062000e36826200080a565b915062000e43836200080a565b925082820390508181111562000e5e5762000e5d62000dfa565b5b9291505056fe610120604052600160e0908152503480156200001a57600080fd5b506040516200264d3803806200264d833981810160405281019062000040919062000442565b8a600090816200005191906200080c565b508960018190555088600290816200006a91906200080c565b508760038190555086600481905550856005819055508415156080811515815250508373ffffffffffffffffffffffffffffffffffffffff1660a08173ffffffffffffffffffffffffffffffffffffffff168152505062000125620000f684604051602001620000db919062000935565b6040516020818303038152906040526200014a60201b60201c565b836040516020016200010a92919062000973565b6040516020818303038152906040526200014a60201b60201c565b60c0818152505080151561010081151581525050505050505050505050505062000a05565b6000600882604051602001620001619190620009ec565b6040516020818303038152906040528051906020012060001c901c9050919050565b6000604051905090565b600080fd5b600080fd5b600080fd5b600080fd5b6000601f19601f8301169050919050565b7f4e487b7100000000000000000000000000000000000000000000000000000000600052604160045260246000fd5b620001ec82620001a1565b810181811067ffffffffffffffff821117156200020e576200020d620001b2565b5b80604052505050565b60006200022362000183565b9050620002318282620001e1565b919050565b600067ffffffffffffffff821115620002545762000253620001b2565b5b6200025f82620001a1565b9050602081019050919050565b60005b838110156200028c5780820151818401526020810190506200026f565b60008484015250505050565b6000620002af620002a98462000236565b62000217565b905082815260208101848484011115620002ce57620002cd6200019c565b5b620002db8482856200026c565b509392505050565b600082601f830112620002fb57620002fa62000197565b5b81516200030d84826020860162000298565b91505092915050565b6000819050919050565b6200032b8162000316565b81146200033757600080fd5b50565b6000815190506200034b8162000320565b92915050565b6000819050919050565b620003668162000351565b81146200037257600080fd5b50565b60008151905062000386816200035b565b92915050565b60008115159050919050565b620003a3816200038c565b8114620003af57600080fd5b50565b600081519050620003c38162000398565b92915050565b600073ffffffffffffffffffffffffffffffffffffffff82169050919050565b6000620003f682620003c9565b9050919050565b60006200040a82620003e9565b9050919050565b6200041c81620003fd565b81146200042857600080fd5b50565b6000815190506200043c8162000411565b92915050565b60008060008060008060008060008060006101608c8e0312156200046b576200046a6200018d565b5b60008c015167ffffffffffffffff8111156200048c576200048b62000192565b5b6200049a8e828f01620002e3565b9b50506020620004ad8e828f016200033a565b9a505060408c015167ffffffffffffffff811115620004d157620004d062000192565b5b620004df8e828f01620002e3565b9950506060620004f28e828f0162000375565b9850506080620005058e828f0162000375565b97505060a0620005188e828f0162000375565b96505060c06200052b8e828f01620003b2565b95505060e06200053e8e828f016200042b565b9450506101008c015167ffffffffffffffff81111562000563576200056262000192565b5b620005718e828f01620002e3565b9350506101208c015167ffffffffffffffff81111562000596576200059562000192565b5b620005a48e828f01620002e3565b925050610140620005b88e828f01620003b2565b9150509295989b509295989b9093969950565b600081519050919050565b7f4e487b7100000000000000000000000000000000000000000000000000000000600052602260045260246000fd5b600060028204905060018216806200061e57607f821691505b602082108103620006345762000633620005d6565b5b50919050565b60008190508160005260206000209050919050565b60006020601f8301049050919050565b600082821b905092915050565b6000600883026200069e7fffffffffffffffffffffffffffffffffffffffffffffffffffffffffffffffff826200065f565b620006aa86836200065f565b95508019841693508086168417925050509392505050565b6000819050919050565b6000620006ed620006e7620006e18462000351565b620006c2565b62000351565b9050919050565b6000819050919050565b6200070983620006cc565b620007216200071882620006f4565b8484546200066c565b825550505050565b600090565b6200073862000729565b62000745818484620006fe565b505050565b5b818110156200076d57620007616000826200072e565b6001810190506200074b565b5050565b601f821115620007bc5762000786816200063a565b62000791846200064f565b81016020851015620007a1578190505b620007b9620007b0856200064f565b8301826200074a565b50505b505050565b600082821c905092915050565b6000620007e160001984600802620007c1565b1980831691505092915050565b6000620007fc8383620007ce565b9150826002028217905092915050565b6200081782620005cb565b67ffffffffffffffff811115620008335762000832620001b2565b5b6200083f825462000605565b6200084c82828562000771565b600060209050601f8311600181146200088457600084156200086f578287015190505b6200087b8582620007ee565b865550620008eb565b601f19841662000894866200063a565b60005b82811015620008be5784890151825560018201915060208501945060208101905062000897565b86831015620008de5784890151620008da601f891682620007ce565b8355505b6001600288020188555050505b505050505050565b600081905092915050565b60006200090b82620005cb565b620009178185620008f3565b9350620009298185602086016200026c565b80840191505092915050565b6000620009438284620008fe565b915081905092915050565b6000819050919050565b6200096d620009678262000351565b6200094e565b82525050565b600062000981828562000958565b602082019150620009938284620008fe565b91508190509392505050565b600081519050919050565b600081905092915050565b6000620009c2826200099f565b620009ce8185620009aa565b9350620009e08185602086016200026c565b80840191505092915050565b6000620009fa8284620009b5565b915081905092915050565b60805160a05160c05160e05161010051611c0662000a47600039600050506000610e7501526000610ebf01526000610e3801526000610d700152611c066000f3fe6080604052600436106101095760003560e01c80637c7eea6e11610095578063e428c6dd11610064578063e428c6dd14610328578063e4873cbd14610365578063e8193213146103a2578063ebe9eb9f146103df578063eefb5f621461040a57610109565b80637c7eea6e1461028b578063b6f9bbb9146102a7578063ccd331bf146102d2578063d70754ec146102fd57610109565b806354aea127116100dc57806354aea127146101a6578063573c0bd3146101d157806364698e71146101fa5780636920fbb8146102375780637b19eb4c1461026057610109565b806306fdde031461010e578063177b1ef5146101395780632def6620146101645780633fa4f2451461017b575b600080fd5b34801561011a57600080fd5b50610123610447565b6040516101309190611228565b60405180910390f35b34801561014557600080fd5b5061014e6104d5565b60405161015b919061128b565b60405180910390f35b34801561017057600080fd5b506101796104fb565b005b34801561018757600080fd5b50610190610744565b60405161019d91906112bf565b60405180910390f35b3480156101b257600080fd5b506101bb61074a565b6040516101c891906112bf565b60405180910390f35b3480156101dd57600080fd5b506101f860048036038101906101f3919061130b565b610750565b005b34801561020657600080fd5b50610221600480360381019061021c919061130b565b6109c1565b60405161022e919061128b565b60405180910390f35b34801561024357600080fd5b5061025e60048036038101906102599190611364565b6109f4565b005b34801561026c57600080fd5b50610275610ca1565b60405161028291906112bf565b60405180910390f35b6102a560048036038101906102a091906113b8565b610ca7565b005b3480156102b357600080fd5b506102bc61104a565b6040516102c991906112bf565b60405180910390f35b3480156102de57600080fd5b506102e7611050565b6040516102f491906112bf565b60405180910390f35b34801561030957600080fd5b50610312611056565b60405161031f9190611439565b60405180910390f35b34801561033457600080fd5b5061034f600480360381019061034a9190611364565b61105c565b60405161035c91906112bf565b60405180910390f35b34801561037157600080fd5b5061038c60048036038101906103879190611364565b611074565b60405161039991906112bf565b60405180910390f35b3480156103ae57600080fd5b506103c960048036038101906103c49190611454565b61108c565b6040516103d691906114af565b60405180910390f35b3480156103eb57600080fd5b506103f46110bb565b6040516104019190611228565b60405180910390f35b34801561041657600080fd5b50610431600480360381019061042c9190611364565b611149565b60405161043e91906112bf565b60405180910390f35b60008054610454906114f9565b80601f0160208091040260200160405190810160405280929190818152602001828054610480906114f9565b80156104cd5780601f106104a2576101008083540402835291602001916104cd565b820191906000526020600020905b8154815290600101906020018083116104b057829003601f168201915b505050505081565b600760009054906101000a900473ffffffffffffffffffffffffffffffffffffffff1681565b6000600960003373ffffffffffffffffffffffffffffffffffffffff1673ffffffffffffffffffffffffffffffffffffffff168152602001908152602001600020541161057d576040517f08c379a000000000000000000000000000000000000000000000000000000000815260040161057490611576565b60405180910390fd5b6005600c60003373ffffffffffffffffffffffffffffffffffffffff1673ffffffffffffffffffffffffffffffffffffffff16815260200190815260200160002054106105ff576040517f08c379a00000000000000000000000000000000000000000000000000000000081526004016105f6906115e2565b60405180910390fd5b3373ffffffffffffffffffffffffffffffffffffffff166108fc600960003373ffffffffffffffffffffffffffffffffffffffff1673ffffffffffffffffffffffffffffffffffffffff168152602001908152602001600020549081150290604051600060405180830381858888f19350505050158015610684573d6000803e3d6000fd5b507f0f5bb82176feb1b5e747e28471aa92156a04d9f3ab9f45f28e2d704232b93f7533600960003373ffffffffffffffffffffffffffffffffffffffff1673ffffffffffffffffffffffffffffffffffffffff168152602001908152602001600020546040516106f5929190611602565b60405180910390a16000600960003373ffffffffffffffffffffffffffffffffffffffff1673ffffffffffffffffffffffffffffffffffffffff16815260200190815260200160002081905550565b60065481565b60085481565b600554600854610760919061165a565b4210156107a2576040517f08c379a0000000000000000000000000000000000000000000000000000000008152600401610799906116da565b60405180910390fd5b6004544710156107e7576040517f08c379a00000000000000000000000000000000000000000000000000000000081526004016107de9061176c565b60405180910390fd5b6000600960003373ffffffffffffffffffffffffffffffffffffffff1673ffffffffffffffffffffffffffffffffffffffff1681526020019081526020016000205411610869576040517f08c379a0000000000000000000000000000000000000000000000000000000008152600401610860906117d8565b60405180910390fd5b6005600c60003373ffffffffffffffffffffffffffffffffffffffff1673ffffffffffffffffffffffffffffffffffffffff16815260200190815260200160002054106108eb576040517f08c379a00000000000000000000000000000000000000000000000000000000081526004016108e2906115e2565b60405180910390fd5b8060068190555033600760006101000a81548173ffffffffffffffffffffffffffffffffffffffff021916908373ffffffffffffffffffffffffffffffffffffffff160217905550426008819055503373ffffffffffffffffffffffffffffffffffffffff166108fc6004549081150290604051600060405180830381858888f19350505050158015610982573d6000803e3d6000fd5b507fe58c3ffdb295caf54c0941790f95fed95924c43ef69f4a6519fc4cce6de902188142336040516109b6939291906117f8565b60405180910390a150565b600b6020528060005260406000206000915054906101000a900473ffffffffffffffffffffffffffffffffffffffff1681565b6000600960003373ffffffffffffffffffffffffffffffffffffffff1673ffffffffffffffffffffffffffffffffffffffff1681526020019081526020016000205411610a76576040517f08c379a0000000000000000000000000000000000000000000000000000000008152600401610a6d906117d8565b60405180910390fd5b3373ffffffffffffffffffffffffffffffffffffffff168173ffffffffffffffffffffffffffffffffffffffff1603610ae4576040517f08c379a0000000000000000000000000000000000000000000000000000000008152600401610adb9061187b565b60405180910390fd5b60001515600d60003373ffffffffffffffffffffffffffffffffffffffff1673ffffffffffffffffffffffffffffffffffffffff16815260200190815260200160002060008373ffffffffffffffffffffffffffffffffffffffff1673ffffffffffffffffffffffffffffffffffffffff16815260200190815260200160002060009054906101000a900460ff16151514610bb4576040517f08c379a0000000000000000000000000000000000000000000000000000000008152600401610bab906118e7565b60405180910390fd5b600c60008273ffffffffffffffffffffffffffffffffffffffff1673ffffffffffffffffffffffffffffffffffffffff1681526020019081526020016000206000815480929190610c0490611907565b91905055506001600d60003373ffffffffffffffffffffffffffffffffffffffff1673ffffffffffffffffffffffffffffffffffffffff16815260200190815260200160002060008373ffffffffffffffffffffffffffffffffffffffff1673ffffffffffffffffffffffffffffffffffffffff16815260200190815260200160002060006101000a81548160ff02191690831515021790555050565b60055481565b600354341015610cec576040517f08c379a0000000000000000000000000000000000000000000000000000000008152600401610ce39061199b565b60405180910390fd5b6000600960003373ffffffffffffffffffffffffffffffffffffffff1673ffffffffffffffffffffffffffffffffffffffff1681526020019081526020016000205414610d6e576040517f08c379a0000000000000000000000000000000000000000000000000000000008152600401610d6590611a07565b60405180910390fd5b7f000000000000000000000000000000000000000000000000000000000000000015610fc757600073ffffffffffffffffffffffffffffffffffffffff16600b600084815260200190815260200160002060009054906101000a900473ffffffffffffffffffffffffffffffffffffffff1673ffffffffffffffffffffffffffffffffffffffff1614610e36576040517f08c379a0000000000000000000000000000000000000000000000000000000008152600401610e2d90611a73565b60405180910390fd5b7f000000000000000000000000000000000000000000000000000000000000000073ffffffffffffffffffffffffffffffffffffffff16633bc778e3847f0000000000000000000000000000000000000000000000000000000000000000610ebc88604051602001610ea89190611adb565b604051602081830303815290604052611161565b867f0000000000000000000000000000000000000000000000000000000000000000876040518763ffffffff1660e01b8152600401610f0096959493929190611b10565b60006040518083038186803b158015610f1857600080fd5b505afa158015610f2c573d6000803e3d6000fd5b5050505033600b600084815260200190815260200160002060006101000a81548173ffffffffffffffffffffffffffffffffffffffff021916908373ffffffffffffffffffffffffffffffffffffffff16021790555081600a60003373ffffffffffffffffffffffffffffffffffffffff1673ffffffffffffffffffffffffffffffffffffffff168152602001908152602001600020819055505b34600960003373ffffffffffffffffffffffffffffffffffffffff1673ffffffffffffffffffffffffffffffffffffffff168152602001908152602001600020819055507f9e71bc8eea02a63969f509818f2dafb9254532904319f9dbda79b67bd34a5f3d333460405161103c929190611602565b60405180910390a150505050565b60035481565b60045481565b60015481565b60096020528060005260406000206000915090505481565b600c6020528060005260406000206000915090505481565b600d6020528160005260406000206020528060005260406000206000915091509054906101000a900460ff1681565b600280546110c8906114f9565b80601f01602080910402602001604051908101604052809291908181526020018280546110f4906114f9565b80156111415780601f1061111657610100808354040283529160200191611141565b820191906000526020600020905b81548152906001019060200180831161112457829003601f168201915b505050505081565b600a6020528060005260406000206000915090505481565b60006008826040516020016111769190611bb9565b6040516020818303038152906040528051906020012060001c901c9050919050565b600081519050919050565b600082825260208201905092915050565b60005b838110156111d25780820151818401526020810190506111b7565b60008484015250505050565b6000601f19601f8301169050919050565b60006111fa82611198565b61120481856111a3565b93506112148185602086016111b4565b61121d816111de565b840191505092915050565b6000602082019050818103600083015261124281846111ef565b905092915050565b600073ffffffffffffffffffffffffffffffffffffffff82169050919050565b60006112758261124a565b9050919050565b6112858161126a565b82525050565b60006020820190506112a0600083018461127c565b92915050565b6000819050919050565b6112b9816112a6565b82525050565b60006020820190506112d460008301846112b0565b92915050565b600080fd5b6112e8816112a6565b81146112f357600080fd5b50565b600081359050611305816112df565b92915050565b600060208284031215611321576113206112da565b5b600061132f848285016112f6565b91505092915050565b6113418161126a565b811461134c57600080fd5b50565b60008135905061135e81611338565b92915050565b60006020828403121561137a576113796112da565b5b60006113888482850161134f565b91505092915050565b600080fd5b6000819050826020600802820111156113b2576113b1611391565b5b92915050565b60008060008061016085870312156113d3576113d26112da565b5b60006113e18782880161134f565b94505060206113f2878288016112f6565b9350506040611403878288016112f6565b925050606061141487828801611396565b91505092959194509250565b6000819050919050565b61143381611420565b82525050565b600060208201905061144e600083018461142a565b92915050565b6000806040838503121561146b5761146a6112da565b5b60006114798582860161134f565b925050602061148a8582860161134f565b9150509250929050565b60008115159050919050565b6114a981611494565b82525050565b60006020820190506114c460008301846114a0565b92915050565b7f4e487b7100000000000000000000000000000000000000000000000000000000600052602260045260246000fd5b6000600282049050600182168061151157607f821691505b602082108103611524576115236114ca565b5b50919050565b7f4e6f74207374616b656400000000000000000000000000000000000000000000600082015250565b6000611560600a836111a3565b915061156b8261152a565b602082019050919050565b6000602082019050818103600083015261158f81611553565b9050919050565b7f5374616b65722069732062616e6e656400000000000000000000000000000000600082015250565b60006115cc6010836111a3565b91506115d782611596565b602082019050919050565b600060208201905081810360008301526115fb816115bf565b9050919050565b6000604082019050611617600083018561127c565b61162460208301846112b0565b9392505050565b7f4e487b7100000000000000000000000000000000000000000000000000000000600052601160045260246000fd5b6000611665826112a6565b9150611670836112a6565b92508282019050808211156116885761168761162b565b5b92915050565b7f436f6f6c6f666620706572696f64206e6f742079657420706173736564000000600082015250565b60006116c4601d836111a3565b91506116cf8261168e565b602082019050919050565b600060208201905081810360008301526116f3816116b7565b9050919050565b7f496e73756666696369656e742062616c616e636520746f2070617920626f756e60008201527f7479000000000000000000000000000000000000000000000000000000000000602082015250565b60006117566022836111a3565b9150611761826116fa565b604082019050919050565b6000602082019050818103600083015261178581611749565b9050919050565b7f4e6f742061207374616b65720000000000000000000000000000000000000000600082015250565b60006117c2600c836111a3565b91506117cd8261178c565b602082019050919050565b600060208201905081810360008301526117f1816117b5565b9050919050565b600060608201905061180d60008301866112b0565b61181a60208301856112b0565b611827604083018461127c565b949350505050565b7f43616e6e6f7420766f746520746f2062616e2073656c66000000000000000000600082015250565b60006118656017836111a3565b91506118708261182f565b602082019050919050565b6000602082019050818103600083015261189481611858565b9050919050565b7f416c726561647920766f74656400000000000000000000000000000000000000600082015250565b60006118d1600d836111a3565b91506118dc8261189b565b602082019050919050565b60006020820190508181036000830152611900816118c4565b9050919050565b6000611912826112a6565b91507fffffffffffffffffffffffffffffffffffffffffffffffffffffffffffffffff82036119445761194361162b565b5b600182019050919050565b7f496e636f7272656374207374616b6520616d6f756e7400000000000000000000600082015250565b60006119856016836111a3565b91506119908261194f565b602082019050919050565b600060208201905081810360008301526119b481611978565b9050919050565b7f416c7265616479207374616b6564000000000000000000000000000000000000600082015250565b60006119f1600e836111a3565b91506119fc826119bb565b602082019050919050565b60006020820190508181036000830152611a20816119e4565b9050919050565b7f4e756c6c6966696572206861736820616c726561647920757365640000000000600082015250565b6000611a5d601b836111a3565b9150611a6882611a27565b602082019050919050565b60006020820190508181036000830152611a8c81611a50565b9050919050565b60008160601b9050919050565b6000611aab82611a93565b9050919050565b6000611abd82611aa0565b9050919050565b611ad5611ad08261126a565b611ab2565b82525050565b6000611ae78284611ac4565b60148201915081905092915050565b82818337505050565b611b0c6101008383611af6565b5050565b60006101a082019050611b2660008301896112b0565b611b3360208301886112b0565b611b4060408301876112b0565b611b4d60608301866112b0565b611b5a60808301856112b0565b611b6760a0830184611aff565b979650505050505050565b600081519050919050565b600081905092915050565b6000611b9382611b72565b611b9d8185611b7d565b9350611bad8185602086016111b4565b80840191505092915050565b6000611bc58284611b88565b91508190509291505056fea2646970667358221220ad93328db5acde85dca77e5dbcf1aab3261fb0b3d4674631688123c2ca431ec764736f6c63430008180033a2646970667358221220051051b0446c13f910812ff266cbeee6dc77ca2e227d825b6a25f1e057e3da0264736f6c63430008180033",
  "linkReferences": {},
  "deployedLinkReferences": {}
}