{
  "contracts/Factory.sol": {
    "Factory": {
      "abi": [
        {
          "inputs": [
            {
              "internalType": "bool",
              "name": "_worldEnabled",
              "type": "bool"
            },
            {
              "internalType": "contract IWorldID",
              "name": "_worldId",
              "type": "address"
            },
            {
              "internalType": "string",
              "name": "_appId",
              "type": "string"
            },
            {
              "internalType": "string",
              "name": "_actionId",
              "type": "string"
            },
            {
              "internalType": "bool",
              "name": "_ensEnabled",
              "type": "bool"
            }
          ],
          "stateMutability": "nonpayable",
          "type": "constructor"
        },
        {
          "anonymous": false,
          "inputs": [
            {
              "indexed": true,
              "internalType": "uint256",
              "name": "index",
              "type": "uint256"
            },
            {
              "indexed": false,
              "internalType": "address",
              "name": "addr",
              "type": "address"
            }
          ],
          "name": "OracleCreated",
          "type": "event"
        },
        {
          "inputs": [
            {
              "internalType": "bytes32",
              "name": "node",
              "type": "bytes32"
            }
          ],
          "name": "addr",
          "outputs": [
            {
              "internalType": "address",
              "name": "",
              "type": "address"
            }
          ],
          "stateMutability": "view",
          "type": "function"
        },
        {
          "inputs": [
            {
              "internalType": "string",
              "name": "name",
              "type": "string"
            },
            {
              "internalType": "bytes32",
              "name": "node",
              "type": "bytes32"
            },
            {
              "internalType": "string",
              "name": "script",
              "type": "string"
            },
            {
              "internalType": "uint256",
              "name": "stakeRequirement",
              "type": "uint256"
            },
            {
              "internalType": "uint256",
              "name": "bountyAmount",
              "type": "uint256"
            },
            {
              "internalType": "uint256",
              "name": "cooloff",
              "type": "uint256"
            }
          ],
          "name": "createOracle",
          "outputs": [],
          "stateMutability": "nonpayable",
          "type": "function"
        },
        {
          "inputs": [
            {
              "internalType": "uint256",
              "name": "",
              "type": "uint256"
            }
          ],
          "name": "oracles",
          "outputs": [
            {
              "internalType": "address",
              "name": "",
              "type": "address"
            }
          ],
          "stateMutability": "view",
          "type": "function"
        },
        {
          "inputs": [
            {
              "internalType": "string",
              "name": "",
              "type": "string"
            }
          ],
          "name": "oraclesByName",
          "outputs": [
            {
              "internalType": "address",
              "name": "",
              "type": "address"
            }
          ],
          "stateMutability": "view",
          "type": "function"
        },
        {
          "inputs": [
            {
              "internalType": "bytes32",
              "name": "",
              "type": "bytes32"
            }
          ],
          "name": "oraclesByNode",
          "outputs": [
            {
              "internalType": "address",
              "name": "",
              "type": "address"
            }
          ],
          "stateMutability": "view",
          "type": "function"
        }
      ],
      "evm": {
        "bytecode": {
          "linkReferences": {},
          "object": "60c06040523480156200001157600080fd5b5060405162003c0e38038062003c0e833981810160405281019062000037919062000309565b8415156080811515815250508373ffffffffffffffffffffffffffffffffffffffff1660a08173ffffffffffffffffffffffffffffffffffffffff168152505082600090816200008891906200061a565b5081600190816200009a91906200061a565b5080600260006101000a81548160ff021916908315150217905550505050505062000701565b6000604051905090565b600080fd5b600080fd5b60008115159050919050565b620000eb81620000d4565b8114620000f757600080fd5b50565b6000815190506200010b81620000e0565b92915050565b600073ffffffffffffffffffffffffffffffffffffffff82169050919050565b60006200013e8262000111565b9050919050565b6000620001528262000131565b9050919050565b620001648162000145565b81146200017057600080fd5b50565b600081519050620001848162000159565b92915050565b600080fd5b600080fd5b6000601f19601f8301169050919050565b7f4e487b7100000000000000000000000000000000000000000000000000000000600052604160045260246000fd5b620001df8262000194565b810181811067ffffffffffffffff82111715620002015762000200620001a5565b5b80604052505050565b600062000216620000c0565b9050620002248282620001d4565b919050565b600067ffffffffffffffff821115620002475762000246620001a5565b5b620002528262000194565b9050602081019050919050565b60005b838110156200027f57808201518184015260208101905062000262565b60008484015250505050565b6000620002a26200029c8462000229565b6200020a565b905082815260208101848484011115620002c157620002c06200018f565b5b620002ce8482856200025f565b509392505050565b600082601f830112620002ee57620002ed6200018a565b5b8151620003008482602086016200028b565b91505092915050565b600080600080600060a08688031215620003285762000327620000ca565b5b60006200033888828901620000fa565b95505060206200034b8882890162000173565b945050604086015167ffffffffffffffff8111156200036f576200036e620000cf565b5b6200037d88828901620002d6565b935050606086015167ffffffffffffffff811115620003a157620003a0620000cf565b5b620003af88828901620002d6565b9250506080620003c288828901620000fa565b9150509295509295909350565b600081519050919050565b7f4e487b7100000000000000000000000000000000000000000000000000000000600052602260045260246000fd5b600060028204905060018216806200042257607f821691505b602082108103620004385762000437620003da565b5b50919050565b60008190508160005260206000209050919050565b60006020601f8301049050919050565b600082821b905092915050565b600060088302620004a27fffffffffffffffffffffffffffffffffffffffffffffffffffffffffffffffff8262000463565b620004ae868362000463565b95508019841693508086168417925050509392505050565b6000819050919050565b6000819050919050565b6000620004fb620004f5620004ef84620004c6565b620004d0565b620004c6565b9050919050565b6000819050919050565b6200051783620004da565b6200052f620005268262000502565b84845462000470565b825550505050565b600090565b6200054662000537565b620005538184846200050c565b505050565b5b818110156200057b576200056f6000826200053c565b60018101905062000559565b5050565b601f821115620005ca5762000594816200043e565b6200059f8462000453565b81016020851015620005af578190505b620005c7620005be8562000453565b83018262000558565b50505b505050565b600082821c905092915050565b6000620005ef60001984600802620005cf565b1980831691505092915050565b60006200060a8383620005dc565b9150826002028217905092915050565b6200062582620003cf565b67ffffffffffffffff811115620006415762000640620001a5565b5b6200064d825462000409565b6200065a8282856200057f565b600060209050601f8311600181146200069257600084156200067d578287015190505b620006898582620005fc565b865550620006f9565b601f198416620006a2866200043e565b60005b82811015620006cc57848901518255600182019150602085019450602081019050620006a5565b86831015620006ec5784890151620006e8601f891682620005dc565b8355505b6001600288020188555050505b505050505050565b60805160a0516134e762000727600039600061031a015260006102f901526134e76000f3fe60806040523480156200001157600080fd5b50600436106200005e5760003560e01c80633b3b57de14620000635780634657b3c114620000995780635b69a7d814620000b9578063abd461fd14620000ef578063ad8c7fce1462000125575b600080fd5b6200008160048036038101906200007b919062000614565b6200015b565b6040516200009091906200068b565b60405180910390f35b620000b76004803603810190620000b1919062000845565b62000198565b005b620000d76004803603810190620000d191906200091f565b620004fb565b604051620000e691906200068b565b60405180910390f35b6200010d600480360381019062000107919062000951565b6200053b565b6040516200011c91906200068b565b60405180910390f35b6200014360048036038101906200013d919062000614565b62000584565b6040516200015291906200068b565b60405180910390f35b60006005600083815260200190815260200160002060009054906101000a900473ffffffffffffffffffffffffffffffffffffffff169050919050565b600073ffffffffffffffffffffffffffffffffffffffff16600487604051620001c2919062000a1b565b908152602001604051809103902060009054906101000a900473ffffffffffffffffffffffffffffffffffffffff1673ffffffffffffffffffffffffffffffffffffffff16146200024a576040517f08c379a0000000000000000000000000000000000000000000000000000000008152600401620002419062000a95565b60405180910390fd5b600073ffffffffffffffffffffffffffffffffffffffff166005600087815260200190815260200160002060009054906101000a900473ffffffffffffffffffffffffffffffffffffffff1673ffffffffffffffffffffffffffffffffffffffff1614620002ef576040517f08c379a0000000000000000000000000000000000000000000000000000000008152600401620002e69062000b07565b60405180910390fd5b60008686868686867f00000000000000000000000000000000000000000000000000000000000000007f000000000000000000000000000000000000000000000000000000000000000060006001600260009054906101000a900460ff166040516200035b90620005b7565b620003719b9a9998979695949392919062000d1d565b604051809103906000f0801580156200038e573d6000803e3d6000fd5b5090506003819080600181540180825580915050600190039060005260206000200160009091909190916101000a81548173ffffffffffffffffffffffffffffffffffffffff021916908373ffffffffffffffffffffffffffffffffffffffff1602179055508060048860405162000407919062000a1b565b908152602001604051809103902060006101000a81548173ffffffffffffffffffffffffffffffffffffffff021916908373ffffffffffffffffffffffffffffffffffffffff160217905550806005600088815260200190815260200160002060006101000a81548173ffffffffffffffffffffffffffffffffffffffff021916908373ffffffffffffffffffffffffffffffffffffffff1602179055506001600380549050620004b9919062000e29565b7f804775e1c4cbdcdd4f587b62fa0fd7907140c20d90200655a8d19a2697870f1482604051620004ea91906200068b565b60405180910390a250505050505050565b600381815481106200050c57600080fd5b906000526020600020016000915054906101000a900473ffffffffffffffffffffffffffffffffffffffff1681565b6004818051602081018201805184825260208301602085012081835280955050505050506000915054906101000a900473ffffffffffffffffffffffffffffffffffffffff1681565b60056020528060005260406000206000915054906101000a900473ffffffffffffffffffffffffffffffffffffffff1681565b61264d8062000e6583390190565b6000604051905090565b600080fd5b600080fd5b6000819050919050565b620005ee81620005d9565b8114620005fa57600080fd5b50565b6000813590506200060e81620005e3565b92915050565b6000602082840312156200062d576200062c620005cf565b5b60006200063d84828501620005fd565b91505092915050565b600073ffffffffffffffffffffffffffffffffffffffff82169050919050565b6000620006738262000646565b9050919050565b620006858162000666565b82525050565b6000602082019050620006a260008301846200067a565b92915050565b600080fd5b600080fd5b6000601f19601f8301169050919050565b7f4e487b7100000000000000000000000000000000000000000000000000000000600052604160045260246000fd5b620006fd82620006b2565b810181811067ffffffffffffffff821117156200071f576200071e620006c3565b5b80604052505050565b600062000734620005c5565b9050620007428282620006f2565b919050565b600067ffffffffffffffff821115620007655762000764620006c3565b5b6200077082620006b2565b9050602081019050919050565b82818337600083830152505050565b6000620007a36200079d8462000747565b62000728565b905082815260208101848484011115620007c257620007c1620006ad565b5b620007cf8482856200077d565b509392505050565b600082601f830112620007ef57620007ee620006a8565b5b8135620008018482602086016200078c565b91505092915050565b6000819050919050565b6200081f816200080a565b81146200082b57600080fd5b50565b6000813590506200083f8162000814565b92915050565b60008060008060008060c08789031215620008655762000864620005cf565b5b600087013567ffffffffffffffff811115620008865762000885620005d4565b5b6200089489828a01620007d7565b9650506020620008a789828a01620005fd565b955050604087013567ffffffffffffffff811115620008cb57620008ca620005d4565b5b620008d989828a01620007d7565b9450506060620008ec89828a016200082e565b9350506080620008ff89828a016200082e565b92505060a06200091289828a016200082e565b9150509295509295509295565b600060208284031215620009385762000937620005cf565b5b600062000948848285016200082e565b91505092915050565b6000602082840312156200096a5762000969620005cf565b5b600082013567ffffffffffffffff8111156200098b576200098a620005d4565b5b6200099984828501620007d7565b91505092915050565b600081519050919050565b600081905092915050565b60005b83811015620009d8578082015181840152602081019050620009bb565b60008484015250505050565b6000620009f182620009a2565b620009fd8185620009ad565b935062000a0f818560208601620009b8565b80840191505092915050565b600062000a298284620009e4565b915081905092915050565b600082825260208201905092915050565b7f4e616d6520616c72656164792065786973747300000000000000000000000000600082015250565b600062000a7d60138362000a34565b915062000a8a8262000a45565b602082019050919050565b6000602082019050818103600083015262000ab08162000a6e565b9050919050565b7f4e6f646520616c72656164792065786973747300000000000000000000000000600082015250565b600062000aef60138362000a34565b915062000afc8262000ab7565b602082019050919050565b6000602082019050818103600083015262000b228162000ae0565b9050919050565b600062000b3682620009a2565b62000b42818562000a34565b935062000b54818560208601620009b8565b62000b5f81620006b2565b840191505092915050565b62000b7581620005d9565b82525050565b62000b86816200080a565b82525050565b60008115159050919050565b62000ba38162000b8c565b82525050565b6000819050919050565b600062000bd462000bce62000bc88462000646565b62000ba9565b62000646565b9050919050565b600062000be88262000bb3565b9050919050565b600062000bfc8262000bdb565b9050919050565b62000c0e8162000bef565b82525050565b7f4e487b7100000000000000000000000000000000000000000000000000000000600052602260045260246000fd5b6000600282049050600182168062000c5c57607f821691505b60208210810362000c725762000c7162000c14565b5b50919050565b60008190508160005260206000209050919050565b6000815462000c9c8162000c43565b62000ca8818662000a34565b9450600182166000811462000cc6576001811462000cdd5762000d14565b60ff19831686528115156020028601935062000d14565b62000ce88562000c78565b60005b8381101562000d0c5781548189015260018201915060208101905062000ceb565b808801955050505b50505092915050565b600061016082019050818103600083015262000d3a818e62000b29565b905062000d4b602083018d62000b6a565b818103604083015262000d5f818c62000b29565b905062000d70606083018b62000b7b565b62000d7f608083018a62000b7b565b62000d8e60a083018962000b7b565b62000d9d60c083018862000b98565b62000dac60e083018762000c03565b81810361010083015262000dc1818662000c8d565b905081810361012083015262000dd8818562000c8d565b905062000dea61014083018462000b98565b9c9b505050505050505050505050565b7f4e487b7100000000000000000000000000000000000000000000000000000000600052601160045260246000fd5b600062000e36826200080a565b915062000e43836200080a565b925082820390508181111562000e5e5762000e5d62000dfa565b5b9291505056fe610120604052600160e0908152503480156200001a57600080fd5b506040516200264d3803806200264d833981810160405281019062000040919062000442565b8a600090816200005191906200080c565b508960018190555088600290816200006a91906200080c565b508760038190555086600481905550856005819055508415156080811515815250508373ffffffffffffffffffffffffffffffffffffffff1660a08173ffffffffffffffffffffffffffffffffffffffff168152505062000125620000f684604051602001620000db919062000935565b6040516020818303038152906040526200014a60201b60201c565b836040516020016200010a92919062000973565b6040516020818303038152906040526200014a60201b60201c565b60c0818152505080151561010081151581525050505050505050505050505062000a05565b6000600882604051602001620001619190620009ec565b6040516020818303038152906040528051906020012060001c901c9050919050565b6000604051905090565b600080fd5b600080fd5b600080fd5b600080fd5b6000601f19601f8301169050919050565b7f4e487b7100000000000000000000000000000000000000000000000000000000600052604160045260246000fd5b620001ec82620001a1565b810181811067ffffffffffffffff821117156200020e576200020d620001b2565b5b80604052505050565b60006200022362000183565b9050620002318282620001e1565b919050565b600067ffffffffffffffff821115620002545762000253620001b2565b5b6200025f82620001a1565b9050602081019050919050565b60005b838110156200028c5780820151818401526020810190506200026f565b60008484015250505050565b6000620002af620002a98462000236565b62000217565b905082815260208101848484011115620002ce57620002cd6200019c565b5b620002db8482856200026c565b509392505050565b600082601f830112620002fb57620002fa62000197565b5b81516200030d84826020860162000298565b91505092915050565b6000819050919050565b6200032b8162000316565b81146200033757600080fd5b50565b6000815190506200034b8162000320565b92915050565b6000819050919050565b620003668162000351565b81146200037257600080fd5b50565b60008151905062000386816200035b565b92915050565b60008115159050919050565b620003a3816200038c565b8114620003af57600080fd5b50565b600081519050620003c38162000398565b92915050565b600073ffffffffffffffffffffffffffffffffffffffff82169050919050565b6000620003f682620003c9565b9050919050565b60006200040a82620003e9565b9050919050565b6200041c81620003fd565b81146200042857600080fd5b50565b6000815190506200043c8162000411565b92915050565b60008060008060008060008060008060006101608c8e0312156200046b576200046a6200018d565b5b60008c015167ffffffffffffffff8111156200048c576200048b62000192565b5b6200049a8e828f01620002e3565b9b50506020620004ad8e828f016200033a565b9a505060408c015167ffffffffffffffff811115620004d157620004d062000192565b5b620004df8e828f01620002e3565b9950506060620004f28e828f0162000375565b9850506080620005058e828f0162000375565b97505060a0620005188e828f0162000375565b96505060c06200052b8e828f01620003b2565b95505060e06200053e8e828f016200042b565b9450506101008c015167ffffffffffffffff81111562000563576200056262000192565b5b620005718e828f01620002e3565b9350506101208c015167ffffffffffffffff81111562000596576200059562000192565b5b620005a48e828f01620002e3565b925050610140620005b88e828f01620003b2565b9150509295989b509295989b9093969950565b600081519050919050565b7f4e487b7100000000000000000000000000000000000000000000000000000000600052602260045260246000fd5b600060028204905060018216806200061e57607f821691505b602082108103620006345762000633620005d6565b5b50919050565b60008190508160005260206000209050919050565b60006020601f8301049050919050565b600082821b905092915050565b6000600883026200069e7fffffffffffffffffffffffffffffffffffffffffffffffffffffffffffffffff826200065f565b620006aa86836200065f565b95508019841693508086168417925050509392505050565b6000819050919050565b6000620006ed620006e7620006e18462000351565b620006c2565b62000351565b9050919050565b6000819050919050565b6200070983620006cc565b620007216200071882620006f4565b8484546200066c565b825550505050565b600090565b6200073862000729565b62000745818484620006fe565b505050565b5b818110156200076d57620007616000826200072e565b6001810190506200074b565b5050565b601f821115620007bc5762000786816200063a565b62000791846200064f565b81016020851015620007a1578190505b620007b9620007b0856200064f565b8301826200074a565b50505b505050565b600082821c905092915050565b6000620007e160001984600802620007c1565b1980831691505092915050565b6000620007fc8383620007ce565b9150826002028217905092915050565b6200081782620005cb565b67ffffffffffffffff811115620008335762000832620001b2565b5b6200083f825462000605565b6200084c82828562000771565b600060209050601f8311600181146200088457600084156200086f578287015190505b6200087b8582620007ee565b865550620008eb565b601f19841662000894866200063a565b60005b82811015620008be5784890151825560018201915060208501945060208101905062000897565b86831015620008de5784890151620008da601f891682620007ce565b8355505b6001600288020188555050505b505050505050565b600081905092915050565b60006200090b82620005cb565b620009178185620008f3565b9350620009298185602086016200026c565b80840191505092915050565b6000620009438284620008fe565b915081905092915050565b6000819050919050565b6200096d620009678262000351565b6200094e565b82525050565b600062000981828562000958565b602082019150620009938284620008fe565b91508190509392505050565b600081519050919050565b600081905092915050565b6000620009c2826200099f565b620009ce8185620009aa565b9350620009e08185602086016200026c565b80840191505092915050565b6000620009fa8284620009b5565b915081905092915050565b60805160a05160c05160e05161010051611c0662000a47600039600050506000610e7501526000610ebf01526000610e3801526000610d700152611c066000f3fe6080604052600436106101095760003560e01c80637c7eea6e11610095578063e428c6dd11610064578063e428c6dd14610328578063e4873cbd14610365578063e8193213146103a2578063ebe9eb9f146103df578063eefb5f621461040a57610109565b80637c7eea6e1461028b578063b6f9bbb9146102a7578063ccd331bf146102d2578063d70754ec146102fd57610109565b806354aea127116100dc57806354aea127146101a6578063573c0bd3146101d157806364698e71146101fa5780636920fbb8146102375780637b19eb4c1461026057610109565b806306fdde031461010e578063177b1ef5146101395780632def6620146101645780633fa4f2451461017b575b600080fd5b34801561011a57600080fd5b50610123610447565b6040516101309190611228565b60405180910390f35b34801561014557600080fd5b5061014e6104d5565b60405161015b919061128b565b60405180910390f35b34801561017057600080fd5b506101796104fb565b005b34801561018757600080fd5b50610190610744565b60405161019d91906112bf565b60405180910390f35b3480156101b257600080fd5b506101bb61074a565b6040516101c891906112bf565b60405180910390f35b3480156101dd57600080fd5b506101f860048036038101906101f3919061130b565b610750565b005b34801561020657600080fd5b50610221600480360381019061021c919061130b565b6109c1565b60405161022e919061128b565b60405180910390f35b34801561024357600080fd5b5061025e60048036038101906102599190611364565b6109f4565b005b34801561026c57600080fd5b50610275610ca1565b60405161028291906112bf565b60405180910390f35b6102a560048036038101906102a091906113b8565b610ca7565b005b3480156102b357600080fd5b506102bc61104a565b6040516102c991906112bf565b60405180910390f35b3480156102de57600080fd5b506102e7611050565b6040516102f491906112bf565b60405180910390f35b34801561030957600080fd5b50610312611056565b60405161031f9190611439565b60405180910390f35b34801561033457600080fd5b5061034f600480360381019061034a9190611364565b61105c565b60405161035c91906112bf565b60405180910390f35b34801561037157600080fd5b5061038c60048036038101906103879190611364565b611074565b60405161039991906112bf565b60405180910390f35b3480156103ae57600080fd5b506103c960048036038101906103c49190611454565b61108c565b6040516103d691906114af565b60405180910390f35b3480156103eb57600080fd5b506103f46110bb565b6040516104019190611228565b60405180910390f35b34801561041657600080fd5b50610431600480360381019061042c9190611364565b611149565b60405161043e91906112bf565b60405180910390f35b60008054610454906114f9565b80601f0160208091040260200160405190810160405280929190818152602001828054610480906114f9565b80156104cd5780601f106104a2576101008083540402835291602001916104cd565b820191906000526020600020905b8154815290600101906020018083116104b057829003601f168201915b505050505081565b600760009054906101000a900473ffffffffffffffffffffffffffffffffffffffff1681565b6000600960003373ffffffffffffffffffffffffffffffffffffffff1673ffffffffffffffffffffffffffffffffffffffff168152602001908152602001600020541161057d576040517f08c379a000000000000000000000000000000000000000000000000000000000815260040161057490611576565b60405180910390fd5b6005600c60003373ffffffffffffffffffffffffffffffffffffffff1673ffffffffffffffffffffffffffffffffffffffff16815260200190815260200160002054106105ff576040517f08c379a00000000000000000000000000000000000000000000000000000000081526004016105f6906115e2565b60405180910390fd5b3373ffffffffffffffffffffffffffffffffffffffff166108fc600960003373ffffffffffffffffffffffffffffffffffffffff1673ffffffffffffffffffffffffffffffffffffffff168152602001908152602001600020549081150290604051600060405180830381858888f19350505050158015610684573d6000803e3d6000fd5b507f0f5bb82176feb1b5e747e28471aa92156a04d9f3ab9f45f28e2d704232b93f7533600960003373ffffffffffffffffffffffffffffffffffffffff1673ffffffffffffffffffffffffffffffffffffffff168152602001908152602001600020546040516106f5929190611602565b60405180910390a16000600960003373ffffffffffffffffffffffffffffffffffffffff1673ffffffffffffffffffffffffffffffffffffffff16815260200190815260200160002081905550565b60065481565b60085481565b600554600854610760919061165a565b4210156107a2576040517f08c379a0000000000000000000000000000000000000000000000000000000008152600401610799906116da565b60405180910390fd5b6004544710156107e7576040517f08c379a00000000000000000000000000000000000000000000000000000000081526004016107de9061176c565b60405180910390fd5b6000600960003373ffffffffffffffffffffffffffffffffffffffff1673ffffffffffffffffffffffffffffffffffffffff1681526020019081526020016000205411610869576040517f08c379a0000000000000000000000000000000000000000000000000000000008152600401610860906117d8565b60405180910390fd5b6005600c60003373ffffffffffffffffffffffffffffffffffffffff1673ffffffffffffffffffffffffffffffffffffffff16815260200190815260200160002054106108eb576040517f08c379a00000000000000000000000000000000000000000000000000000000081526004016108e2906115e2565b60405180910390fd5b8060068190555033600760006101000a81548173ffffffffffffffffffffffffffffffffffffffff021916908373ffffffffffffffffffffffffffffffffffffffff160217905550426008819055503373ffffffffffffffffffffffffffffffffffffffff166108fc6004549081150290604051600060405180830381858888f19350505050158015610982573d6000803e3d6000fd5b507fe58c3ffdb295caf54c0941790f95fed95924c43ef69f4a6519fc4cce6de902188142336040516109b6939291906117f8565b60405180910390a150565b600b6020528060005260406000206000915054906101000a900473ffffffffffffffffffffffffffffffffffffffff1681565b6000600960003373ffffffffffffffffffffffffffffffffffffffff1673ffffffffffffffffffffffffffffffffffffffff1681526020019081526020016000205411610a76576040517f08c379a0000000000000000000000000000000000000000000000000000000008152600401610a6d906117d8565b60405180910390fd5b3373ffffffffffffffffffffffffffffffffffffffff168173ffffffffffffffffffffffffffffffffffffffff1603610ae4576040517f08c379a0000000000000000000000000000000000000000000000000000000008152600401610adb9061187b565b60405180910390fd5b60001515600d60003373ffffffffffffffffffffffffffffffffffffffff1673ffffffffffffffffffffffffffffffffffffffff16815260200190815260200160002060008373ffffffffffffffffffffffffffffffffffffffff1673ffffffffffffffffffffffffffffffffffffffff16815260200190815260200160002060009054906101000a900460ff16151514610bb4576040517f08c379a0000000000000000000000000000000000000000000000000000000008152600401610bab906118e7565b60405180910390fd5b600c60008273ffffffffffffffffffffffffffffffffffffffff1673ffffffffffffffffffffffffffffffffffffffff1681526020019081526020016000206000815480929190610c0490611907565b91905055506001600d60003373ffffffffffffffffffffffffffffffffffffffff1673ffffffffffffffffffffffffffffffffffffffff16815260200190815260200160002060008373ffffffffffffffffffffffffffffffffffffffff1673ffffffffffffffffffffffffffffffffffffffff16815260200190815260200160002060006101000a81548160ff02191690831515021790555050565b60055481565b600354341015610cec576040517f08c379a0000000000000000000000000000000000000000000000000000000008152600401610ce39061199b565b60405180910390fd5b6000600960003373ffffffffffffffffffffffffffffffffffffffff1673ffffffffffffffffffffffffffffffffffffffff1681526020019081526020016000205414610d6e576040517f08c379a0000000000000000000000000000000000000000000000000000000008152600401610d6590611a07565b60405180910390fd5b7f000000000000000000000000000000000000000000000000000000000000000015610fc757600073ffffffffffffffffffffffffffffffffffffffff16600b600084815260200190815260200160002060009054906101000a900473ffffffffffffffffffffffffffffffffffffffff1673ffffffffffffffffffffffffffffffffffffffff1614610e36576040517f08c379a0000000000000000000000000000000000000000000000000000000008152600401610e2d90611a73565b60405180910390fd5b7f000000000000000000000000000000000000000000000000000000000000000073ffffffffffffffffffffffffffffffffffffffff16633bc778e3847f0000000000000000000000000000000000000000000000000000000000000000610ebc88604051602001610ea89190611adb565b604051602081830303815290604052611161565b867f0000000000000000000000000000000000000000000000000000000000000000876040518763ffffffff1660e01b8152600401610f0096959493929190611b10565b60006040518083038186803b158015610f1857600080fd5b505afa158015610f2c573d6000803e3d6000fd5b5050505033600b600084815260200190815260200160002060006101000a81548173ffffffffffffffffffffffffffffffffffffffff021916908373ffffffffffffffffffffffffffffffffffffffff16021790555081600a60003373ffffffffffffffffffffffffffffffffffffffff1673ffffffffffffffffffffffffffffffffffffffff168152602001908152602001600020819055505b34600960003373ffffffffffffffffffffffffffffffffffffffff1673ffffffffffffffffffffffffffffffffffffffff168152602001908152602001600020819055507f9e71bc8eea02a63969f509818f2dafb9254532904319f9dbda79b67bd34a5f3d333460405161103c929190611602565b60405180910390a150505050565b60035481565b60045481565b60015481565b60096020528060005260406000206000915090505481565b600c6020528060005260406000206000915090505481565b600d6020528160005260406000206020528060005260406000206000915091509054906101000a900460ff1681565b600280546110c8906114f9565b80601f01602080910402602001604051908101604052809291908181526020018280546110f4906114f9565b80156111415780601f1061111657610100808354040283529160200191611141565b820191906000526020600020905b81548152906001019060200180831161112457829003601f168201915b505050505081565b600a6020528060005260406000206000915090505481565b60006008826040516020016111769190611bb9565b6040516020818303038152906040528051906020012060001c901c9050919050565b600081519050919050565b600082825260208201905092915050565b60005b838110156111d25780820151818401526020810190506111b7565b60008484015250505050565b6000601f19601f8301169050919050565b60006111fa82611198565b61120481856111a3565b93506112148185602086016111b4565b61121d816111de565b840191505092915050565b6000602082019050818103600083015261124281846111ef565b905092915050565b600073ffffffffffffffffffffffffffffffffffffffff82169050919050565b60006112758261124a565b9050919050565b6112858161126a565b82525050565b60006020820190506112a0600083018461127c565b92915050565b6000819050919050565b6112b9816112a6565b82525050565b60006020820190506112d460008301846112b0565b92915050565b600080fd5b6112e8816112a6565b81146112f357600080fd5b50565b600081359050611305816112df565b92915050565b600060208284031215611321576113206112da565b5b600061132f848285016112f6565b91505092915050565b6113418161126a565b811461134c57600080fd5b50565b60008135905061135e81611338565b92915050565b60006020828403121561137a576113796112da565b5b60006113888482850161134f565b91505092915050565b600080fd5b6000819050826020600802820111156113b2576113b1611391565b5b92915050565b60008060008061016085870312156113d3576113d26112da565b5b60006113e18782880161134f565b94505060206113f2878288016112f6565b9350506040611403878288016112f6565b925050606061141487828801611396565b91505092959194509250565b6000819050919050565b61143381611420565b82525050565b600060208201905061144e600083018461142a565b92915050565b6000806040838503121561146b5761146a6112da565b5b60006114798582860161134f565b925050602061148a8582860161134f565b9150509250929050565b60008115159050919050565b6114a981611494565b82525050565b60006020820190506114c460008301846114a0565b92915050565b7f4e487b7100000000000000000000000000000000000000000000000000000000600052602260045260246000fd5b6000600282049050600182168061151157607f821691505b602082108103611524576115236114ca565b5b50919050565b7f4e6f74207374616b656400000000000000000000000000000000000000000000600082015250565b6000611560600a836111a3565b915061156b8261152a565b602082019050919050565b6000602082019050818103600083015261158f81611553565b9050919050565b7f5374616b65722069732062616e6e656400000000000000000000000000000000600082015250565b60006115cc6010836111a3565b91506115d782611596565b602082019050919050565b600060208201905081810360008301526115fb816115bf565b9050919050565b6000604082019050611617600083018561127c565b61162460208301846112b0565b9392505050565b7f4e487b7100000000000000000000000000000000000000000000000000000000600052601160045260246000fd5b6000611665826112a6565b9150611670836112a6565b92508282019050808211156116885761168761162b565b5b92915050565b7f436f6f6c6f666620706572696f64206e6f742079657420706173736564000000600082015250565b60006116c4601d836111a3565b91506116cf8261168e565b602082019050919050565b600060208201905081810360008301526116f3816116b7565b9050919050565b7f496e73756666696369656e742062616c616e636520746f2070617920626f756e60008201527f7479000000000000000000000000000000000000000000000000000000000000602082015250565b60006117566022836111a3565b9150611761826116fa565b604082019050919050565b6000602082019050818103600083015261178581611749565b9050919050565b7f4e6f742061207374616b65720000000000000000000000000000000000000000600082015250565b60006117c2600c836111a3565b91506117cd8261178c565b602082019050919050565b600060208201905081810360008301526117f1816117b5565b9050919050565b600060608201905061180d60008301866112b0565b61181a60208301856112b0565b611827604083018461127c565b949350505050565b7f43616e6e6f7420766f746520746f2062616e2073656c66000000000000000000600082015250565b60006118656017836111a3565b91506118708261182f565b602082019050919050565b6000602082019050818103600083015261189481611858565b9050919050565b7f416c726561647920766f74656400000000000000000000000000000000000000600082015250565b60006118d1600d836111a3565b91506118dc8261189b565b602082019050919050565b60006020820190508181036000830152611900816118c4565b9050919050565b6000611912826112a6565b91507fffffffffffffffffffffffffffffffffffffffffffffffffffffffffffffffff82036119445761194361162b565b5b600182019050919050565b7f496e636f7272656374207374616b6520616d6f756e7400000000000000000000600082015250565b60006119856016836111a3565b91506119908261194f565b602082019050919050565b600060208201905081810360008301526119b481611978565b9050919050565b7f416c7265616479207374616b6564000000000000000000000000000000000000600082015250565b60006119f1600e836111a3565b91506119fc826119bb565b602082019050919050565b60006020820190508181036000830152611a20816119e4565b9050919050565b7f4e756c6c6966696572206861736820616c726561647920757365640000000000600082015250565b6000611a5d601b836111a3565b9150611a6882611a27565b602082019050919050565b60006020820190508181036000830152611a8c81611a50565b9050919050565b60008160601b9050919050565b6000611aab82611a93565b9050919050565b6000611abd82611aa0565b9050919050565b611ad5611ad08261126a565b611ab2565b82525050565b6000611ae78284611ac4565b60148201915081905092915050565b82818337505050565b611b0c6101008383611af6565b5050565b60006101a082019050611b2660008301896112b0565b611b3360208301886112b0565b611b4060408301876112b0565b611b4d60608301866112b0565b611b5a60808301856112b0565b611b6760a0830184611aff565b979650505050505050565b600081519050919050565b600081905092915050565b6000611b9382611b72565b611b9d8185611b7d565b9350611bad8185602086016111b4565b80840191505092915050565b6000611bc58284611b88565b91508190509291505056fea2646970667358221220ad93328db5acde85dca77e5dbcf1aab3261fb0b3d4674631688123c2ca431ec764736f6c63430008180033a2646970667358221220051051b0446c13f910812ff266cbeee6dc77ca2e227d825b6a25f1e057e3da0264736f6c63430008180033",
          "opcodes": "PUSH1 0xC0 PUSH1 0x40 MSTORE CALLVALUE DUP1 ISZERO PUSH3 0x11 JUMPI PUSH1 0x0 DUP1 REVERT JUMPDEST POP PUSH1 0x40 MLOAD PUSH3 0x3C0E CODESIZE SUB DUP1 PUSH3 0x3C0E DUP4 CODECOPY DUP2 DUP2 ADD PUSH1 0x40 MSTORE DUP2 ADD SWAP1 PUSH3 0x37 SWAP2 SWAP1 PUSH3 0x309 JUMP JUMPDEST DUP5 ISZERO ISZERO PUSH1 0x80 DUP2 ISZERO ISZERO DUP2 MSTORE POP POP DUP4 PUSH20 0xFFFFFFFFFFFFFFFFFFFFFFFFFFFFFFFFFFFFFFFF AND PUSH1 0xA0 DUP2 PUSH20 0xFFFFFFFFFFFFFFFFFFFFFFFFFFFFFFFFFFFFFFFF AND DUP2 MSTORE POP POP DUP3 PUSH1 0x0 SWAP1 DUP2 PUSH3 0x88 SWAP2 SWAP1 PUSH3 0x61A JUMP JUMPDEST POP DUP2 PUSH1 0x1 SWAP1 DUP2 PUSH3 0x9A SWAP2 SWAP1 PUSH3 0x61A JUMP JUMPDEST POP DUP1 PUSH1 0x2 PUSH1 0x0 PUSH2 0x100 EXP DUP2 SLOAD DUP2 PUSH1 0xFF MUL NOT AND SWAP1 DUP4 ISZERO ISZERO MUL OR SWAP1 SSTORE POP POP POP POP POP POP PUSH3 0x701 JUMP JUMPDEST PUSH1 0x0 PUSH1 0x40 MLOAD SWAP1 POP SWAP1 JUMP JUMPDEST PUSH1 0x0 DUP1 REVERT JUMPDEST PUSH1 0x0 DUP1 REVERT JUMPDEST PUSH1 0x0 DUP2 ISZERO ISZERO SWAP1 POP SWAP2 SWAP1 POP JUMP JUMPDEST PUSH3 0xEB DUP2 PUSH3 0xD4 JUMP JUMPDEST DUP2 EQ PUSH3 0xF7 JUMPI PUSH1 0x0 DUP1 REVERT JUMPDEST POP JUMP JUMPDEST PUSH1 0x0 DUP2 MLOAD SWAP1 POP PUSH3 0x10B DUP2 PUSH3 0xE0 JUMP JUMPDEST SWAP3 SWAP2 POP POP JUMP JUMPDEST PUSH1 0x0 PUSH20 0xFFFFFFFFFFFFFFFFFFFFFFFFFFFFFFFFFFFFFFFF DUP3 AND SWAP1 POP SWAP2 SWAP1 POP JUMP JUMPDEST PUSH1 0x0 PUSH3 0x13E DUP3 PUSH3 0x111 JUMP JUMPDEST SWAP1 POP SWAP2 SWAP1 POP JUMP JUMPDEST PUSH1 0x0 PUSH3 0x152 DUP3 PUSH3 0x131 JUMP JUMPDEST SWAP1 POP SWAP2 SWAP1 POP JUMP JUMPDEST PUSH3 0x164 DUP2 PUSH3 0x145 JUMP JUMPDEST DUP2 EQ PUSH3 0x170 JUMPI PUSH1 0x0 DUP1 REVERT JUMPDEST POP JUMP JUMPDEST PUSH1 0x0 DUP2 MLOAD SWAP1 POP PUSH3 0x184 DUP2 PUSH3 0x159 JUMP JUMPDEST SWAP3 SWAP2 POP POP JUMP JUMPDEST PUSH1 0x0 DUP1 REVERT JUMPDEST PUSH1 0x0 DUP1 REVERT JUMPDEST PUSH1 0x0 PUSH1 0x1F NOT PUSH1 0x1F DUP4 ADD AND SWAP1 POP SWAP2 SWAP1 POP JUMP JUMPDEST PUSH32 0x4E487B7100000000000000000000000000000000000000000000000000000000 PUSH1 0x0 MSTORE PUSH1 0x41 PUSH1 0x4 MSTORE PUSH1 0x24 PUSH1 0x0 REVERT JUMPDEST PUSH3 0x1DF DUP3 PUSH3 0x194 JUMP JUMPDEST DUP2 ADD DUP2 DUP2 LT PUSH8 0xFFFFFFFFFFFFFFFF DUP3 GT OR ISZERO PUSH3 0x201 JUMPI PUSH3 0x200 PUSH3 0x1A5 JUMP JUMPDEST JUMPDEST DUP1 PUSH1 0x40 MSTORE POP POP POP JUMP JUMPDEST PUSH1 0x0 PUSH3 0x216 PUSH3 0xC0 JUMP JUMPDEST SWAP1 POP PUSH3 0x224 DUP3 DUP3 PUSH3 0x1D4 JUMP JUMPDEST SWAP2 SWAP1 POP JUMP JUMPDEST PUSH1 0x0 PUSH8 0xFFFFFFFFFFFFFFFF DUP3 GT ISZERO PUSH3 0x247 JUMPI PUSH3 0x246 PUSH3 0x1A5 JUMP JUMPDEST JUMPDEST PUSH3 0x252 DUP3 PUSH3 0x194 JUMP JUMPDEST SWAP1 POP PUSH1 0x20 DUP2 ADD SWAP1 POP SWAP2 SWAP1 POP JUMP JUMPDEST PUSH1 0x0 JUMPDEST DUP4 DUP2 LT ISZERO PUSH3 0x27F JUMPI DUP1 DUP3 ADD MLOAD DUP2 DUP5 ADD MSTORE PUSH1 0x20 DUP2 ADD SWAP1 POP PUSH3 0x262 JUMP JUMPDEST PUSH1 0x0 DUP5 DUP5 ADD MSTORE POP POP POP POP JUMP JUMPDEST PUSH1 0x0 PUSH3 0x2A2 PUSH3 0x29C DUP5 PUSH3 0x229 JUMP JUMPDEST PUSH3 0x20A JUMP JUMPDEST SWAP1 POP DUP3 DUP2 MSTORE PUSH1 0x20 DUP2 ADD DUP5 DUP5 DUP5 ADD GT ISZERO PUSH3 0x2C1 JUMPI PUSH3 0x2C0 PUSH3 0x18F JUMP JUMPDEST JUMPDEST PUSH3 0x2CE DUP5 DUP3 DUP6 PUSH3 0x25F JUMP JUMPDEST POP SWAP4 SWAP3 POP POP POP JUMP JUMPDEST PUSH1 0x0 DUP3 PUSH1 0x1F DUP4 ADD SLT PUSH3 0x2EE JUMPI PUSH3 0x2ED PUSH3 0x18A JUMP JUMPDEST JUMPDEST DUP2 MLOAD PUSH3 0x300 DUP5 DUP3 PUSH1 0x20 DUP7 ADD PUSH3 0x28B JUMP JUMPDEST SWAP2 POP POP SWAP3 SWAP2 POP POP JUMP JUMPDEST PUSH1 0x0 DUP1 PUSH1 0x0 DUP1 PUSH1 0x0 PUSH1 0xA0 DUP7 DUP9 SUB SLT ISZERO PUSH3 0x328 JUMPI PUSH3 0x327 PUSH3 0xCA JUMP JUMPDEST JUMPDEST PUSH1 0x0 PUSH3 0x338 DUP9 DUP3 DUP10 ADD PUSH3 0xFA JUMP JUMPDEST SWAP6 POP POP PUSH1 0x20 PUSH3 0x34B DUP9 DUP3 DUP10 ADD PUSH3 0x173 JUMP JUMPDEST SWAP5 POP POP PUSH1 0x40 DUP7 ADD MLOAD PUSH8 0xFFFFFFFFFFFFFFFF DUP2 GT ISZERO PUSH3 0x36F JUMPI PUSH3 0x36E PUSH3 0xCF JUMP JUMPDEST JUMPDEST PUSH3 0x37D DUP9 DUP3 DUP10 ADD PUSH3 0x2D6 JUMP JUMPDEST SWAP4 POP POP PUSH1 0x60 DUP7 ADD MLOAD PUSH8 0xFFFFFFFFFFFFFFFF DUP2 GT ISZERO PUSH3 0x3A1 JUMPI PUSH3 0x3A0 PUSH3 0xCF JUMP JUMPDEST JUMPDEST PUSH3 0x3AF DUP9 DUP3 DUP10 ADD PUSH3 0x2D6 JUMP JUMPDEST SWAP3 POP POP PUSH1 0x80 PUSH3 0x3C2 DUP9 DUP3 DUP10 ADD PUSH3 0xFA JUMP JUMPDEST SWAP2 POP POP SWAP3 SWAP6 POP SWAP3 SWAP6 SWAP1 SWAP4 POP JUMP JUMPDEST PUSH1 0x0 DUP2 MLOAD SWAP1 POP SWAP2 SWAP1 POP JUMP JUMPDEST PUSH32 0x4E487B7100000000000000000000000000000000000000000000000000000000 PUSH1 0x0 MSTORE PUSH1 0x22 PUSH1 0x4 MSTORE PUSH1 0x24 PUSH1 0x0 REVERT JUMPDEST PUSH1 0x0 PUSH1 0x2 DUP3 DIV SWAP1 POP PUSH1 0x1 DUP3 AND DUP1 PUSH3 0x422 JUMPI PUSH1 0x7F DUP3 AND SWAP2 POP JUMPDEST PUSH1 0x20 DUP3 LT DUP2 SUB PUSH3 0x438 JUMPI PUSH3 0x437 PUSH3 0x3DA JUMP JUMPDEST JUMPDEST POP SWAP2 SWAP1 POP JUMP JUMPDEST PUSH1 0x0 DUP2 SWAP1 POP DUP2 PUSH1 0x0 MSTORE PUSH1 0x20 PUSH1 0x0 KECCAK256 SWAP1 POP SWAP2 SWAP1 POP JUMP JUMPDEST PUSH1 0x0 PUSH1 0x20 PUSH1 0x1F DUP4 ADD DIV SWAP1 POP SWAP2 SWAP1 POP JUMP JUMPDEST PUSH1 0x0 DUP3 DUP3 SHL SWAP1 POP SWAP3 SWAP2 POP POP JUMP JUMPDEST PUSH1 0x0 PUSH1 0x8 DUP4 MUL PUSH3 0x4A2 PUSH32 0xFFFFFFFFFFFFFFFFFFFFFFFFFFFFFFFFFFFFFFFFFFFFFFFFFFFFFFFFFFFFFFFF DUP3 PUSH3 0x463 JUMP JUMPDEST PUSH3 0x4AE DUP7 DUP4 PUSH3 0x463 JUMP JUMPDEST SWAP6 POP DUP1 NOT DUP5 AND SWAP4 POP DUP1 DUP7 AND DUP5 OR SWAP3 POP POP POP SWAP4 SWAP3 POP POP POP JUMP JUMPDEST PUSH1 0x0 DUP2 SWAP1 POP SWAP2 SWAP1 POP JUMP JUMPDEST PUSH1 0x0 DUP2 SWAP1 POP SWAP2 SWAP1 POP JUMP JUMPDEST PUSH1 0x0 PUSH3 0x4FB PUSH3 0x4F5 PUSH3 0x4EF DUP5 PUSH3 0x4C6 JUMP JUMPDEST PUSH3 0x4D0 JUMP JUMPDEST PUSH3 0x4C6 JUMP JUMPDEST SWAP1 POP SWAP2 SWAP1 POP JUMP JUMPDEST PUSH1 0x0 DUP2 SWAP1 POP SWAP2 SWAP1 POP JUMP JUMPDEST PUSH3 0x517 DUP4 PUSH3 0x4DA JUMP JUMPDEST PUSH3 0x52F PUSH3 0x526 DUP3 PUSH3 0x502 JUMP JUMPDEST DUP5 DUP5 SLOAD PUSH3 0x470 JUMP JUMPDEST DUP3 SSTORE POP POP POP POP JUMP JUMPDEST PUSH1 0x0 SWAP1 JUMP JUMPDEST PUSH3 0x546 PUSH3 0x537 JUMP JUMPDEST PUSH3 0x553 DUP2 DUP5 DUP5 PUSH3 0x50C JUMP JUMPDEST POP POP POP JUMP JUMPDEST JUMPDEST DUP2 DUP2 LT ISZERO PUSH3 0x57B JUMPI PUSH3 0x56F PUSH1 0x0 DUP3 PUSH3 0x53C JUMP JUMPDEST PUSH1 0x1 DUP2 ADD SWAP1 POP PUSH3 0x559 JUMP JUMPDEST POP POP JUMP JUMPDEST PUSH1 0x1F DUP3 GT ISZERO PUSH3 0x5CA JUMPI PUSH3 0x594 DUP2 PUSH3 0x43E JUMP JUMPDEST PUSH3 0x59F DUP5 PUSH3 0x453 JUMP JUMPDEST DUP2 ADD PUSH1 0x20 DUP6 LT ISZERO PUSH3 0x5AF JUMPI DUP2 SWAP1 POP JUMPDEST PUSH3 0x5C7 PUSH3 0x5BE DUP6 PUSH3 0x453 JUMP JUMPDEST DUP4 ADD DUP3 PUSH3 0x558 JUMP JUMPDEST POP POP JUMPDEST POP POP POP JUMP JUMPDEST PUSH1 0x0 DUP3 DUP3 SHR SWAP1 POP SWAP3 SWAP2 POP POP JUMP JUMPDEST PUSH1 0x0 PUSH3 0x5EF PUSH1 0x0 NOT DUP5 PUSH1 0x8 MUL PUSH3 0x5CF JUMP JUMPDEST NOT DUP1 DUP4 AND SWAP2 POP POP SWAP3 SWAP2 POP POP JUMP JUMPDEST PUSH1 0x0 PUSH3 0x60A DUP4 DUP4 PUSH3 0x5DC JUMP JUMPDEST SWAP2 POP DUP3 PUSH1 0x2 MUL DUP3 OR SWAP1 POP SWAP3 SWAP2 POP POP JUMP JUMPDEST PUSH3 0x625 DUP3 PUSH3 0x3CF JUMP JUMPDEST PUSH8 0xFFFFFFFFFFFFFFFF DUP2 GT ISZERO PUSH3 0x641 JUMPI PUSH3 0x640 PUSH3 0x1A5 JUMP JUMPDEST JUMPDEST PUSH3 0x64D DUP3 SLOAD PUSH3 0x409 JUMP JUMPDEST PUSH3 0x65A DUP3 DUP3 DUP6 PUSH3 0x57F JUMP JUMPDEST PUSH1 0x0 PUSH1 0x20 SWAP1 POP PUSH1 0x1F DUP4 GT PUSH1 0x1 DUP2 EQ PUSH3 0x692 JUMPI PUSH1 0x0 DUP5 ISZERO PUSH3 0x67D JUMPI DUP3 DUP8 ADD MLOAD SWAP1 POP JUMPDEST PUSH3 0x689 DUP6 DUP3 PUSH3 0x5FC JUMP JUMPDEST DUP7 SSTORE POP PUSH3 0x6F9 JUMP JUMPDEST PUSH1 0x1F NOT DUP5 AND PUSH3 0x6A2 DUP7 PUSH3 0x43E JUMP JUMPDEST PUSH1 0x0 JUMPDEST DUP3 DUP2 LT ISZERO PUSH3 0x6CC JUMPI DUP5 DUP10 ADD MLOAD DUP3 SSTORE PUSH1 0x1 DUP3 ADD SWAP2 POP PUSH1 0x20 DUP6 ADD SWAP5 POP PUSH1 0x20 DUP2 ADD SWAP1 POP PUSH3 0x6A5 JUMP JUMPDEST DUP7 DUP4 LT ISZERO PUSH3 0x6EC JUMPI DUP5 DUP10 ADD MLOAD PUSH3 0x6E8 PUSH1 0x1F DUP10 AND DUP3 PUSH3 0x5DC JUMP JUMPDEST DUP4 SSTORE POP JUMPDEST PUSH1 0x1 PUSH1 0x2 DUP9 MUL ADD DUP9 SSTORE POP POP POP JUMPDEST POP POP POP POP POP POP JUMP JUMPDEST PUSH1 0x80 MLOAD PUSH1 0xA0 MLOAD PUSH2 0x34E7 PUSH3 0x727 PUSH1 0x0 CODECOPY PUSH1 0x0 PUSH2 0x31A ADD MSTORE PUSH1 0x0 PUSH2 0x2F9 ADD MSTORE PUSH2 0x34E7 PUSH1 0x0 RETURN INVALID PUSH1 0x80 PUSH1 0x40 MSTORE CALLVALUE DUP1 ISZERO PUSH3 0x11 JUMPI PUSH1 0x0 DUP1 REVERT JUMPDEST POP PUSH1 0x4 CALLDATASIZE LT PUSH3 0x5E JUMPI PUSH1 0x0 CALLDATALOAD PUSH1 0xE0 SHR DUP1 PUSH4 0x3B3B57DE EQ PUSH3 0x63 JUMPI DUP1 PUSH4 0x4657B3C1 EQ PUSH3 0x99 JUMPI DUP1 PUSH4 0x5B69A7D8 EQ PUSH3 0xB9 JUMPI DUP1 PUSH4 0xABD461FD EQ PUSH3 0xEF JUMPI DUP1 PUSH4 0xAD8C7FCE EQ PUSH3 0x125 JUMPI JUMPDEST PUSH1 0x0 DUP1 REVERT JUMPDEST PUSH3 0x81 PUSH1 0x4 DUP1 CALLDATASIZE SUB DUP2 ADD SWAP1 PUSH3 0x7B SWAP2 SWAP1 PUSH3 0x614 JUMP JUMPDEST PUSH3 0x15B JUMP JUMPDEST PUSH1 0x40 MLOAD PUSH3 0x90 SWAP2 SWAP1 PUSH3 0x68B JUMP JUMPDEST PUSH1 0x40 MLOAD DUP1 SWAP2 SUB SWAP1 RETURN JUMPDEST PUSH3 0xB7 PUSH1 0x4 DUP1 CALLDATASIZE SUB DUP2 ADD SWAP1 PUSH3 0xB1 SWAP2 SWAP1 PUSH3 0x845 JUMP JUMPDEST PUSH3 0x198 JUMP JUMPDEST STOP JUMPDEST PUSH3 0xD7 PUSH1 0x4 DUP1 CALLDATASIZE SUB DUP2 ADD SWAP1 PUSH3 0xD1 SWAP2 SWAP1 PUSH3 0x91F JUMP JUMPDEST PUSH3 0x4FB JUMP JUMPDEST PUSH1 0x40 MLOAD PUSH3 0xE6 SWAP2 SWAP1 PUSH3 0x68B JUMP JUMPDEST PUSH1 0x40 MLOAD DUP1 SWAP2 SUB SWAP1 RETURN JUMPDEST PUSH3 0x10D PUSH1 0x4 DUP1 CALLDATASIZE SUB DUP2 ADD SWAP1 PUSH3 0x107 SWAP2 SWAP1 PUSH3 0x951 JUMP JUMPDEST PUSH3 0x53B JUMP JUMPDEST PUSH1 0x40 MLOAD PUSH3 0x11C SWAP2 SWAP1 PUSH3 0x68B JUMP JUMPDEST PUSH1 0x40 MLOAD DUP1 SWAP2 SUB SWAP1 RETURN JUMPDEST PUSH3 0x143 PUSH1 0x4 DUP1 CALLDATASIZE SUB DUP2 ADD SWAP1 PUSH3 0x13D SWAP2 SWAP1 PUSH3 0x614 JUMP JUMPDEST PUSH3 0x584 JUMP JUMPDEST PUSH1 0x40 MLOAD PUSH3 0x152 SWAP2 SWAP1 PUSH3 0x68B JUMP JUMPDEST PUSH1 0x40 MLOAD DUP1 SWAP2 SUB SWAP1 RETURN JUMPDEST PUSH1 0x0 PUSH1 0x5 PUSH1 0x0 DUP4 DUP2 MSTORE PUSH1 0x20 ADD SWAP1 DUP2 MSTORE PUSH1 0x20 ADD PUSH1 0x0 KECCAK256 PUSH1 0x0 SWAP1 SLOAD SWAP1 PUSH2 0x100 EXP SWAP1 DIV PUSH20 0xFFFFFFFFFFFFFFFFFFFFFFFFFFFFFFFFFFFFFFFF AND SWAP1 POP SWAP2 SWAP1 POP JUMP JUMPDEST PUSH1 0x0 PUSH20 0xFFFFFFFFFFFFFFFFFFFFFFFFFFFFFFFFFFFFFFFF AND PUSH1 0x4 DUP8 PUSH1 0x40 MLOAD PUSH3 0x1C2 SWAP2 SWAP1 PUSH3 0xA1B JUMP JUMPDEST SWAP1 DUP2 MSTORE PUSH1 0x20 ADD PUSH1 0x40 MLOAD DUP1 SWAP2 SUB SWAP1 KECCAK256 PUSH1 0x0 SWAP1 SLOAD SWAP1 PUSH2 0x100 EXP SWAP1 DIV PUSH20 0xFFFFFFFFFFFFFFFFFFFFFFFFFFFFFFFFFFFFFFFF AND PUSH20 0xFFFFFFFFFFFFFFFFFFFFFFFFFFFFFFFFFFFFFFFF AND EQ PUSH3 0x24A JUMPI PUSH1 0x40 MLOAD PUSH32 0x8C379A000000000000000000000000000000000000000000000000000000000 DUP2 MSTORE PUSH1 0x4 ADD PUSH3 0x241 SWAP1 PUSH3 0xA95 JUMP JUMPDEST PUSH1 0x40 MLOAD DUP1 SWAP2 SUB SWAP1 REVERT JUMPDEST PUSH1 0x0 PUSH20 0xFFFFFFFFFFFFFFFFFFFFFFFFFFFFFFFFFFFFFFFF AND PUSH1 0x5 PUSH1 0x0 DUP8 DUP2 MSTORE PUSH1 0x20 ADD SWAP1 DUP2 MSTORE PUSH1 0x20 ADD PUSH1 0x0 KECCAK256 PUSH1 0x0 SWAP1 SLOAD SWAP1 PUSH2 0x100 EXP SWAP1 DIV PUSH20 0xFFFFFFFFFFFFFFFFFFFFFFFFFFFFFFFFFFFFFFFF AND PUSH20 0xFFFFFFFFFFFFFFFFFFFFFFFFFFFFFFFFFFFFFFFF AND EQ PUSH3 0x2EF JUMPI PUSH1 0x40 MLOAD PUSH32 0x8C379A000000000000000000000000000000000000000000000000000000000 DUP2 MSTORE PUSH1 0x4 ADD PUSH3 0x2E6 SWAP1 PUSH3 0xB07 JUMP JUMPDEST PUSH1 0x40 MLOAD DUP1 SWAP2 SUB SWAP1 REVERT JUMPDEST PUSH1 0x0 DUP7 DUP7 DUP7 DUP7 DUP7 DUP7 PUSH32 0x0 PUSH32 0x0 PUSH1 0x0 PUSH1 0x1 PUSH1 0x2 PUSH1 0x0 SWAP1 SLOAD SWAP1 PUSH2 0x100 EXP SWAP1 DIV PUSH1 0xFF AND PUSH1 0x40 MLOAD PUSH3 0x35B SWAP1 PUSH3 0x5B7 JUMP JUMPDEST PUSH3 0x371 SWAP12 SWAP11 SWAP10 SWAP9 SWAP8 SWAP7 SWAP6 SWAP5 SWAP4 SWAP3 SWAP2 SWAP1 PUSH3 0xD1D JUMP JUMPDEST PUSH1 0x40 MLOAD DUP1 SWAP2 SUB SWAP1 PUSH1 0x0 CREATE DUP1 ISZERO DUP1 ISZERO PUSH3 0x38E JUMPI RETURNDATASIZE PUSH1 0x0 DUP1 RETURNDATACOPY RETURNDATASIZE PUSH1 0x0 REVERT JUMPDEST POP SWAP1 POP PUSH1 0x3 DUP2 SWAP1 DUP1 PUSH1 0x1 DUP2 SLOAD ADD DUP1 DUP3 SSTORE DUP1 SWAP2 POP POP PUSH1 0x1 SWAP1 SUB SWAP1 PUSH1 0x0 MSTORE PUSH1 0x20 PUSH1 0x0 KECCAK256 ADD PUSH1 0x0 SWAP1 SWAP2 SWAP1 SWAP2 SWAP1 SWAP2 PUSH2 0x100 EXP DUP2 SLOAD DUP2 PUSH20 0xFFFFFFFFFFFFFFFFFFFFFFFFFFFFFFFFFFFFFFFF MUL NOT AND SWAP1 DUP4 PUSH20 0xFFFFFFFFFFFFFFFFFFFFFFFFFFFFFFFFFFFFFFFF AND MUL OR SWAP1 SSTORE POP DUP1 PUSH1 0x4 DUP9 PUSH1 0x40 MLOAD PUSH3 0x407 SWAP2 SWAP1 PUSH3 0xA1B JUMP JUMPDEST SWAP1 DUP2 MSTORE PUSH1 0x20 ADD PUSH1 0x40 MLOAD DUP1 SWAP2 SUB SWAP1 KECCAK256 PUSH1 0x0 PUSH2 0x100 EXP DUP2 SLOAD DUP2 PUSH20 0xFFFFFFFFFFFFFFFFFFFFFFFFFFFFFFFFFFFFFFFF MUL NOT AND SWAP1 DUP4 PUSH20 0xFFFFFFFFFFFFFFFFFFFFFFFFFFFFFFFFFFFFFFFF AND MUL OR SWAP1 SSTORE POP DUP1 PUSH1 0x5 PUSH1 0x0 DUP9 DUP2 MSTORE PUSH1 0x20 ADD SWAP1 DUP2 MSTORE PUSH1 0x20 ADD PUSH1 0x0 KECCAK256 PUSH1 0x0 PUSH2 0x100 EXP DUP2 SLOAD DUP2 PUSH20 0xFFFFFFFFFFFFFFFFFFFFFFFFFFFFFFFFFFFFFFFF MUL NOT AND SWAP1 DUP4 PUSH20 0xFFFFFFFFFFFFFFFFFFFFFFFFFFFFFFFFFFFFFFFF AND MUL OR SWAP1 SSTORE POP PUSH1 0x1 PUSH1 0x3 DUP1 SLOAD SWAP1 POP PUSH3 0x4B9 SWAP2 SWAP1 PUSH3 0xE29 JUMP JUMPDEST PUSH32 0x804775E1C4CBDCDD4F587B62FA0FD7907140C20D90200655A8D19A2697870F14 DUP3 PUSH1 0x40 MLOAD PUSH3 0x4EA SWAP2 SWAP1 PUSH3 0x68B JUMP JUMPDEST PUSH1 0x40 MLOAD DUP1 SWAP2 SUB SWAP1 LOG2 POP POP POP POP POP POP POP JUMP JUMPDEST PUSH1 0x3 DUP2 DUP2 SLOAD DUP2 LT PUSH3 0x50C JUMPI PUSH1 0x0 DUP1 REVERT JUMPDEST SWAP1 PUSH1 0x0 MSTORE PUSH1 0x20 PUSH1 0x0 KECCAK256 ADD PUSH1 0x0 SWAP2 POP SLOAD SWAP1 PUSH2 0x100 EXP SWAP1 DIV PUSH20 0xFFFFFFFFFFFFFFFFFFFFFFFFFFFFFFFFFFFFFFFF AND DUP2 JUMP JUMPDEST PUSH1 0x4 DUP2 DUP1 MLOAD PUSH1 0x20 DUP2 ADD DUP3 ADD DUP1 MLOAD DUP5 DUP3 MSTORE PUSH1 0x20 DUP4 ADD PUSH1 0x20 DUP6 ADD KECCAK256 DUP2 DUP4 MSTORE DUP1 SWAP6 POP POP POP POP POP POP PUSH1 0x0 SWAP2 POP SLOAD SWAP1 PUSH2 0x100 EXP SWAP1 DIV PUSH20 0xFFFFFFFFFFFFFFFFFFFFFFFFFFFFFFFFFFFFFFFF AND DUP2 JUMP JUMPDEST PUSH1 0x5 PUSH1 0x20 MSTORE DUP1 PUSH1 0x0 MSTORE PUSH1 0x40 PUSH1 0x0 KECCAK256 PUSH1 0x0 SWAP2 POP SLOAD SWAP1 PUSH2 0x100 EXP SWAP1 DIV PUSH20 0xFFFFFFFFFFFFFFFFFFFFFFFFFFFFFFFFFFFFFFFF AND DUP2 JUMP JUMPDEST PUSH2 0x264D DUP1 PUSH3 0xE65 DUP4 CODECOPY ADD SWAP1 JUMP JUMPDEST PUSH1 0x0 PUSH1 0x40 MLOAD SWAP1 POP SWAP1 JUMP JUMPDEST PUSH1 0x0 DUP1 REVERT JUMPDEST PUSH1 0x0 DUP1 REVERT JUMPDEST PUSH1 0x0 DUP2 SWAP1 POP SWAP2 SWAP1 POP JUMP JUMPDEST PUSH3 0x5EE DUP2 PUSH3 0x5D9 JUMP JUMPDEST DUP2 EQ PUSH3 0x5FA JUMPI PUSH1 0x0 DUP1 REVERT JUMPDEST POP JUMP JUMPDEST PUSH1 0x0 DUP2 CALLDATALOAD SWAP1 POP PUSH3 0x60E DUP2 PUSH3 0x5E3 JUMP JUMPDEST SWAP3 SWAP2 POP POP JUMP JUMPDEST PUSH1 0x0 PUSH1 0x20 DUP3 DUP5 SUB SLT ISZERO PUSH3 0x62D JUMPI PUSH3 0x62C PUSH3 0x5CF JUMP JUMPDEST JUMPDEST PUSH1 0x0 PUSH3 0x63D DUP5 DUP3 DUP6 ADD PUSH3 0x5FD JUMP JUMPDEST SWAP2 POP POP SWAP3 SWAP2 POP POP JUMP JUMPDEST PUSH1 0x0 PUSH20 0xFFFFFFFFFFFFFFFFFFFFFFFFFFFFFFFFFFFFFFFF DUP3 AND SWAP1 POP SWAP2 SWAP1 POP JUMP JUMPDEST PUSH1 0x0 PUSH3 0x673 DUP3 PUSH3 0x646 JUMP JUMPDEST SWAP1 POP SWAP2 SWAP1 POP JUMP JUMPDEST PUSH3 0x685 DUP2 PUSH3 0x666 JUMP JUMPDEST DUP3 MSTORE POP POP JUMP JUMPDEST PUSH1 0x0 PUSH1 0x20 DUP3 ADD SWAP1 POP PUSH3 0x6A2 PUSH1 0x0 DUP4 ADD DUP5 PUSH3 0x67A JUMP JUMPDEST SWAP3 SWAP2 POP POP JUMP JUMPDEST PUSH1 0x0 DUP1 REVERT JUMPDEST PUSH1 0x0 DUP1 REVERT JUMPDEST PUSH1 0x0 PUSH1 0x1F NOT PUSH1 0x1F DUP4 ADD AND SWAP1 POP SWAP2 SWAP1 POP JUMP JUMPDEST PUSH32 0x4E487B7100000000000000000000000000000000000000000000000000000000 PUSH1 0x0 MSTORE PUSH1 0x41 PUSH1 0x4 MSTORE PUSH1 0x24 PUSH1 0x0 REVERT JUMPDEST PUSH3 0x6FD DUP3 PUSH3 0x6B2 JUMP JUMPDEST DUP2 ADD DUP2 DUP2 LT PUSH8 0xFFFFFFFFFFFFFFFF DUP3 GT OR ISZERO PUSH3 0x71F JUMPI PUSH3 0x71E PUSH3 0x6C3 JUMP JUMPDEST JUMPDEST DUP1 PUSH1 0x40 MSTORE POP POP POP JUMP JUMPDEST PUSH1 0x0 PUSH3 0x734 PUSH3 0x5C5 JUMP JUMPDEST SWAP1 POP PUSH3 0x742 DUP3 DUP3 PUSH3 0x6F2 JUMP JUMPDEST SWAP2 SWAP1 POP JUMP JUMPDEST PUSH1 0x0 PUSH8 0xFFFFFFFFFFFFFFFF DUP3 GT ISZERO PUSH3 0x765 JUMPI PUSH3 0x764 PUSH3 0x6C3 JUMP JUMPDEST JUMPDEST PUSH3 0x770 DUP3 PUSH3 0x6B2 JUMP JUMPDEST SWAP1 POP PUSH1 0x20 DUP2 ADD SWAP1 POP SWAP2 SWAP1 POP JUMP JUMPDEST DUP3 DUP2 DUP4 CALLDATACOPY PUSH1 0x0 DUP4 DUP4 ADD MSTORE POP POP POP JUMP JUMPDEST PUSH1 0x0 PUSH3 0x7A3 PUSH3 0x79D DUP5 PUSH3 0x747 JUMP JUMPDEST PUSH3 0x728 JUMP JUMPDEST SWAP1 POP DUP3 DUP2 MSTORE PUSH1 0x20 DUP2 ADD DUP5 DUP5 DUP5 ADD GT ISZERO PUSH3 0x7C2 JUMPI PUSH3 0x7C1 PUSH3 0x6AD JUMP JUMPDEST JUMPDEST PUSH3 0x7CF DUP5 DUP3 DUP6 PUSH3 0x77D JUMP JUMPDEST POP SWAP4 SWAP3 POP POP POP JUMP JUMPDEST PUSH1 0x0 DUP3 PUSH1 0x1F DUP4 ADD SLT PUSH3 0x7EF JUMPI PUSH3 0x7EE PUSH3 0x6A8 JUMP JUMPDEST JUMPDEST DUP2 CALLDATALOAD PUSH3 0x801 DUP5 DUP3 PUSH1 0x20 DUP7 ADD PUSH3 0x78C JUMP JUMPDEST SWAP2 POP POP SWAP3 SWAP2 POP POP JUMP JUMPDEST PUSH1 0x0 DUP2 SWAP1 POP SWAP2 SWAP1 POP JUMP JUMPDEST PUSH3 0x81F DUP2 PUSH3 0x80A JUMP JUMPDEST DUP2 EQ PUSH3 0x82B JUMPI PUSH1 0x0 DUP1 REVERT JUMPDEST POP JUMP JUMPDEST PUSH1 0x0 DUP2 CALLDATALOAD SWAP1 POP PUSH3 0x83F DUP2 PUSH3 0x814 JUMP JUMPDEST SWAP3 SWAP2 POP POP JUMP JUMPDEST PUSH1 0x0 DUP1 PUSH1 0x0 DUP1 PUSH1 0x0 DUP1 PUSH1 0xC0 DUP8 DUP10 SUB SLT ISZERO PUSH3 0x865 JUMPI PUSH3 0x864 PUSH3 0x5CF JUMP JUMPDEST JUMPDEST PUSH1 0x0 DUP8 ADD CALLDATALOAD PUSH8 0xFFFFFFFFFFFFFFFF DUP2 GT ISZERO PUSH3 0x886 JUMPI PUSH3 0x885 PUSH3 0x5D4 JUMP JUMPDEST JUMPDEST PUSH3 0x894 DUP10 DUP3 DUP11 ADD PUSH3 0x7D7 JUMP JUMPDEST SWAP7 POP POP PUSH1 0x20 PUSH3 0x8A7 DUP10 DUP3 DUP11 ADD PUSH3 0x5FD JUMP JUMPDEST SWAP6 POP POP PUSH1 0x40 DUP8 ADD CALLDATALOAD PUSH8 0xFFFFFFFFFFFFFFFF DUP2 GT ISZERO PUSH3 0x8CB JUMPI PUSH3 0x8CA PUSH3 0x5D4 JUMP JUMPDEST JUMPDEST PUSH3 0x8D9 DUP10 DUP3 DUP11 ADD PUSH3 0x7D7 JUMP JUMPDEST SWAP5 POP POP PUSH1 0x60 PUSH3 0x8EC DUP10 DUP3 DUP11 ADD PUSH3 0x82E JUMP JUMPDEST SWAP4 POP POP PUSH1 0x80 PUSH3 0x8FF DUP10 DUP3 DUP11 ADD PUSH3 0x82E JUMP JUMPDEST SWAP3 POP POP PUSH1 0xA0 PUSH3 0x912 DUP10 DUP3 DUP11 ADD PUSH3 0x82E JUMP JUMPDEST SWAP2 POP POP SWAP3 SWAP6 POP SWAP3 SWAP6 POP SWAP3 SWAP6 JUMP JUMPDEST PUSH1 0x0 PUSH1 0x20 DUP3 DUP5 SUB SLT ISZERO PUSH3 0x938 JUMPI PUSH3 0x937 PUSH3 0x5CF JUMP JUMPDEST JUMPDEST PUSH1 0x0 PUSH3 0x948 DUP5 DUP3 DUP6 ADD PUSH3 0x82E JUMP JUMPDEST SWAP2 POP POP SWAP3 SWAP2 POP POP JUMP JUMPDEST PUSH1 0x0 PUSH1 0x20 DUP3 DUP5 SUB SLT ISZERO PUSH3 0x96A JUMPI PUSH3 0x969 PUSH3 0x5CF JUMP JUMPDEST JUMPDEST PUSH1 0x0 DUP3 ADD CALLDATALOAD PUSH8 0xFFFFFFFFFFFFFFFF DUP2 GT ISZERO PUSH3 0x98B JUMPI PUSH3 0x98A PUSH3 0x5D4 JUMP JUMPDEST JUMPDEST PUSH3 0x999 DUP5 DUP3 DUP6 ADD PUSH3 0x7D7 JUMP JUMPDEST SWAP2 POP POP SWAP3 SWAP2 POP POP JUMP JUMPDEST PUSH1 0x0 DUP2 MLOAD SWAP1 POP SWAP2 SWAP1 POP JUMP JUMPDEST PUSH1 0x0 DUP2 SWAP1 POP SWAP3 SWAP2 POP POP JUMP JUMPDEST PUSH1 0x0 JUMPDEST DUP4 DUP2 LT ISZERO PUSH3 0x9D8 JUMPI DUP1 DUP3 ADD MLOAD DUP2 DUP5 ADD MSTORE PUSH1 0x20 DUP2 ADD SWAP1 POP PUSH3 0x9BB JUMP JUMPDEST PUSH1 0x0 DUP5 DUP5 ADD MSTORE POP POP POP POP JUMP JUMPDEST PUSH1 0x0 PUSH3 0x9F1 DUP3 PUSH3 0x9A2 JUMP JUMPDEST PUSH3 0x9FD DUP2 DUP6 PUSH3 0x9AD JUMP JUMPDEST SWAP4 POP PUSH3 0xA0F DUP2 DUP6 PUSH1 0x20 DUP7 ADD PUSH3 0x9B8 JUMP JUMPDEST DUP1 DUP5 ADD SWAP2 POP POP SWAP3 SWAP2 POP POP JUMP JUMPDEST PUSH1 0x0 PUSH3 0xA29 DUP3 DUP5 PUSH3 0x9E4 JUMP JUMPDEST SWAP2 POP DUP2 SWAP1 POP SWAP3 SWAP2 POP POP JUMP JUMPDEST PUSH1 0x0 DUP3 DUP3 MSTORE PUSH1 0x20 DUP3 ADD SWAP1 POP SWAP3 SWAP2 POP POP JUMP JUMPDEST PUSH32 0x4E616D6520616C72656164792065786973747300000000000000000000000000 PUSH1 0x0 DUP3 ADD MSTORE POP JUMP JUMPDEST PUSH1 0x0 PUSH3 0xA7D PUSH1 0x13 DUP4 PUSH3 0xA34 JUMP JUMPDEST SWAP2 POP PUSH3 0xA8A DUP3 PUSH3 0xA45 JUMP JUMPDEST PUSH1 0x20 DUP3 ADD SWAP1 POP SWAP2 SWAP1 POP JUMP JUMPDEST PUSH1 0x0 PUSH1 0x20 DUP3 ADD SWAP1 POP DUP2 DUP2 SUB PUSH1 0x0 DUP4 ADD MSTORE PUSH3 0xAB0 DUP2 PUSH3 0xA6E JUMP JUMPDEST SWAP1 POP SWAP2 SWAP1 POP JUMP JUMPDEST PUSH32 0x4E6F646520616C72656164792065786973747300000000000000000000000000 PUSH1 0x0 DUP3 ADD MSTORE POP JUMP JUMPDEST PUSH1 0x0 PUSH3 0xAEF PUSH1 0x13 DUP4 PUSH3 0xA34 JUMP JUMPDEST SWAP2 POP PUSH3 0xAFC DUP3 PUSH3 0xAB7 JUMP JUMPDEST PUSH1 0x20 DUP3 ADD SWAP1 POP SWAP2 SWAP1 POP JUMP JUMPDEST PUSH1 0x0 PUSH1 0x20 DUP3 ADD SWAP1 POP DUP2 DUP2 SUB PUSH1 0x0 DUP4 ADD MSTORE PUSH3 0xB22 DUP2 PUSH3 0xAE0 JUMP JUMPDEST SWAP1 POP SWAP2 SWAP1 POP JUMP JUMPDEST PUSH1 0x0 PUSH3 0xB36 DUP3 PUSH3 0x9A2 JUMP JUMPDEST PUSH3 0xB42 DUP2 DUP6 PUSH3 0xA34 JUMP JUMPDEST SWAP4 POP PUSH3 0xB54 DUP2 DUP6 PUSH1 0x20 DUP7 ADD PUSH3 0x9B8 JUMP JUMPDEST PUSH3 0xB5F DUP2 PUSH3 0x6B2 JUMP JUMPDEST DUP5 ADD SWAP2 POP POP SWAP3 SWAP2 POP POP JUMP JUMPDEST PUSH3 0xB75 DUP2 PUSH3 0x5D9 JUMP JUMPDEST DUP3 MSTORE POP POP JUMP JUMPDEST PUSH3 0xB86 DUP2 PUSH3 0x80A JUMP JUMPDEST DUP3 MSTORE POP POP JUMP JUMPDEST PUSH1 0x0 DUP2 ISZERO ISZERO SWAP1 POP SWAP2 SWAP1 POP JUMP JUMPDEST PUSH3 0xBA3 DUP2 PUSH3 0xB8C JUMP JUMPDEST DUP3 MSTORE POP POP JUMP JUMPDEST PUSH1 0x0 DUP2 SWAP1 POP SWAP2 SWAP1 POP JUMP JUMPDEST PUSH1 0x0 PUSH3 0xBD4 PUSH3 0xBCE PUSH3 0xBC8 DUP5 PUSH3 0x646 JUMP JUMPDEST PUSH3 0xBA9 JUMP JUMPDEST PUSH3 0x646 JUMP JUMPDEST SWAP1 POP SWAP2 SWAP1 POP JUMP JUMPDEST PUSH1 0x0 PUSH3 0xBE8 DUP3 PUSH3 0xBB3 JUMP JUMPDEST SWAP1 POP SWAP2 SWAP1 POP JUMP JUMPDEST PUSH1 0x0 PUSH3 0xBFC DUP3 PUSH3 0xBDB JUMP JUMPDEST SWAP1 POP SWAP2 SWAP1 POP JUMP JUMPDEST PUSH3 0xC0E DUP2 PUSH3 0xBEF JUMP JUMPDEST DUP3 MSTORE POP POP JUMP JUMPDEST PUSH32 0x4E487B7100000000000000000000000000000000000000000000000000000000 PUSH1 0x0 MSTORE PUSH1 0x22 PUSH1 0x4 MSTORE PUSH1 0x24 PUSH1 0x0 REVERT JUMPDEST PUSH1 0x0 PUSH1 0x2 DUP3 DIV SWAP1 POP PUSH1 0x1 DUP3 AND DUP1 PUSH3 0xC5C JUMPI PUSH1 0x7F DUP3 AND SWAP2 POP JUMPDEST PUSH1 0x20 DUP3 LT DUP2 SUB PUSH3 0xC72 JUMPI PUSH3 0xC71 PUSH3 0xC14 JUMP JUMPDEST JUMPDEST POP SWAP2 SWAP1 POP JUMP JUMPDEST PUSH1 0x0 DUP2 SWAP1 POP DUP2 PUSH1 0x0 MSTORE PUSH1 0x20 PUSH1 0x0 KECCAK256 SWAP1 POP SWAP2 SWAP1 POP JUMP JUMPDEST PUSH1 0x0 DUP2 SLOAD PUSH3 0xC9C DUP2 PUSH3 0xC43 JUMP JUMPDEST PUSH3 0xCA8 DUP2 DUP7 PUSH3 0xA34 JUMP JUMPDEST SWAP5 POP PUSH1 0x1 DUP3 AND PUSH1 0x0 DUP2 EQ PUSH3 0xCC6 JUMPI PUSH1 0x1 DUP2 EQ PUSH3 0xCDD JUMPI PUSH3 0xD14 JUMP JUMPDEST PUSH1 0xFF NOT DUP4 AND DUP7 MSTORE DUP2 ISZERO ISZERO PUSH1 0x20 MUL DUP7 ADD SWAP4 POP PUSH3 0xD14 JUMP JUMPDEST PUSH3 0xCE8 DUP6 PUSH3 0xC78 JUMP JUMPDEST PUSH1 0x0 JUMPDEST DUP4 DUP2 LT ISZERO PUSH3 0xD0C JUMPI DUP2 SLOAD DUP2 DUP10 ADD MSTORE PUSH1 0x1 DUP3 ADD SWAP2 POP PUSH1 0x20 DUP2 ADD SWAP1 POP PUSH3 0xCEB JUMP JUMPDEST DUP1 DUP9 ADD SWAP6 POP POP POP JUMPDEST POP POP POP SWAP3 SWAP2 POP POP JUMP JUMPDEST PUSH1 0x0 PUSH2 0x160 DUP3 ADD SWAP1 POP DUP2 DUP2 SUB PUSH1 0x0 DUP4 ADD MSTORE PUSH3 0xD3A DUP2 DUP15 PUSH3 0xB29 JUMP JUMPDEST SWAP1 POP PUSH3 0xD4B PUSH1 0x20 DUP4 ADD DUP14 PUSH3 0xB6A JUMP JUMPDEST DUP2 DUP2 SUB PUSH1 0x40 DUP4 ADD MSTORE PUSH3 0xD5F DUP2 DUP13 PUSH3 0xB29 JUMP JUMPDEST SWAP1 POP PUSH3 0xD70 PUSH1 0x60 DUP4 ADD DUP12 PUSH3 0xB7B JUMP JUMPDEST PUSH3 0xD7F PUSH1 0x80 DUP4 ADD DUP11 PUSH3 0xB7B JUMP JUMPDEST PUSH3 0xD8E PUSH1 0xA0 DUP4 ADD DUP10 PUSH3 0xB7B JUMP JUMPDEST PUSH3 0xD9D PUSH1 0xC0 DUP4 ADD DUP9 PUSH3 0xB98 JUMP JUMPDEST PUSH3 0xDAC PUSH1 0xE0 DUP4 ADD DUP8 PUSH3 0xC03 JUMP JUMPDEST DUP2 DUP2 SUB PUSH2 0x100 DUP4 ADD MSTORE PUSH3 0xDC1 DUP2 DUP7 PUSH3 0xC8D JUMP JUMPDEST SWAP1 POP DUP2 DUP2 SUB PUSH2 0x120 DUP4 ADD MSTORE PUSH3 0xDD8 DUP2 DUP6 PUSH3 0xC8D JUMP JUMPDEST SWAP1 POP PUSH3 0xDEA PUSH2 0x140 DUP4 ADD DUP5 PUSH3 0xB98 JUMP JUMPDEST SWAP13 SWAP12 POP POP POP POP POP POP POP POP POP POP POP POP JUMP JUMPDEST PUSH32 0x4E487B7100000000000000000000000000000000000000000000000000000000 PUSH1 0x0 MSTORE PUSH1 0x11 PUSH1 0x4 MSTORE PUSH1 0x24 PUSH1 0x0 REVERT JUMPDEST PUSH1 0x0 PUSH3 0xE36 DUP3 PUSH3 0x80A JUMP JUMPDEST SWAP2 POP PUSH3 0xE43 DUP4 PUSH3 0x80A JUMP JUMPDEST SWAP3 POP DUP3 DUP3 SUB SWAP1 POP DUP2 DUP2 GT ISZERO PUSH3 0xE5E JUMPI PUSH3 0xE5D PUSH3 0xDFA JUMP JUMPDEST JUMPDEST SWAP3 SWAP2 POP POP JUMP INVALID PUSH2 0x120 PUSH1 0x40 MSTORE PUSH1 0x1 PUSH1 0xE0 SWAP1 DUP2 MSTORE POP CALLVALUE DUP1 ISZERO PUSH3 0x1A JUMPI PUSH1 0x0 DUP1 REVERT JUMPDEST POP PUSH1 0x40 MLOAD PUSH3 0x264D CODESIZE SUB DUP1 PUSH3 0x264D DUP4 CODECOPY DUP2 DUP2 ADD PUSH1 0x40 MSTORE DUP2 ADD SWAP1 PUSH3 0x40 SWAP2 SWAP1 PUSH3 0x442 JUMP JUMPDEST DUP11 PUSH1 0x0 SWAP1 DUP2 PUSH3 0x51 SWAP2 SWAP1 PUSH3 0x80C JUMP JUMPDEST POP DUP10 PUSH1 0x1 DUP2 SWAP1 SSTORE POP DUP9 PUSH1 0x2 SWAP1 DUP2 PUSH3 0x6A SWAP2 SWAP1 PUSH3 0x80C JUMP JUMPDEST POP DUP8 PUSH1 0x3 DUP2 SWAP1 SSTORE POP DUP7 PUSH1 0x4 DUP2 SWAP1 SSTORE POP DUP6 PUSH1 0x5 DUP2 SWAP1 SSTORE POP DUP5 ISZERO ISZERO PUSH1 0x80 DUP2 ISZERO ISZERO DUP2 MSTORE POP POP DUP4 PUSH20 0xFFFFFFFFFFFFFFFFFFFFFFFFFFFFFFFFFFFFFFFF AND PUSH1 0xA0 DUP2 PUSH20 0xFFFFFFFFFFFFFFFFFFFFFFFFFFFFFFFFFFFFFFFF AND DUP2 MSTORE POP POP PUSH3 0x125 PUSH3 0xF6 DUP5 PUSH1 0x40 MLOAD PUSH1 0x20 ADD PUSH3 0xDB SWAP2 SWAP1 PUSH3 0x935 JUMP JUMPDEST PUSH1 0x40 MLOAD PUSH1 0x20 DUP2 DUP4 SUB SUB DUP2 MSTORE SWAP1 PUSH1 0x40 MSTORE PUSH3 0x14A PUSH1 0x20 SHL PUSH1 0x20 SHR JUMP JUMPDEST DUP4 PUSH1 0x40 MLOAD PUSH1 0x20 ADD PUSH3 0x10A SWAP3 SWAP2 SWAP1 PUSH3 0x973 JUMP JUMPDEST PUSH1 0x40 MLOAD PUSH1 0x20 DUP2 DUP4 SUB SUB DUP2 MSTORE SWAP1 PUSH1 0x40 MSTORE PUSH3 0x14A PUSH1 0x20 SHL PUSH1 0x20 SHR JUMP JUMPDEST PUSH1 0xC0 DUP2 DUP2 MSTORE POP POP DUP1 ISZERO ISZERO PUSH2 0x100 DUP2 ISZERO ISZERO DUP2 MSTORE POP POP POP POP POP POP POP POP POP POP POP POP POP PUSH3 0xA05 JUMP JUMPDEST PUSH1 0x0 PUSH1 0x8 DUP3 PUSH1 0x40 MLOAD PUSH1 0x20 ADD PUSH3 0x161 SWAP2 SWAP1 PUSH3 0x9EC JUMP JUMPDEST PUSH1 0x40 MLOAD PUSH1 0x20 DUP2 DUP4 SUB SUB DUP2 MSTORE SWAP1 PUSH1 0x40 MSTORE DUP1 MLOAD SWAP1 PUSH1 0x20 ADD KECCAK256 PUSH1 0x0 SHR SWAP1 SHR SWAP1 POP SWAP2 SWAP1 POP JUMP JUMPDEST PUSH1 0x0 PUSH1 0x40 MLOAD SWAP1 POP SWAP1 JUMP JUMPDEST PUSH1 0x0 DUP1 REVERT JUMPDEST PUSH1 0x0 DUP1 REVERT JUMPDEST PUSH1 0x0 DUP1 REVERT JUMPDEST PUSH1 0x0 DUP1 REVERT JUMPDEST PUSH1 0x0 PUSH1 0x1F NOT PUSH1 0x1F DUP4 ADD AND SWAP1 POP SWAP2 SWAP1 POP JUMP JUMPDEST PUSH32 0x4E487B7100000000000000000000000000000000000000000000000000000000 PUSH1 0x0 MSTORE PUSH1 0x41 PUSH1 0x4 MSTORE PUSH1 0x24 PUSH1 0x0 REVERT JUMPDEST PUSH3 0x1EC DUP3 PUSH3 0x1A1 JUMP JUMPDEST DUP2 ADD DUP2 DUP2 LT PUSH8 0xFFFFFFFFFFFFFFFF DUP3 GT OR ISZERO PUSH3 0x20E JUMPI PUSH3 0x20D PUSH3 0x1B2 JUMP JUMPDEST JUMPDEST DUP1 PUSH1 0x40 MSTORE POP POP POP JUMP JUMPDEST PUSH1 0x0 PUSH3 0x223 PUSH3 0x183 JUMP JUMPDEST SWAP1 POP PUSH3 0x231 DUP3 DUP3 PUSH3 0x1E1 JUMP JUMPDEST SWAP2 SWAP1 POP JUMP JUMPDEST PUSH1 0x0 PUSH8 0xFFFFFFFFFFFFFFFF DUP3 GT ISZERO PUSH3 0x254 JUMPI PUSH3 0x253 PUSH3 0x1B2 JUMP JUMPDEST JUMPDEST PUSH3 0x25F DUP3 PUSH3 0x1A1 JUMP JUMPDEST SWAP1 POP PUSH1 0x20 DUP2 ADD SWAP1 POP SWAP2 SWAP1 POP JUMP JUMPDEST PUSH1 0x0 JUMPDEST DUP4 DUP2 LT ISZERO PUSH3 0x28C JUMPI DUP1 DUP3 ADD MLOAD DUP2 DUP5 ADD MSTORE PUSH1 0x20 DUP2 ADD SWAP1 POP PUSH3 0x26F JUMP JUMPDEST PUSH1 0x0 DUP5 DUP5 ADD MSTORE POP POP POP POP JUMP JUMPDEST PUSH1 0x0 PUSH3 0x2AF PUSH3 0x2A9 DUP5 PUSH3 0x236 JUMP JUMPDEST PUSH3 0x217 JUMP JUMPDEST SWAP1 POP DUP3 DUP2 MSTORE PUSH1 0x20 DUP2 ADD DUP5 DUP5 DUP5 ADD GT ISZERO PUSH3 0x2CE JUMPI PUSH3 0x2CD PUSH3 0x19C JUMP JUMPDEST JUMPDEST PUSH3 0x2DB DUP5 DUP3 DUP6 PUSH3 0x26C JUMP JUMPDEST POP SWAP4 SWAP3 POP POP POP JUMP JUMPDEST PUSH1 0x0 DUP3 PUSH1 0x1F DUP4 ADD SLT PUSH3 0x2FB JUMPI PUSH3 0x2FA PUSH3 0x197 JUMP JUMPDEST JUMPDEST DUP2 MLOAD PUSH3 0x30D DUP5 DUP3 PUSH1 0x20 DUP7 ADD PUSH3 0x298 JUMP JUMPDEST SWAP2 POP POP SWAP3 SWAP2 POP POP JUMP JUMPDEST PUSH1 0x0 DUP2 SWAP1 POP SWAP2 SWAP1 POP JUMP JUMPDEST PUSH3 0x32B DUP2 PUSH3 0x316 JUMP JUMPDEST DUP2 EQ PUSH3 0x337 JUMPI PUSH1 0x0 DUP1 REVERT JUMPDEST POP JUMP JUMPDEST PUSH1 0x0 DUP2 MLOAD SWAP1 POP PUSH3 0x34B DUP2 PUSH3 0x320 JUMP JUMPDEST SWAP3 SWAP2 POP POP JUMP JUMPDEST PUSH1 0x0 DUP2 SWAP1 POP SWAP2 SWAP1 POP JUMP JUMPDEST PUSH3 0x366 DUP2 PUSH3 0x351 JUMP JUMPDEST DUP2 EQ PUSH3 0x372 JUMPI PUSH1 0x0 DUP1 REVERT JUMPDEST POP JUMP JUMPDEST PUSH1 0x0 DUP2 MLOAD SWAP1 POP PUSH3 0x386 DUP2 PUSH3 0x35B JUMP JUMPDEST SWAP3 SWAP2 POP POP JUMP JUMPDEST PUSH1 0x0 DUP2 ISZERO ISZERO SWAP1 POP SWAP2 SWAP1 POP JUMP JUMPDEST PUSH3 0x3A3 DUP2 PUSH3 0x38C JUMP JUMPDEST DUP2 EQ PUSH3 0x3AF JUMPI PUSH1 0x0 DUP1 REVERT JUMPDEST POP JUMP JUMPDEST PUSH1 0x0 DUP2 MLOAD SWAP1 POP PUSH3 0x3C3 DUP2 PUSH3 0x398 JUMP JUMPDEST SWAP3 SWAP2 POP POP JUMP JUMPDEST PUSH1 0x0 PUSH20 0xFFFFFFFFFFFFFFFFFFFFFFFFFFFFFFFFFFFFFFFF DUP3 AND SWAP1 POP SWAP2 SWAP1 POP JUMP JUMPDEST PUSH1 0x0 PUSH3 0x3F6 DUP3 PUSH3 0x3C9 JUMP JUMPDEST SWAP1 POP SWAP2 SWAP1 POP JUMP JUMPDEST PUSH1 0x0 PUSH3 0x40A DUP3 PUSH3 0x3E9 JUMP JUMPDEST SWAP1 POP SWAP2 SWAP1 POP JUMP JUMPDEST PUSH3 0x41C DUP2 PUSH3 0x3FD JUMP JUMPDEST DUP2 EQ PUSH3 0x428 JUMPI PUSH1 0x0 DUP1 REVERT JUMPDEST POP JUMP JUMPDEST PUSH1 0x0 DUP2 MLOAD SWAP1 POP PUSH3 0x43C DUP2 PUSH3 0x411 JUMP JUMPDEST SWAP3 SWAP2 POP POP JUMP JUMPDEST PUSH1 0x0 DUP1 PUSH1 0x0 DUP1 PUSH1 0x0 DUP1 PUSH1 0x0 DUP1 PUSH1 0x0 DUP1 PUSH1 0x0 PUSH2 0x160 DUP13 DUP15 SUB SLT ISZERO PUSH3 0x46B JUMPI PUSH3 0x46A PUSH3 0x18D JUMP JUMPDEST JUMPDEST PUSH1 0x0 DUP13 ADD MLOAD PUSH8 0xFFFFFFFFFFFFFFFF DUP2 GT ISZERO PUSH3 0x48C JUMPI PUSH3 0x48B PUSH3 0x192 JUMP JUMPDEST JUMPDEST PUSH3 0x49A DUP15 DUP3 DUP16 ADD PUSH3 0x2E3 JUMP JUMPDEST SWAP12 POP POP PUSH1 0x20 PUSH3 0x4AD DUP15 DUP3 DUP16 ADD PUSH3 0x33A JUMP JUMPDEST SWAP11 POP POP PUSH1 0x40 DUP13 ADD MLOAD PUSH8 0xFFFFFFFFFFFFFFFF DUP2 GT ISZERO PUSH3 0x4D1 JUMPI PUSH3 0x4D0 PUSH3 0x192 JUMP JUMPDEST JUMPDEST PUSH3 0x4DF DUP15 DUP3 DUP16 ADD PUSH3 0x2E3 JUMP JUMPDEST SWAP10 POP POP PUSH1 0x60 PUSH3 0x4F2 DUP15 DUP3 DUP16 ADD PUSH3 0x375 JUMP JUMPDEST SWAP9 POP POP PUSH1 0x80 PUSH3 0x505 DUP15 DUP3 DUP16 ADD PUSH3 0x375 JUMP JUMPDEST SWAP8 POP POP PUSH1 0xA0 PUSH3 0x518 DUP15 DUP3 DUP16 ADD PUSH3 0x375 JUMP JUMPDEST SWAP7 POP POP PUSH1 0xC0 PUSH3 0x52B DUP15 DUP3 DUP16 ADD PUSH3 0x3B2 JUMP JUMPDEST SWAP6 POP POP PUSH1 0xE0 PUSH3 0x53E DUP15 DUP3 DUP16 ADD PUSH3 0x42B JUMP JUMPDEST SWAP5 POP POP PUSH2 0x100 DUP13 ADD MLOAD PUSH8 0xFFFFFFFFFFFFFFFF DUP2 GT ISZERO PUSH3 0x563 JUMPI PUSH3 0x562 PUSH3 0x192 JUMP JUMPDEST JUMPDEST PUSH3 0x571 DUP15 DUP3 DUP16 ADD PUSH3 0x2E3 JUMP JUMPDEST SWAP4 POP POP PUSH2 0x120 DUP13 ADD MLOAD PUSH8 0xFFFFFFFFFFFFFFFF DUP2 GT ISZERO PUSH3 0x596 JUMPI PUSH3 0x595 PUSH3 0x192 JUMP JUMPDEST JUMPDEST PUSH3 0x5A4 DUP15 DUP3 DUP16 ADD PUSH3 0x2E3 JUMP JUMPDEST SWAP3 POP POP PUSH2 0x140 PUSH3 0x5B8 DUP15 DUP3 DUP16 ADD PUSH3 0x3B2 JUMP JUMPDEST SWAP2 POP POP SWAP3 SWAP6 SWAP9 SWAP12 POP SWAP3 SWAP6 SWAP9 SWAP12 SWAP1 SWAP4 SWAP7 SWAP10 POP JUMP JUMPDEST PUSH1 0x0 DUP2 MLOAD SWAP1 POP SWAP2 SWAP1 POP JUMP JUMPDEST PUSH32 0x4E487B7100000000000000000000000000000000000000000000000000000000 PUSH1 0x0 MSTORE PUSH1 0x22 PUSH1 0x4 MSTORE PUSH1 0x24 PUSH1 0x0 REVERT JUMPDEST PUSH1 0x0 PUSH1 0x2 DUP3 DIV SWAP1 POP PUSH1 0x1 DUP3 AND DUP1 PUSH3 0x61E JUMPI PUSH1 0x7F DUP3 AND SWAP2 POP JUMPDEST PUSH1 0x20 DUP3 LT DUP2 SUB PUSH3 0x634 JUMPI PUSH3 0x633 PUSH3 0x5D6 JUMP JUMPDEST JUMPDEST POP SWAP2 SWAP1 POP JUMP JUMPDEST PUSH1 0x0 DUP2 SWAP1 POP DUP2 PUSH1 0x0 MSTORE PUSH1 0x20 PUSH1 0x0 KECCAK256 SWAP1 POP SWAP2 SWAP1 POP JUMP JUMPDEST PUSH1 0x0 PUSH1 0x20 PUSH1 0x1F DUP4 ADD DIV SWAP1 POP SWAP2 SWAP1 POP JUMP JUMPDEST PUSH1 0x0 DUP3 DUP3 SHL SWAP1 POP SWAP3 SWAP2 POP POP JUMP JUMPDEST PUSH1 0x0 PUSH1 0x8 DUP4 MUL PUSH3 0x69E PUSH32 0xFFFFFFFFFFFFFFFFFFFFFFFFFFFFFFFFFFFFFFFFFFFFFFFFFFFFFFFFFFFFFFFF DUP3 PUSH3 0x65F JUMP JUMPDEST PUSH3 0x6AA DUP7 DUP4 PUSH3 0x65F JUMP JUMPDEST SWAP6 POP DUP1 NOT DUP5 AND SWAP4 POP DUP1 DUP7 AND DUP5 OR SWAP3 POP POP POP SWAP4 SWAP3 POP POP POP JUMP JUMPDEST PUSH1 0x0 DUP2 SWAP1 POP SWAP2 SWAP1 POP JUMP JUMPDEST PUSH1 0x0 PUSH3 0x6ED PUSH3 0x6E7 PUSH3 0x6E1 DUP5 PUSH3 0x351 JUMP JUMPDEST PUSH3 0x6C2 JUMP JUMPDEST PUSH3 0x351 JUMP JUMPDEST SWAP1 POP SWAP2 SWAP1 POP JUMP JUMPDEST PUSH1 0x0 DUP2 SWAP1 POP SWAP2 SWAP1 POP JUMP JUMPDEST PUSH3 0x709 DUP4 PUSH3 0x6CC JUMP JUMPDEST PUSH3 0x721 PUSH3 0x718 DUP3 PUSH3 0x6F4 JUMP JUMPDEST DUP5 DUP5 SLOAD PUSH3 0x66C JUMP JUMPDEST DUP3 SSTORE POP POP POP POP JUMP JUMPDEST PUSH1 0x0 SWAP1 JUMP JUMPDEST PUSH3 0x738 PUSH3 0x729 JUMP JUMPDEST PUSH3 0x745 DUP2 DUP5 DUP5 PUSH3 0x6FE JUMP JUMPDEST POP POP POP JUMP JUMPDEST JUMPDEST DUP2 DUP2 LT ISZERO PUSH3 0x76D JUMPI PUSH3 0x761 PUSH1 0x0 DUP3 PUSH3 0x72E JUMP JUMPDEST PUSH1 0x1 DUP2 ADD SWAP1 POP PUSH3 0x74B JUMP JUMPDEST POP POP JUMP JUMPDEST PUSH1 0x1F DUP3 GT ISZERO PUSH3 0x7BC JUMPI PUSH3 0x786 DUP2 PUSH3 0x63A JUMP JUMPDEST PUSH3 0x791 DUP5 PUSH3 0x64F JUMP JUMPDEST DUP2 ADD PUSH1 0x20 DUP6 LT ISZERO PUSH3 0x7A1 JUMPI DUP2 SWAP1 POP JUMPDEST PUSH3 0x7B9 PUSH3 0x7B0 DUP6 PUSH3 0x64F JUMP JUMPDEST DUP4 ADD DUP3 PUSH3 0x74A JUMP JUMPDEST POP POP JUMPDEST POP POP POP JUMP JUMPDEST PUSH1 0x0 DUP3 DUP3 SHR SWAP1 POP SWAP3 SWAP2 POP POP JUMP JUMPDEST PUSH1 0x0 PUSH3 0x7E1 PUSH1 0x0 NOT DUP5 PUSH1 0x8 MUL PUSH3 0x7C1 JUMP JUMPDEST NOT DUP1 DUP4 AND SWAP2 POP POP SWAP3 SWAP2 POP POP JUMP JUMPDEST PUSH1 0x0 PUSH3 0x7FC DUP4 DUP4 PUSH3 0x7CE JUMP JUMPDEST SWAP2 POP DUP3 PUSH1 0x2 MUL DUP3 OR SWAP1 POP SWAP3 SWAP2 POP POP JUMP JUMPDEST PUSH3 0x817 DUP3 PUSH3 0x5CB JUMP JUMPDEST PUSH8 0xFFFFFFFFFFFFFFFF DUP2 GT ISZERO PUSH3 0x833 JUMPI PUSH3 0x832 PUSH3 0x1B2 JUMP JUMPDEST JUMPDEST PUSH3 0x83F DUP3 SLOAD PUSH3 0x605 JUMP JUMPDEST PUSH3 0x84C DUP3 DUP3 DUP6 PUSH3 0x771 JUMP JUMPDEST PUSH1 0x0 PUSH1 0x20 SWAP1 POP PUSH1 0x1F DUP4 GT PUSH1 0x1 DUP2 EQ PUSH3 0x884 JUMPI PUSH1 0x0 DUP5 ISZERO PUSH3 0x86F JUMPI DUP3 DUP8 ADD MLOAD SWAP1 POP JUMPDEST PUSH3 0x87B DUP6 DUP3 PUSH3 0x7EE JUMP JUMPDEST DUP7 SSTORE POP PUSH3 0x8EB JUMP JUMPDEST PUSH1 0x1F NOT DUP5 AND PUSH3 0x894 DUP7 PUSH3 0x63A JUMP JUMPDEST PUSH1 0x0 JUMPDEST DUP3 DUP2 LT ISZERO PUSH3 0x8BE JUMPI DUP5 DUP10 ADD MLOAD DUP3 SSTORE PUSH1 0x1 DUP3 ADD SWAP2 POP PUSH1 0x20 DUP6 ADD SWAP5 POP PUSH1 0x20 DUP2 ADD SWAP1 POP PUSH3 0x897 JUMP JUMPDEST DUP7 DUP4 LT ISZERO PUSH3 0x8DE JUMPI DUP5 DUP10 ADD MLOAD PUSH3 0x8DA PUSH1 0x1F DUP10 AND DUP3 PUSH3 0x7CE JUMP JUMPDEST DUP4 SSTORE POP JUMPDEST PUSH1 0x1 PUSH1 0x2 DUP9 MUL ADD DUP9 SSTORE POP POP POP JUMPDEST POP POP POP POP POP POP JUMP JUMPDEST PUSH1 0x0 DUP2 SWAP1 POP SWAP3 SWAP2 POP POP JUMP JUMPDEST PUSH1 0x0 PUSH3 0x90B DUP3 PUSH3 0x5CB JUMP JUMPDEST PUSH3 0x917 DUP2 DUP6 PUSH3 0x8F3 JUMP JUMPDEST SWAP4 POP PUSH3 0x929 DUP2 DUP6 PUSH1 0x20 DUP7 ADD PUSH3 0x26C JUMP JUMPDEST DUP1 DUP5 ADD SWAP2 POP POP SWAP3 SWAP2 POP POP JUMP JUMPDEST PUSH1 0x0 PUSH3 0x943 DUP3 DUP5 PUSH3 0x8FE JUMP JUMPDEST SWAP2 POP DUP2 SWAP1 POP SWAP3 SWAP2 POP POP JUMP JUMPDEST PUSH1 0x0 DUP2 SWAP1 POP SWAP2 SWAP1 POP JUMP JUMPDEST PUSH3 0x96D PUSH3 0x967 DUP3 PUSH3 0x351 JUMP JUMPDEST PUSH3 0x94E JUMP JUMPDEST DUP3 MSTORE POP POP JUMP JUMPDEST PUSH1 0x0 PUSH3 0x981 DUP3 DUP6 PUSH3 0x958 JUMP JUMPDEST PUSH1 0x20 DUP3 ADD SWAP2 POP PUSH3 0x993 DUP3 DUP5 PUSH3 0x8FE JUMP JUMPDEST SWAP2 POP DUP2 SWAP1 POP SWAP4 SWAP3 POP POP POP JUMP JUMPDEST PUSH1 0x0 DUP2 MLOAD SWAP1 POP SWAP2 SWAP1 POP JUMP JUMPDEST PUSH1 0x0 DUP2 SWAP1 POP SWAP3 SWAP2 POP POP JUMP JUMPDEST PUSH1 0x0 PUSH3 0x9C2 DUP3 PUSH3 0x99F JUMP JUMPDEST PUSH3 0x9CE DUP2 DUP6 PUSH3 0x9AA JUMP JUMPDEST SWAP4 POP PUSH3 0x9E0 DUP2 DUP6 PUSH1 0x20 DUP7 ADD PUSH3 0x26C JUMP JUMPDEST DUP1 DUP5 ADD SWAP2 POP POP SWAP3 SWAP2 POP POP JUMP JUMPDEST PUSH1 0x0 PUSH3 0x9FA DUP3 DUP5 PUSH3 0x9B5 JUMP JUMPDEST SWAP2 POP DUP2 SWAP1 POP SWAP3 SWAP2 POP POP JUMP JUMPDEST PUSH1 0x80 MLOAD PUSH1 0xA0 MLOAD PUSH1 0xC0 MLOAD PUSH1 0xE0 MLOAD PUSH2 0x100 MLOAD PUSH2 0x1C06 PUSH3 0xA47 PUSH1 0x0 CODECOPY PUSH1 0x0 POP POP PUSH1 0x0 PUSH2 0xE75 ADD MSTORE PUSH1 0x0 PUSH2 0xEBF ADD MSTORE PUSH1 0x0 PUSH2 0xE38 ADD MSTORE PUSH1 0x0 PUSH2 0xD70 ADD MSTORE PUSH2 0x1C06 PUSH1 0x0 RETURN INVALID PUSH1 0x80 PUSH1 0x40 MSTORE PUSH1 0x4 CALLDATASIZE LT PUSH2 0x109 JUMPI PUSH1 0x0 CALLDATALOAD PUSH1 0xE0 SHR DUP1 PUSH4 0x7C7EEA6E GT PUSH2 0x95 JUMPI DUP1 PUSH4 0xE428C6DD GT PUSH2 0x64 JUMPI DUP1 PUSH4 0xE428C6DD EQ PUSH2 0x328 JUMPI DUP1 PUSH4 0xE4873CBD EQ PUSH2 0x365 JUMPI DUP1 PUSH4 0xE8193213 EQ PUSH2 0x3A2 JUMPI DUP1 PUSH4 0xEBE9EB9F EQ PUSH2 0x3DF JUMPI DUP1 PUSH4 0xEEFB5F62 EQ PUSH2 0x40A JUMPI PUSH2 0x109 JUMP JUMPDEST DUP1 PUSH4 0x7C7EEA6E EQ PUSH2 0x28B JUMPI DUP1 PUSH4 0xB6F9BBB9 EQ PUSH2 0x2A7 JUMPI DUP1 PUSH4 0xCCD331BF EQ PUSH2 0x2D2 JUMPI DUP1 PUSH4 0xD70754EC EQ PUSH2 0x2FD JUMPI PUSH2 0x109 JUMP JUMPDEST DUP1 PUSH4 0x54AEA127 GT PUSH2 0xDC JUMPI DUP1 PUSH4 0x54AEA127 EQ PUSH2 0x1A6 JUMPI DUP1 PUSH4 0x573C0BD3 EQ PUSH2 0x1D1 JUMPI DUP1 PUSH4 0x64698E71 EQ PUSH2 0x1FA JUMPI DUP1 PUSH4 0x6920FBB8 EQ PUSH2 0x237 JUMPI DUP1 PUSH4 0x7B19EB4C EQ PUSH2 0x260 JUMPI PUSH2 0x109 JUMP JUMPDEST DUP1 PUSH4 0x6FDDE03 EQ PUSH2 0x10E JUMPI DUP1 PUSH4 0x177B1EF5 EQ PUSH2 0x139 JUMPI DUP1 PUSH4 0x2DEF6620 EQ PUSH2 0x164 JUMPI DUP1 PUSH4 0x3FA4F245 EQ PUSH2 0x17B JUMPI JUMPDEST PUSH1 0x0 DUP1 REVERT JUMPDEST CALLVALUE DUP1 ISZERO PUSH2 0x11A JUMPI PUSH1 0x0 DUP1 REVERT JUMPDEST POP PUSH2 0x123 PUSH2 0x447 JUMP JUMPDEST PUSH1 0x40 MLOAD PUSH2 0x130 SWAP2 SWAP1 PUSH2 0x1228 JUMP JUMPDEST PUSH1 0x40 MLOAD DUP1 SWAP2 SUB SWAP1 RETURN JUMPDEST CALLVALUE DUP1 ISZERO PUSH2 0x145 JUMPI PUSH1 0x0 DUP1 REVERT JUMPDEST POP PUSH2 0x14E PUSH2 0x4D5 JUMP JUMPDEST PUSH1 0x40 MLOAD PUSH2 0x15B SWAP2 SWAP1 PUSH2 0x128B JUMP JUMPDEST PUSH1 0x40 MLOAD DUP1 SWAP2 SUB SWAP1 RETURN JUMPDEST CALLVALUE DUP1 ISZERO PUSH2 0x170 JUMPI PUSH1 0x0 DUP1 REVERT JUMPDEST POP PUSH2 0x179 PUSH2 0x4FB JUMP JUMPDEST STOP JUMPDEST CALLVALUE DUP1 ISZERO PUSH2 0x187 JUMPI PUSH1 0x0 DUP1 REVERT JUMPDEST POP PUSH2 0x190 PUSH2 0x744 JUMP JUMPDEST PUSH1 0x40 MLOAD PUSH2 0x19D SWAP2 SWAP1 PUSH2 0x12BF JUMP JUMPDEST PUSH1 0x40 MLOAD DUP1 SWAP2 SUB SWAP1 RETURN JUMPDEST CALLVALUE DUP1 ISZERO PUSH2 0x1B2 JUMPI PUSH1 0x0 DUP1 REVERT JUMPDEST POP PUSH2 0x1BB PUSH2 0x74A JUMP JUMPDEST PUSH1 0x40 MLOAD PUSH2 0x1C8 SWAP2 SWAP1 PUSH2 0x12BF JUMP JUMPDEST PUSH1 0x40 MLOAD DUP1 SWAP2 SUB SWAP1 RETURN JUMPDEST CALLVALUE DUP1 ISZERO PUSH2 0x1DD JUMPI PUSH1 0x0 DUP1 REVERT JUMPDEST POP PUSH2 0x1F8 PUSH1 0x4 DUP1 CALLDATASIZE SUB DUP2 ADD SWAP1 PUSH2 0x1F3 SWAP2 SWAP1 PUSH2 0x130B JUMP JUMPDEST PUSH2 0x750 JUMP JUMPDEST STOP JUMPDEST CALLVALUE DUP1 ISZERO PUSH2 0x206 JUMPI PUSH1 0x0 DUP1 REVERT JUMPDEST POP PUSH2 0x221 PUSH1 0x4 DUP1 CALLDATASIZE SUB DUP2 ADD SWAP1 PUSH2 0x21C SWAP2 SWAP1 PUSH2 0x130B JUMP JUMPDEST PUSH2 0x9C1 JUMP JUMPDEST PUSH1 0x40 MLOAD PUSH2 0x22E SWAP2 SWAP1 PUSH2 0x128B JUMP JUMPDEST PUSH1 0x40 MLOAD DUP1 SWAP2 SUB SWAP1 RETURN JUMPDEST CALLVALUE DUP1 ISZERO PUSH2 0x243 JUMPI PUSH1 0x0 DUP1 REVERT JUMPDEST POP PUSH2 0x25E PUSH1 0x4 DUP1 CALLDATASIZE SUB DUP2 ADD SWAP1 PUSH2 0x259 SWAP2 SWAP1 PUSH2 0x1364 JUMP JUMPDEST PUSH2 0x9F4 JUMP JUMPDEST STOP JUMPDEST CALLVALUE DUP1 ISZERO PUSH2 0x26C JUMPI PUSH1 0x0 DUP1 REVERT JUMPDEST POP PUSH2 0x275 PUSH2 0xCA1 JUMP JUMPDEST PUSH1 0x40 MLOAD PUSH2 0x282 SWAP2 SWAP1 PUSH2 0x12BF JUMP JUMPDEST PUSH1 0x40 MLOAD DUP1 SWAP2 SUB SWAP1 RETURN JUMPDEST PUSH2 0x2A5 PUSH1 0x4 DUP1 CALLDATASIZE SUB DUP2 ADD SWAP1 PUSH2 0x2A0 SWAP2 SWAP1 PUSH2 0x13B8 JUMP JUMPDEST PUSH2 0xCA7 JUMP JUMPDEST STOP JUMPDEST CALLVALUE DUP1 ISZERO PUSH2 0x2B3 JUMPI PUSH1 0x0 DUP1 REVERT JUMPDEST POP PUSH2 0x2BC PUSH2 0x104A JUMP JUMPDEST PUSH1 0x40 MLOAD PUSH2 0x2C9 SWAP2 SWAP1 PUSH2 0x12BF JUMP JUMPDEST PUSH1 0x40 MLOAD DUP1 SWAP2 SUB SWAP1 RETURN JUMPDEST CALLVALUE DUP1 ISZERO PUSH2 0x2DE JUMPI PUSH1 0x0 DUP1 REVERT JUMPDEST POP PUSH2 0x2E7 PUSH2 0x1050 JUMP JUMPDEST PUSH1 0x40 MLOAD PUSH2 0x2F4 SWAP2 SWAP1 PUSH2 0x12BF JUMP JUMPDEST PUSH1 0x40 MLOAD DUP1 SWAP2 SUB SWAP1 RETURN JUMPDEST CALLVALUE DUP1 ISZERO PUSH2 0x309 JUMPI PUSH1 0x0 DUP1 REVERT JUMPDEST POP PUSH2 0x312 PUSH2 0x1056 JUMP JUMPDEST PUSH1 0x40 MLOAD PUSH2 0x31F SWAP2 SWAP1 PUSH2 0x1439 JUMP JUMPDEST PUSH1 0x40 MLOAD DUP1 SWAP2 SUB SWAP1 RETURN JUMPDEST CALLVALUE DUP1 ISZERO PUSH2 0x334 JUMPI PUSH1 0x0 DUP1 REVERT JUMPDEST POP PUSH2 0x34F PUSH1 0x4 DUP1 CALLDATASIZE SUB DUP2 ADD SWAP1 PUSH2 0x34A SWAP2 SWAP1 PUSH2 0x1364 JUMP JUMPDEST PUSH2 0x105C JUMP JUMPDEST PUSH1 0x40 MLOAD PUSH2 0x35C SWAP2 SWAP1 PUSH2 0x12BF JUMP JUMPDEST PUSH1 0x40 MLOAD DUP1 SWAP2 SUB SWAP1 RETURN JUMPDEST CALLVALUE DUP1 ISZERO PUSH2 0x371 JUMPI PUSH1 0x0 DUP1 REVERT JUMPDEST POP PUSH2 0x38C PUSH1 0x4 DUP1 CALLDATASIZE SUB DUP2 ADD SWAP1 PUSH2 0x387 SWAP2 SWAP1 PUSH2 0x1364 JUMP JUMPDEST PUSH2 0x1074 JUMP JUMPDEST PUSH1 0x40 MLOAD PUSH2 0x399 SWAP2 SWAP1 PUSH2 0x12BF JUMP JUMPDEST PUSH1 0x40 MLOAD DUP1 SWAP2 SUB SWAP1 RETURN JUMPDEST CALLVALUE DUP1 ISZERO PUSH2 0x3AE JUMPI PUSH1 0x0 DUP1 REVERT JUMPDEST POP PUSH2 0x3C9 PUSH1 0x4 DUP1 CALLDATASIZE SUB DUP2 ADD SWAP1 PUSH2 0x3C4 SWAP2 SWAP1 PUSH2 0x1454 JUMP JUMPDEST PUSH2 0x108C JUMP JUMPDEST PUSH1 0x40 MLOAD PUSH2 0x3D6 SWAP2 SWAP1 PUSH2 0x14AF JUMP JUMPDEST PUSH1 0x40 MLOAD DUP1 SWAP2 SUB SWAP1 RETURN JUMPDEST CALLVALUE DUP1 ISZERO PUSH2 0x3EB JUMPI PUSH1 0x0 DUP1 REVERT JUMPDEST POP PUSH2 0x3F4 PUSH2 0x10BB JUMP JUMPDEST PUSH1 0x40 MLOAD PUSH2 0x401 SWAP2 SWAP1 PUSH2 0x1228 JUMP JUMPDEST PUSH1 0x40 MLOAD DUP1 SWAP2 SUB SWAP1 RETURN JUMPDEST CALLVALUE DUP1 ISZERO PUSH2 0x416 JUMPI PUSH1 0x0 DUP1 REVERT JUMPDEST POP PUSH2 0x431 PUSH1 0x4 DUP1 CALLDATASIZE SUB DUP2 ADD SWAP1 PUSH2 0x42C SWAP2 SWAP1 PUSH2 0x1364 JUMP JUMPDEST PUSH2 0x1149 JUMP JUMPDEST PUSH1 0x40 MLOAD PUSH2 0x43E SWAP2 SWAP1 PUSH2 0x12BF JUMP JUMPDEST PUSH1 0x40 MLOAD DUP1 SWAP2 SUB SWAP1 RETURN JUMPDEST PUSH1 0x0 DUP1 SLOAD PUSH2 0x454 SWAP1 PUSH2 0x14F9 JUMP JUMPDEST DUP1 PUSH1 0x1F ADD PUSH1 0x20 DUP1 SWAP2 DIV MUL PUSH1 0x20 ADD PUSH1 0x40 MLOAD SWAP1 DUP2 ADD PUSH1 0x40 MSTORE DUP1 SWAP3 SWAP2 SWAP1 DUP2 DUP2 MSTORE PUSH1 0x20 ADD DUP3 DUP1 SLOAD PUSH2 0x480 SWAP1 PUSH2 0x14F9 JUMP JUMPDEST DUP1 ISZERO PUSH2 0x4CD JUMPI DUP1 PUSH1 0x1F LT PUSH2 0x4A2 JUMPI PUSH2 0x100 DUP1 DUP4 SLOAD DIV MUL DUP4 MSTORE SWAP2 PUSH1 0x20 ADD SWAP2 PUSH2 0x4CD JUMP JUMPDEST DUP3 ADD SWAP2 SWAP1 PUSH1 0x0 MSTORE PUSH1 0x20 PUSH1 0x0 KECCAK256 SWAP1 JUMPDEST DUP2 SLOAD DUP2 MSTORE SWAP1 PUSH1 0x1 ADD SWAP1 PUSH1 0x20 ADD DUP1 DUP4 GT PUSH2 0x4B0 JUMPI DUP3 SWAP1 SUB PUSH1 0x1F AND DUP3 ADD SWAP2 JUMPDEST POP POP POP POP POP DUP2 JUMP JUMPDEST PUSH1 0x7 PUSH1 0x0 SWAP1 SLOAD SWAP1 PUSH2 0x100 EXP SWAP1 DIV PUSH20 0xFFFFFFFFFFFFFFFFFFFFFFFFFFFFFFFFFFFFFFFF AND DUP2 JUMP JUMPDEST PUSH1 0x0 PUSH1 0x9 PUSH1 0x0 CALLER PUSH20 0xFFFFFFFFFFFFFFFFFFFFFFFFFFFFFFFFFFFFFFFF AND PUSH20 0xFFFFFFFFFFFFFFFFFFFFFFFFFFFFFFFFFFFFFFFF AND DUP2 MSTORE PUSH1 0x20 ADD SWAP1 DUP2 MSTORE PUSH1 0x20 ADD PUSH1 0x0 KECCAK256 SLOAD GT PUSH2 0x57D JUMPI PUSH1 0x40 MLOAD PUSH32 0x8C379A000000000000000000000000000000000000000000000000000000000 DUP2 MSTORE PUSH1 0x4 ADD PUSH2 0x574 SWAP1 PUSH2 0x1576 JUMP JUMPDEST PUSH1 0x40 MLOAD DUP1 SWAP2 SUB SWAP1 REVERT JUMPDEST PUSH1 0x5 PUSH1 0xC PUSH1 0x0 CALLER PUSH20 0xFFFFFFFFFFFFFFFFFFFFFFFFFFFFFFFFFFFFFFFF AND PUSH20 0xFFFFFFFFFFFFFFFFFFFFFFFFFFFFFFFFFFFFFFFF AND DUP2 MSTORE PUSH1 0x20 ADD SWAP1 DUP2 MSTORE PUSH1 0x20 ADD PUSH1 0x0 KECCAK256 SLOAD LT PUSH2 0x5FF JUMPI PUSH1 0x40 MLOAD PUSH32 0x8C379A000000000000000000000000000000000000000000000000000000000 DUP2 MSTORE PUSH1 0x4 ADD PUSH2 0x5F6 SWAP1 PUSH2 0x15E2 JUMP JUMPDEST PUSH1 0x40 MLOAD DUP1 SWAP2 SUB SWAP1 REVERT JUMPDEST CALLER PUSH20 0xFFFFFFFFFFFFFFFFFFFFFFFFFFFFFFFFFFFFFFFF AND PUSH2 0x8FC PUSH1 0x9 PUSH1 0x0 CALLER PUSH20 0xFFFFFFFFFFFFFFFFFFFFFFFFFFFFFFFFFFFFFFFF AND PUSH20 0xFFFFFFFFFFFFFFFFFFFFFFFFFFFFFFFFFFFFFFFF AND DUP2 MSTORE PUSH1 0x20 ADD SWAP1 DUP2 MSTORE PUSH1 0x20 ADD PUSH1 0x0 KECCAK256 SLOAD SWAP1 DUP2 ISZERO MUL SWAP1 PUSH1 0x40 MLOAD PUSH1 0x0 PUSH1 0x40 MLOAD DUP1 DUP4 SUB DUP2 DUP6 DUP9 DUP9 CALL SWAP4 POP POP POP POP ISZERO DUP1 ISZERO PUSH2 0x684 JUMPI RETURNDATASIZE PUSH1 0x0 DUP1 RETURNDATACOPY RETURNDATASIZE PUSH1 0x0 REVERT JUMPDEST POP PUSH32 0xF5BB82176FEB1B5E747E28471AA92156A04D9F3AB9F45F28E2D704232B93F75 CALLER PUSH1 0x9 PUSH1 0x0 CALLER PUSH20 0xFFFFFFFFFFFFFFFFFFFFFFFFFFFFFFFFFFFFFFFF AND PUSH20 0xFFFFFFFFFFFFFFFFFFFFFFFFFFFFFFFFFFFFFFFF AND DUP2 MSTORE PUSH1 0x20 ADD SWAP1 DUP2 MSTORE PUSH1 0x20 ADD PUSH1 0x0 KECCAK256 SLOAD PUSH1 0x40 MLOAD PUSH2 0x6F5 SWAP3 SWAP2 SWAP1 PUSH2 0x1602 JUMP JUMPDEST PUSH1 0x40 MLOAD DUP1 SWAP2 SUB SWAP1 LOG1 PUSH1 0x0 PUSH1 0x9 PUSH1 0x0 CALLER PUSH20 0xFFFFFFFFFFFFFFFFFFFFFFFFFFFFFFFFFFFFFFFF AND PUSH20 0xFFFFFFFFFFFFFFFFFFFFFFFFFFFFFFFFFFFFFFFF AND DUP2 MSTORE PUSH1 0x20 ADD SWAP1 DUP2 MSTORE PUSH1 0x20 ADD PUSH1 0x0 KECCAK256 DUP2 SWAP1 SSTORE POP JUMP JUMPDEST PUSH1 0x6 SLOAD DUP2 JUMP JUMPDEST PUSH1 0x8 SLOAD DUP2 JUMP JUMPDEST PUSH1 0x5 SLOAD PUSH1 0x8 SLOAD PUSH2 0x760 SWAP2 SWAP1 PUSH2 0x165A JUMP JUMPDEST TIMESTAMP LT ISZERO PUSH2 0x7A2 JUMPI PUSH1 0x40 MLOAD PUSH32 0x8C379A000000000000000000000000000000000000000000000000000000000 DUP2 MSTORE PUSH1 0x4 ADD PUSH2 0x799 SWAP1 PUSH2 0x16DA JUMP JUMPDEST PUSH1 0x40 MLOAD DUP1 SWAP2 SUB SWAP1 REVERT JUMPDEST PUSH1 0x4 SLOAD SELFBALANCE LT ISZERO PUSH2 0x7E7 JUMPI PUSH1 0x40 MLOAD PUSH32 0x8C379A000000000000000000000000000000000000000000000000000000000 DUP2 MSTORE PUSH1 0x4 ADD PUSH2 0x7DE SWAP1 PUSH2 0x176C JUMP JUMPDEST PUSH1 0x40 MLOAD DUP1 SWAP2 SUB SWAP1 REVERT JUMPDEST PUSH1 0x0 PUSH1 0x9 PUSH1 0x0 CALLER PUSH20 0xFFFFFFFFFFFFFFFFFFFFFFFFFFFFFFFFFFFFFFFF AND PUSH20 0xFFFFFFFFFFFFFFFFFFFFFFFFFFFFFFFFFFFFFFFF AND DUP2 MSTORE PUSH1 0x20 ADD SWAP1 DUP2 MSTORE PUSH1 0x20 ADD PUSH1 0x0 KECCAK256 SLOAD GT PUSH2 0x869 JUMPI PUSH1 0x40 MLOAD PUSH32 0x8C379A000000000000000000000000000000000000000000000000000000000 DUP2 MSTORE PUSH1 0x4 ADD PUSH2 0x860 SWAP1 PUSH2 0x17D8 JUMP JUMPDEST PUSH1 0x40 MLOAD DUP1 SWAP2 SUB SWAP1 REVERT JUMPDEST PUSH1 0x5 PUSH1 0xC PUSH1 0x0 CALLER PUSH20 0xFFFFFFFFFFFFFFFFFFFFFFFFFFFFFFFFFFFFFFFF AND PUSH20 0xFFFFFFFFFFFFFFFFFFFFFFFFFFFFFFFFFFFFFFFF AND DUP2 MSTORE PUSH1 0x20 ADD SWAP1 DUP2 MSTORE PUSH1 0x20 ADD PUSH1 0x0 KECCAK256 SLOAD LT PUSH2 0x8EB JUMPI PUSH1 0x40 MLOAD PUSH32 0x8C379A000000000000000000000000000000000000000000000000000000000 DUP2 MSTORE PUSH1 0x4 ADD PUSH2 0x8E2 SWAP1 PUSH2 0x15E2 JUMP JUMPDEST PUSH1 0x40 MLOAD DUP1 SWAP2 SUB SWAP1 REVERT JUMPDEST DUP1 PUSH1 0x6 DUP2 SWAP1 SSTORE POP CALLER PUSH1 0x7 PUSH1 0x0 PUSH2 0x100 EXP DUP2 SLOAD DUP2 PUSH20 0xFFFFFFFFFFFFFFFFFFFFFFFFFFFFFFFFFFFFFFFF MUL NOT AND SWAP1 DUP4 PUSH20 0xFFFFFFFFFFFFFFFFFFFFFFFFFFFFFFFFFFFFFFFF AND MUL OR SWAP1 SSTORE POP TIMESTAMP PUSH1 0x8 DUP2 SWAP1 SSTORE POP CALLER PUSH20 0xFFFFFFFFFFFFFFFFFFFFFFFFFFFFFFFFFFFFFFFF AND PUSH2 0x8FC PUSH1 0x4 SLOAD SWAP1 DUP2 ISZERO MUL SWAP1 PUSH1 0x40 MLOAD PUSH1 0x0 PUSH1 0x40 MLOAD DUP1 DUP4 SUB DUP2 DUP6 DUP9 DUP9 CALL SWAP4 POP POP POP POP ISZERO DUP1 ISZERO PUSH2 0x982 JUMPI RETURNDATASIZE PUSH1 0x0 DUP1 RETURNDATACOPY RETURNDATASIZE PUSH1 0x0 REVERT JUMPDEST POP PUSH32 0xE58C3FFDB295CAF54C0941790F95FED95924C43EF69F4A6519FC4CCE6DE90218 DUP2 TIMESTAMP CALLER PUSH1 0x40 MLOAD PUSH2 0x9B6 SWAP4 SWAP3 SWAP2 SWAP1 PUSH2 0x17F8 JUMP JUMPDEST PUSH1 0x40 MLOAD DUP1 SWAP2 SUB SWAP1 LOG1 POP JUMP JUMPDEST PUSH1 0xB PUSH1 0x20 MSTORE DUP1 PUSH1 0x0 MSTORE PUSH1 0x40 PUSH1 0x0 KECCAK256 PUSH1 0x0 SWAP2 POP SLOAD SWAP1 PUSH2 0x100 EXP SWAP1 DIV PUSH20 0xFFFFFFFFFFFFFFFFFFFFFFFFFFFFFFFFFFFFFFFF AND DUP2 JUMP JUMPDEST PUSH1 0x0 PUSH1 0x9 PUSH1 0x0 CALLER PUSH20 0xFFFFFFFFFFFFFFFFFFFFFFFFFFFFFFFFFFFFFFFF AND PUSH20 0xFFFFFFFFFFFFFFFFFFFFFFFFFFFFFFFFFFFFFFFF AND DUP2 MSTORE PUSH1 0x20 ADD SWAP1 DUP2 MSTORE PUSH1 0x20 ADD PUSH1 0x0 KECCAK256 SLOAD GT PUSH2 0xA76 JUMPI PUSH1 0x40 MLOAD PUSH32 0x8C379A000000000000000000000000000000000000000000000000000000000 DUP2 MSTORE PUSH1 0x4 ADD PUSH2 0xA6D SWAP1 PUSH2 0x17D8 JUMP JUMPDEST PUSH1 0x40 MLOAD DUP1 SWAP2 SUB SWAP1 REVERT JUMPDEST CALLER PUSH20 0xFFFFFFFFFFFFFFFFFFFFFFFFFFFFFFFFFFFFFFFF AND DUP2 PUSH20 0xFFFFFFFFFFFFFFFFFFFFFFFFFFFFFFFFFFFFFFFF AND SUB PUSH2 0xAE4 JUMPI PUSH1 0x40 MLOAD PUSH32 0x8C379A000000000000000000000000000000000000000000000000000000000 DUP2 MSTORE PUSH1 0x4 ADD PUSH2 0xADB SWAP1 PUSH2 0x187B JUMP JUMPDEST PUSH1 0x40 MLOAD DUP1 SWAP2 SUB SWAP1 REVERT JUMPDEST PUSH1 0x0 ISZERO ISZERO PUSH1 0xD PUSH1 0x0 CALLER PUSH20 0xFFFFFFFFFFFFFFFFFFFFFFFFFFFFFFFFFFFFFFFF AND PUSH20 0xFFFFFFFFFFFFFFFFFFFFFFFFFFFFFFFFFFFFFFFF AND DUP2 MSTORE PUSH1 0x20 ADD SWAP1 DUP2 MSTORE PUSH1 0x20 ADD PUSH1 0x0 KECCAK256 PUSH1 0x0 DUP4 PUSH20 0xFFFFFFFFFFFFFFFFFFFFFFFFFFFFFFFFFFFFFFFF AND PUSH20 0xFFFFFFFFFFFFFFFFFFFFFFFFFFFFFFFFFFFFFFFF AND DUP2 MSTORE PUSH1 0x20 ADD SWAP1 DUP2 MSTORE PUSH1 0x20 ADD PUSH1 0x0 KECCAK256 PUSH1 0x0 SWAP1 SLOAD SWAP1 PUSH2 0x100 EXP SWAP1 DIV PUSH1 0xFF AND ISZERO ISZERO EQ PUSH2 0xBB4 JUMPI PUSH1 0x40 MLOAD PUSH32 0x8C379A000000000000000000000000000000000000000000000000000000000 DUP2 MSTORE PUSH1 0x4 ADD PUSH2 0xBAB SWAP1 PUSH2 0x18E7 JUMP JUMPDEST PUSH1 0x40 MLOAD DUP1 SWAP2 SUB SWAP1 REVERT JUMPDEST PUSH1 0xC PUSH1 0x0 DUP3 PUSH20 0xFFFFFFFFFFFFFFFFFFFFFFFFFFFFFFFFFFFFFFFF AND PUSH20 0xFFFFFFFFFFFFFFFFFFFFFFFFFFFFFFFFFFFFFFFF AND DUP2 MSTORE PUSH1 0x20 ADD SWAP1 DUP2 MSTORE PUSH1 0x20 ADD PUSH1 0x0 KECCAK256 PUSH1 0x0 DUP2 SLOAD DUP1 SWAP3 SWAP2 SWAP1 PUSH2 0xC04 SWAP1 PUSH2 0x1907 JUMP JUMPDEST SWAP2 SWAP1 POP SSTORE POP PUSH1 0x1 PUSH1 0xD PUSH1 0x0 CALLER PUSH20 0xFFFFFFFFFFFFFFFFFFFFFFFFFFFFFFFFFFFFFFFF AND PUSH20 0xFFFFFFFFFFFFFFFFFFFFFFFFFFFFFFFFFFFFFFFF AND DUP2 MSTORE PUSH1 0x20 ADD SWAP1 DUP2 MSTORE PUSH1 0x20 ADD PUSH1 0x0 KECCAK256 PUSH1 0x0 DUP4 PUSH20 0xFFFFFFFFFFFFFFFFFFFFFFFFFFFFFFFFFFFFFFFF AND PUSH20 0xFFFFFFFFFFFFFFFFFFFFFFFFFFFFFFFFFFFFFFFF AND DUP2 MSTORE PUSH1 0x20 ADD SWAP1 DUP2 MSTORE PUSH1 0x20 ADD PUSH1 0x0 KECCAK256 PUSH1 0x0 PUSH2 0x100 EXP DUP2 SLOAD DUP2 PUSH1 0xFF MUL NOT AND SWAP1 DUP4 ISZERO ISZERO MUL OR SWAP1 SSTORE POP POP JUMP JUMPDEST PUSH1 0x5 SLOAD DUP2 JUMP JUMPDEST PUSH1 0x3 SLOAD CALLVALUE LT ISZERO PUSH2 0xCEC JUMPI PUSH1 0x40 MLOAD PUSH32 0x8C379A000000000000000000000000000000000000000000000000000000000 DUP2 MSTORE PUSH1 0x4 ADD PUSH2 0xCE3 SWAP1 PUSH2 0x199B JUMP JUMPDEST PUSH1 0x40 MLOAD DUP1 SWAP2 SUB SWAP1 REVERT JUMPDEST PUSH1 0x0 PUSH1 0x9 PUSH1 0x0 CALLER PUSH20 0xFFFFFFFFFFFFFFFFFFFFFFFFFFFFFFFFFFFFFFFF AND PUSH20 0xFFFFFFFFFFFFFFFFFFFFFFFFFFFFFFFFFFFFFFFF AND DUP2 MSTORE PUSH1 0x20 ADD SWAP1 DUP2 MSTORE PUSH1 0x20 ADD PUSH1 0x0 KECCAK256 SLOAD EQ PUSH2 0xD6E JUMPI PUSH1 0x40 MLOAD PUSH32 0x8C379A000000000000000000000000000000000000000000000000000000000 DUP2 MSTORE PUSH1 0x4 ADD PUSH2 0xD65 SWAP1 PUSH2 0x1A07 JUMP JUMPDEST PUSH1 0x40 MLOAD DUP1 SWAP2 SUB SWAP1 REVERT JUMPDEST PUSH32 0x0 ISZERO PUSH2 0xFC7 JUMPI PUSH1 0x0 PUSH20 0xFFFFFFFFFFFFFFFFFFFFFFFFFFFFFFFFFFFFFFFF AND PUSH1 0xB PUSH1 0x0 DUP5 DUP2 MSTORE PUSH1 0x20 ADD SWAP1 DUP2 MSTORE PUSH1 0x20 ADD PUSH1 0x0 KECCAK256 PUSH1 0x0 SWAP1 SLOAD SWAP1 PUSH2 0x100 EXP SWAP1 DIV PUSH20 0xFFFFFFFFFFFFFFFFFFFFFFFFFFFFFFFFFFFFFFFF AND PUSH20 0xFFFFFFFFFFFFFFFFFFFFFFFFFFFFFFFFFFFFFFFF AND EQ PUSH2 0xE36 JUMPI PUSH1 0x40 MLOAD PUSH32 0x8C379A000000000000000000000000000000000000000000000000000000000 DUP2 MSTORE PUSH1 0x4 ADD PUSH2 0xE2D SWAP1 PUSH2 0x1A73 JUMP JUMPDEST PUSH1 0x40 MLOAD DUP1 SWAP2 SUB SWAP1 REVERT JUMPDEST PUSH32 0x0 PUSH20 0xFFFFFFFFFFFFFFFFFFFFFFFFFFFFFFFFFFFFFFFF AND PUSH4 0x3BC778E3 DUP5 PUSH32 0x0 PUSH2 0xEBC DUP9 PUSH1 0x40 MLOAD PUSH1 0x20 ADD PUSH2 0xEA8 SWAP2 SWAP1 PUSH2 0x1ADB JUMP JUMPDEST PUSH1 0x40 MLOAD PUSH1 0x20 DUP2 DUP4 SUB SUB DUP2 MSTORE SWAP1 PUSH1 0x40 MSTORE PUSH2 0x1161 JUMP JUMPDEST DUP7 PUSH32 0x0 DUP8 PUSH1 0x40 MLOAD DUP8 PUSH4 0xFFFFFFFF AND PUSH1 0xE0 SHL DUP2 MSTORE PUSH1 0x4 ADD PUSH2 0xF00 SWAP7 SWAP6 SWAP5 SWAP4 SWAP3 SWAP2 SWAP1 PUSH2 0x1B10 JUMP JUMPDEST PUSH1 0x0 PUSH1 0x40 MLOAD DUP1 DUP4 SUB DUP2 DUP7 DUP1 EXTCODESIZE ISZERO DUP1 ISZERO PUSH2 0xF18 JUMPI PUSH1 0x0 DUP1 REVERT JUMPDEST POP GAS STATICCALL ISZERO DUP1 ISZERO PUSH2 0xF2C JUMPI RETURNDATASIZE PUSH1 0x0 DUP1 RETURNDATACOPY RETURNDATASIZE PUSH1 0x0 REVERT JUMPDEST POP POP POP POP CALLER PUSH1 0xB PUSH1 0x0 DUP5 DUP2 MSTORE PUSH1 0x20 ADD SWAP1 DUP2 MSTORE PUSH1 0x20 ADD PUSH1 0x0 KECCAK256 PUSH1 0x0 PUSH2 0x100 EXP DUP2 SLOAD DUP2 PUSH20 0xFFFFFFFFFFFFFFFFFFFFFFFFFFFFFFFFFFFFFFFF MUL NOT AND SWAP1 DUP4 PUSH20 0xFFFFFFFFFFFFFFFFFFFFFFFFFFFFFFFFFFFFFFFF AND MUL OR SWAP1 SSTORE POP DUP2 PUSH1 0xA PUSH1 0x0 CALLER PUSH20 0xFFFFFFFFFFFFFFFFFFFFFFFFFFFFFFFFFFFFFFFF AND PUSH20 0xFFFFFFFFFFFFFFFFFFFFFFFFFFFFFFFFFFFFFFFF AND DUP2 MSTORE PUSH1 0x20 ADD SWAP1 DUP2 MSTORE PUSH1 0x20 ADD PUSH1 0x0 KECCAK256 DUP2 SWAP1 SSTORE POP JUMPDEST CALLVALUE PUSH1 0x9 PUSH1 0x0 CALLER PUSH20 0xFFFFFFFFFFFFFFFFFFFFFFFFFFFFFFFFFFFFFFFF AND PUSH20 0xFFFFFFFFFFFFFFFFFFFFFFFFFFFFFFFFFFFFFFFF AND DUP2 MSTORE PUSH1 0x20 ADD SWAP1 DUP2 MSTORE PUSH1 0x20 ADD PUSH1 0x0 KECCAK256 DUP2 SWAP1 SSTORE POP PUSH32 0x9E71BC8EEA02A63969F509818F2DAFB9254532904319F9DBDA79B67BD34A5F3D CALLER CALLVALUE PUSH1 0x40 MLOAD PUSH2 0x103C SWAP3 SWAP2 SWAP1 PUSH2 0x1602 JUMP JUMPDEST PUSH1 0x40 MLOAD DUP1 SWAP2 SUB SWAP1 LOG1 POP POP POP POP JUMP JUMPDEST PUSH1 0x3 SLOAD DUP2 JUMP JUMPDEST PUSH1 0x4 SLOAD DUP2 JUMP JUMPDEST PUSH1 0x1 SLOAD DUP2 JUMP JUMPDEST PUSH1 0x9 PUSH1 0x20 MSTORE DUP1 PUSH1 0x0 MSTORE PUSH1 0x40 PUSH1 0x0 KECCAK256 PUSH1 0x0 SWAP2 POP SWAP1 POP SLOAD DUP2 JUMP JUMPDEST PUSH1 0xC PUSH1 0x20 MSTORE DUP1 PUSH1 0x0 MSTORE PUSH1 0x40 PUSH1 0x0 KECCAK256 PUSH1 0x0 SWAP2 POP SWAP1 POP SLOAD DUP2 JUMP JUMPDEST PUSH1 0xD PUSH1 0x20 MSTORE DUP2 PUSH1 0x0 MSTORE PUSH1 0x40 PUSH1 0x0 KECCAK256 PUSH1 0x20 MSTORE DUP1 PUSH1 0x0 MSTORE PUSH1 0x40 PUSH1 0x0 KECCAK256 PUSH1 0x0 SWAP2 POP SWAP2 POP SWAP1 SLOAD SWAP1 PUSH2 0x100 EXP SWAP1 DIV PUSH1 0xFF AND DUP2 JUMP JUMPDEST PUSH1 0x2 DUP1 SLOAD PUSH2 0x10C8 SWAP1 PUSH2 0x14F9 JUMP JUMPDEST DUP1 PUSH1 0x1F ADD PUSH1 0x20 DUP1 SWAP2 DIV MUL PUSH1 0x20 ADD PUSH1 0x40 MLOAD SWAP1 DUP2 ADD PUSH1 0x40 MSTORE DUP1 SWAP3 SWAP2 SWAP1 DUP2 DUP2 MSTORE PUSH1 0x20 ADD DUP3 DUP1 SLOAD PUSH2 0x10F4 SWAP1 PUSH2 0x14F9 JUMP JUMPDEST DUP1 ISZERO PUSH2 0x1141 JUMPI DUP1 PUSH1 0x1F LT PUSH2 0x1116 JUMPI PUSH2 0x100 DUP1 DUP4 SLOAD DIV MUL DUP4 MSTORE SWAP2 PUSH1 0x20 ADD SWAP2 PUSH2 0x1141 JUMP JUMPDEST DUP3 ADD SWAP2 SWAP1 PUSH1 0x0 MSTORE PUSH1 0x20 PUSH1 0x0 KECCAK256 SWAP1 JUMPDEST DUP2 SLOAD DUP2 MSTORE SWAP1 PUSH1 0x1 ADD SWAP1 PUSH1 0x20 ADD DUP1 DUP4 GT PUSH2 0x1124 JUMPI DUP3 SWAP1 SUB PUSH1 0x1F AND DUP3 ADD SWAP2 JUMPDEST POP POP POP POP POP DUP2 JUMP JUMPDEST PUSH1 0xA PUSH1 0x20 MSTORE DUP1 PUSH1 0x0 MSTORE PUSH1 0x40 PUSH1 0x0 KECCAK256 PUSH1 0x0 SWAP2 POP SWAP1 POP SLOAD DUP2 JUMP JUMPDEST PUSH1 0x0 PUSH1 0x8 DUP3 PUSH1 0x40 MLOAD PUSH1 0x20 ADD PUSH2 0x1176 SWAP2 SWAP1 PUSH2 0x1BB9 JUMP JUMPDEST PUSH1 0x40 MLOAD PUSH1 0x20 DUP2 DUP4 SUB SUB DUP2 MSTORE SWAP1 PUSH1 0x40 MSTORE DUP1 MLOAD SWAP1 PUSH1 0x20 ADD KECCAK256 PUSH1 0x0 SHR SWAP1 SHR SWAP1 POP SWAP2 SWAP1 POP JUMP JUMPDEST PUSH1 0x0 DUP2 MLOAD SWAP1 POP SWAP2 SWAP1 POP JUMP JUMPDEST PUSH1 0x0 DUP3 DUP3 MSTORE PUSH1 0x20 DUP3 ADD SWAP1 POP SWAP3 SWAP2 POP POP JUMP JUMPDEST PUSH1 0x0 JUMPDEST DUP4 DUP2 LT ISZERO PUSH2 0x11D2 JUMPI DUP1 DUP3 ADD MLOAD DUP2 DUP5 ADD MSTORE PUSH1 0x20 DUP2 ADD SWAP1 POP PUSH2 0x11B7 JUMP JUMPDEST PUSH1 0x0 DUP5 DUP5 ADD MSTORE POP POP POP POP JUMP JUMPDEST PUSH1 0x0 PUSH1 0x1F NOT PUSH1 0x1F DUP4 ADD AND SWAP1 POP SWAP2 SWAP1 POP JUMP JUMPDEST PUSH1 0x0 PUSH2 0x11FA DUP3 PUSH2 0x1198 JUMP JUMPDEST PUSH2 0x1204 DUP2 DUP6 PUSH2 0x11A3 JUMP JUMPDEST SWAP4 POP PUSH2 0x1214 DUP2 DUP6 PUSH1 0x20 DUP7 ADD PUSH2 0x11B4 JUMP JUMPDEST PUSH2 0x121D DUP2 PUSH2 0x11DE JUMP JUMPDEST DUP5 ADD SWAP2 POP POP SWAP3 SWAP2 POP POP JUMP JUMPDEST PUSH1 0x0 PUSH1 0x20 DUP3 ADD SWAP1 POP DUP2 DUP2 SUB PUSH1 0x0 DUP4 ADD MSTORE PUSH2 0x1242 DUP2 DUP5 PUSH2 0x11EF JUMP JUMPDEST SWAP1 POP SWAP3 SWAP2 POP POP JUMP JUMPDEST PUSH1 0x0 PUSH20 0xFFFFFFFFFFFFFFFFFFFFFFFFFFFFFFFFFFFFFFFF DUP3 AND SWAP1 POP SWAP2 SWAP1 POP JUMP JUMPDEST PUSH1 0x0 PUSH2 0x1275 DUP3 PUSH2 0x124A JUMP JUMPDEST SWAP1 POP SWAP2 SWAP1 POP JUMP JUMPDEST PUSH2 0x1285 DUP2 PUSH2 0x126A JUMP JUMPDEST DUP3 MSTORE POP POP JUMP JUMPDEST PUSH1 0x0 PUSH1 0x20 DUP3 ADD SWAP1 POP PUSH2 0x12A0 PUSH1 0x0 DUP4 ADD DUP5 PUSH2 0x127C JUMP JUMPDEST SWAP3 SWAP2 POP POP JUMP JUMPDEST PUSH1 0x0 DUP2 SWAP1 POP SWAP2 SWAP1 POP JUMP JUMPDEST PUSH2 0x12B9 DUP2 PUSH2 0x12A6 JUMP JUMPDEST DUP3 MSTORE POP POP JUMP JUMPDEST PUSH1 0x0 PUSH1 0x20 DUP3 ADD SWAP1 POP PUSH2 0x12D4 PUSH1 0x0 DUP4 ADD DUP5 PUSH2 0x12B0 JUMP JUMPDEST SWAP3 SWAP2 POP POP JUMP JUMPDEST PUSH1 0x0 DUP1 REVERT JUMPDEST PUSH2 0x12E8 DUP2 PUSH2 0x12A6 JUMP JUMPDEST DUP2 EQ PUSH2 0x12F3 JUMPI PUSH1 0x0 DUP1 REVERT JUMPDEST POP JUMP JUMPDEST PUSH1 0x0 DUP2 CALLDATALOAD SWAP1 POP PUSH2 0x1305 DUP2 PUSH2 0x12DF JUMP JUMPDEST SWAP3 SWAP2 POP POP JUMP JUMPDEST PUSH1 0x0 PUSH1 0x20 DUP3 DUP5 SUB SLT ISZERO PUSH2 0x1321 JUMPI PUSH2 0x1320 PUSH2 0x12DA JUMP JUMPDEST JUMPDEST PUSH1 0x0 PUSH2 0x132F DUP5 DUP3 DUP6 ADD PUSH2 0x12F6 JUMP JUMPDEST SWAP2 POP POP SWAP3 SWAP2 POP POP JUMP JUMPDEST PUSH2 0x1341 DUP2 PUSH2 0x126A JUMP JUMPDEST DUP2 EQ PUSH2 0x134C JUMPI PUSH1 0x0 DUP1 REVERT JUMPDEST POP JUMP JUMPDEST PUSH1 0x0 DUP2 CALLDATALOAD SWAP1 POP PUSH2 0x135E DUP2 PUSH2 0x1338 JUMP JUMPDEST SWAP3 SWAP2 POP POP JUMP JUMPDEST PUSH1 0x0 PUSH1 0x20 DUP3 DUP5 SUB SLT ISZERO PUSH2 0x137A JUMPI PUSH2 0x1379 PUSH2 0x12DA JUMP JUMPDEST JUMPDEST PUSH1 0x0 PUSH2 0x1388 DUP5 DUP3 DUP6 ADD PUSH2 0x134F JUMP JUMPDEST SWAP2 POP POP SWAP3 SWAP2 POP POP JUMP JUMPDEST PUSH1 0x0 DUP1 REVERT JUMPDEST PUSH1 0x0 DUP2 SWAP1 POP DUP3 PUSH1 0x20 PUSH1 0x8 MUL DUP3 ADD GT ISZERO PUSH2 0x13B2 JUMPI PUSH2 0x13B1 PUSH2 0x1391 JUMP JUMPDEST JUMPDEST SWAP3 SWAP2 POP POP JUMP JUMPDEST PUSH1 0x0 DUP1 PUSH1 0x0 DUP1 PUSH2 0x160 DUP6 DUP8 SUB SLT ISZERO PUSH2 0x13D3 JUMPI PUSH2 0x13D2 PUSH2 0x12DA JUMP JUMPDEST JUMPDEST PUSH1 0x0 PUSH2 0x13E1 DUP8 DUP3 DUP9 ADD PUSH2 0x134F JUMP JUMPDEST SWAP5 POP POP PUSH1 0x20 PUSH2 0x13F2 DUP8 DUP3 DUP9 ADD PUSH2 0x12F6 JUMP JUMPDEST SWAP4 POP POP PUSH1 0x40 PUSH2 0x1403 DUP8 DUP3 DUP9 ADD PUSH2 0x12F6 JUMP JUMPDEST SWAP3 POP POP PUSH1 0x60 PUSH2 0x1414 DUP8 DUP3 DUP9 ADD PUSH2 0x1396 JUMP JUMPDEST SWAP2 POP POP SWAP3 SWAP6 SWAP2 SWAP5 POP SWAP3 POP JUMP JUMPDEST PUSH1 0x0 DUP2 SWAP1 POP SWAP2 SWAP1 POP JUMP JUMPDEST PUSH2 0x1433 DUP2 PUSH2 0x1420 JUMP JUMPDEST DUP3 MSTORE POP POP JUMP JUMPDEST PUSH1 0x0 PUSH1 0x20 DUP3 ADD SWAP1 POP PUSH2 0x144E PUSH1 0x0 DUP4 ADD DUP5 PUSH2 0x142A JUMP JUMPDEST SWAP3 SWAP2 POP POP JUMP JUMPDEST PUSH1 0x0 DUP1 PUSH1 0x40 DUP4 DUP6 SUB SLT ISZERO PUSH2 0x146B JUMPI PUSH2 0x146A PUSH2 0x12DA JUMP JUMPDEST JUMPDEST PUSH1 0x0 PUSH2 0x1479 DUP6 DUP3 DUP7 ADD PUSH2 0x134F JUMP JUMPDEST SWAP3 POP POP PUSH1 0x20 PUSH2 0x148A DUP6 DUP3 DUP7 ADD PUSH2 0x134F JUMP JUMPDEST SWAP2 POP POP SWAP3 POP SWAP3 SWAP1 POP JUMP JUMPDEST PUSH1 0x0 DUP2 ISZERO ISZERO SWAP1 POP SWAP2 SWAP1 POP JUMP JUMPDEST PUSH2 0x14A9 DUP2 PUSH2 0x1494 JUMP JUMPDEST DUP3 MSTORE POP POP JUMP JUMPDEST PUSH1 0x0 PUSH1 0x20 DUP3 ADD SWAP1 POP PUSH2 0x14C4 PUSH1 0x0 DUP4 ADD DUP5 PUSH2 0x14A0 JUMP JUMPDEST SWAP3 SWAP2 POP POP JUMP JUMPDEST PUSH32 0x4E487B7100000000000000000000000000000000000000000000000000000000 PUSH1 0x0 MSTORE PUSH1 0x22 PUSH1 0x4 MSTORE PUSH1 0x24 PUSH1 0x0 REVERT JUMPDEST PUSH1 0x0 PUSH1 0x2 DUP3 DIV SWAP1 POP PUSH1 0x1 DUP3 AND DUP1 PUSH2 0x1511 JUMPI PUSH1 0x7F DUP3 AND SWAP2 POP JUMPDEST PUSH1 0x20 DUP3 LT DUP2 SUB PUSH2 0x1524 JUMPI PUSH2 0x1523 PUSH2 0x14CA JUMP JUMPDEST JUMPDEST POP SWAP2 SWAP1 POP JUMP JUMPDEST PUSH32 0x4E6F74207374616B656400000000000000000000000000000000000000000000 PUSH1 0x0 DUP3 ADD MSTORE POP JUMP JUMPDEST PUSH1 0x0 PUSH2 0x1560 PUSH1 0xA DUP4 PUSH2 0x11A3 JUMP JUMPDEST SWAP2 POP PUSH2 0x156B DUP3 PUSH2 0x152A JUMP JUMPDEST PUSH1 0x20 DUP3 ADD SWAP1 POP SWAP2 SWAP1 POP JUMP JUMPDEST PUSH1 0x0 PUSH1 0x20 DUP3 ADD SWAP1 POP DUP2 DUP2 SUB PUSH1 0x0 DUP4 ADD MSTORE PUSH2 0x158F DUP2 PUSH2 0x1553 JUMP JUMPDEST SWAP1 POP SWAP2 SWAP1 POP JUMP JUMPDEST PUSH32 0x5374616B65722069732062616E6E656400000000000000000000000000000000 PUSH1 0x0 DUP3 ADD MSTORE POP JUMP JUMPDEST PUSH1 0x0 PUSH2 0x15CC PUSH1 0x10 DUP4 PUSH2 0x11A3 JUMP JUMPDEST SWAP2 POP PUSH2 0x15D7 DUP3 PUSH2 0x1596 JUMP JUMPDEST PUSH1 0x20 DUP3 ADD SWAP1 POP SWAP2 SWAP1 POP JUMP JUMPDEST PUSH1 0x0 PUSH1 0x20 DUP3 ADD SWAP1 POP DUP2 DUP2 SUB PUSH1 0x0 DUP4 ADD MSTORE PUSH2 0x15FB DUP2 PUSH2 0x15BF JUMP JUMPDEST SWAP1 POP SWAP2 SWAP1 POP JUMP JUMPDEST PUSH1 0x0 PUSH1 0x40 DUP3 ADD SWAP1 POP PUSH2 0x1617 PUSH1 0x0 DUP4 ADD DUP6 PUSH2 0x127C JUMP JUMPDEST PUSH2 0x1624 PUSH1 0x20 DUP4 ADD DUP5 PUSH2 0x12B0 JUMP JUMPDEST SWAP4 SWAP3 POP POP POP JUMP JUMPDEST PUSH32 0x4E487B7100000000000000000000000000000000000000000000000000000000 PUSH1 0x0 MSTORE PUSH1 0x11 PUSH1 0x4 MSTORE PUSH1 0x24 PUSH1 0x0 REVERT JUMPDEST PUSH1 0x0 PUSH2 0x1665 DUP3 PUSH2 0x12A6 JUMP JUMPDEST SWAP2 POP PUSH2 0x1670 DUP4 PUSH2 0x12A6 JUMP JUMPDEST SWAP3 POP DUP3 DUP3 ADD SWAP1 POP DUP1 DUP3 GT ISZERO PUSH2 0x1688 JUMPI PUSH2 0x1687 PUSH2 0x162B JUMP JUMPDEST JUMPDEST SWAP3 SWAP2 POP POP JUMP JUMPDEST PUSH32 0x436F6F6C6F666620706572696F64206E6F742079657420706173736564000000 PUSH1 0x0 DUP3 ADD MSTORE POP JUMP JUMPDEST PUSH1 0x0 PUSH2 0x16C4 PUSH1 0x1D DUP4 PUSH2 0x11A3 JUMP JUMPDEST SWAP2 POP PUSH2 0x16CF DUP3 PUSH2 0x168E JUMP JUMPDEST PUSH1 0x20 DUP3 ADD SWAP1 POP SWAP2 SWAP1 POP JUMP JUMPDEST PUSH1 0x0 PUSH1 0x20 DUP3 ADD SWAP1 POP DUP2 DUP2 SUB PUSH1 0x0 DUP4 ADD MSTORE PUSH2 0x16F3 DUP2 PUSH2 0x16B7 JUMP JUMPDEST SWAP1 POP SWAP2 SWAP1 POP JUMP JUMPDEST PUSH32 0x496E73756666696369656E742062616C616E636520746F2070617920626F756E PUSH1 0x0 DUP3 ADD MSTORE PUSH32 0x7479000000000000000000000000000000000000000000000000000000000000 PUSH1 0x20 DUP3 ADD MSTORE POP JUMP JUMPDEST PUSH1 0x0 PUSH2 0x1756 PUSH1 0x22 DUP4 PUSH2 0x11A3 JUMP JUMPDEST SWAP2 POP PUSH2 0x1761 DUP3 PUSH2 0x16FA JUMP JUMPDEST PUSH1 0x40 DUP3 ADD SWAP1 POP SWAP2 SWAP1 POP JUMP JUMPDEST PUSH1 0x0 PUSH1 0x20 DUP3 ADD SWAP1 POP DUP2 DUP2 SUB PUSH1 0x0 DUP4 ADD MSTORE PUSH2 0x1785 DUP2 PUSH2 0x1749 JUMP JUMPDEST SWAP1 POP SWAP2 SWAP1 POP JUMP JUMPDEST PUSH32 0x4E6F742061207374616B65720000000000000000000000000000000000000000 PUSH1 0x0 DUP3 ADD MSTORE POP JUMP JUMPDEST PUSH1 0x0 PUSH2 0x17C2 PUSH1 0xC DUP4 PUSH2 0x11A3 JUMP JUMPDEST SWAP2 POP PUSH2 0x17CD DUP3 PUSH2 0x178C JUMP JUMPDEST PUSH1 0x20 DUP3 ADD SWAP1 POP SWAP2 SWAP1 POP JUMP JUMPDEST PUSH1 0x0 PUSH1 0x20 DUP3 ADD SWAP1 POP DUP2 DUP2 SUB PUSH1 0x0 DUP4 ADD MSTORE PUSH2 0x17F1 DUP2 PUSH2 0x17B5 JUMP JUMPDEST SWAP1 POP SWAP2 SWAP1 POP JUMP JUMPDEST PUSH1 0x0 PUSH1 0x60 DUP3 ADD SWAP1 POP PUSH2 0x180D PUSH1 0x0 DUP4 ADD DUP7 PUSH2 0x12B0 JUMP JUMPDEST PUSH2 0x181A PUSH1 0x20 DUP4 ADD DUP6 PUSH2 0x12B0 JUMP JUMPDEST PUSH2 0x1827 PUSH1 0x40 DUP4 ADD DUP5 PUSH2 0x127C JUMP JUMPDEST SWAP5 SWAP4 POP POP POP POP JUMP JUMPDEST PUSH32 0x43616E6E6F7420766F746520746F2062616E2073656C66000000000000000000 PUSH1 0x0 DUP3 ADD MSTORE POP JUMP JUMPDEST PUSH1 0x0 PUSH2 0x1865 PUSH1 0x17 DUP4 PUSH2 0x11A3 JUMP JUMPDEST SWAP2 POP PUSH2 0x1870 DUP3 PUSH2 0x182F JUMP JUMPDEST PUSH1 0x20 DUP3 ADD SWAP1 POP SWAP2 SWAP1 POP JUMP JUMPDEST PUSH1 0x0 PUSH1 0x20 DUP3 ADD SWAP1 POP DUP2 DUP2 SUB PUSH1 0x0 DUP4 ADD MSTORE PUSH2 0x1894 DUP2 PUSH2 0x1858 JUMP JUMPDEST SWAP1 POP SWAP2 SWAP1 POP JUMP JUMPDEST PUSH32 0x416C726561647920766F74656400000000000000000000000000000000000000 PUSH1 0x0 DUP3 ADD MSTORE POP JUMP JUMPDEST PUSH1 0x0 PUSH2 0x18D1 PUSH1 0xD DUP4 PUSH2 0x11A3 JUMP JUMPDEST SWAP2 POP PUSH2 0x18DC DUP3 PUSH2 0x189B JUMP JUMPDEST PUSH1 0x20 DUP3 ADD SWAP1 POP SWAP2 SWAP1 POP JUMP JUMPDEST PUSH1 0x0 PUSH1 0x20 DUP3 ADD SWAP1 POP DUP2 DUP2 SUB PUSH1 0x0 DUP4 ADD MSTORE PUSH2 0x1900 DUP2 PUSH2 0x18C4 JUMP JUMPDEST SWAP1 POP SWAP2 SWAP1 POP JUMP JUMPDEST PUSH1 0x0 PUSH2 0x1912 DUP3 PUSH2 0x12A6 JUMP JUMPDEST SWAP2 POP PUSH32 0xFFFFFFFFFFFFFFFFFFFFFFFFFFFFFFFFFFFFFFFFFFFFFFFFFFFFFFFFFFFFFFFF DUP3 SUB PUSH2 0x1944 JUMPI PUSH2 0x1943 PUSH2 0x162B JUMP JUMPDEST JUMPDEST PUSH1 0x1 DUP3 ADD SWAP1 POP SWAP2 SWAP1 POP JUMP JUMPDEST PUSH32 0x496E636F7272656374207374616B6520616D6F756E7400000000000000000000 PUSH1 0x0 DUP3 ADD MSTORE POP JUMP JUMPDEST PUSH1 0x0 PUSH2 0x1985 PUSH1 0x16 DUP4 PUSH2 0x11A3 JUMP JUMPDEST SWAP2 POP PUSH2 0x1990 DUP3 PUSH2 0x194F JUMP JUMPDEST PUSH1 0x20 DUP3 ADD SWAP1 POP SWAP2 SWAP1 POP JUMP JUMPDEST PUSH1 0x0 PUSH1 0x20 DUP3 ADD SWAP1 POP DUP2 DUP2 SUB PUSH1 0x0 DUP4 ADD MSTORE PUSH2 0x19B4 DUP2 PUSH2 0x1978 JUMP JUMPDEST SWAP1 POP SWAP2 SWAP1 POP JUMP JUMPDEST PUSH32 0x416C7265616479207374616B6564000000000000000000000000000000000000 PUSH1 0x0 DUP3 ADD MSTORE POP JUMP JUMPDEST PUSH1 0x0 PUSH2 0x19F1 PUSH1 0xE DUP4 PUSH2 0x11A3 JUMP JUMPDEST SWAP2 POP PUSH2 0x19FC DUP3 PUSH2 0x19BB JUMP JUMPDEST PUSH1 0x20 DUP3 ADD SWAP1 POP SWAP2 SWAP1 POP JUMP JUMPDEST PUSH1 0x0 PUSH1 0x20 DUP3 ADD SWAP1 POP DUP2 DUP2 SUB PUSH1 0x0 DUP4 ADD MSTORE PUSH2 0x1A20 DUP2 PUSH2 0x19E4 JUMP JUMPDEST SWAP1 POP SWAP2 SWAP1 POP JUMP JUMPDEST PUSH32 0x4E756C6C6966696572206861736820616C726561647920757365640000000000 PUSH1 0x0 DUP3 ADD MSTORE POP JUMP JUMPDEST PUSH1 0x0 PUSH2 0x1A5D PUSH1 0x1B DUP4 PUSH2 0x11A3 JUMP JUMPDEST SWAP2 POP PUSH2 0x1A68 DUP3 PUSH2 0x1A27 JUMP JUMPDEST PUSH1 0x20 DUP3 ADD SWAP1 POP SWAP2 SWAP1 POP JUMP JUMPDEST PUSH1 0x0 PUSH1 0x20 DUP3 ADD SWAP1 POP DUP2 DUP2 SUB PUSH1 0x0 DUP4 ADD MSTORE PUSH2 0x1A8C DUP2 PUSH2 0x1A50 JUMP JUMPDEST SWAP1 POP SWAP2 SWAP1 POP JUMP JUMPDEST PUSH1 0x0 DUP2 PUSH1 0x60 SHL SWAP1 POP SWAP2 SWAP1 POP JUMP JUMPDEST PUSH1 0x0 PUSH2 0x1AAB DUP3 PUSH2 0x1A93 JUMP JUMPDEST SWAP1 POP SWAP2 SWAP1 POP JUMP JUMPDEST PUSH1 0x0 PUSH2 0x1ABD DUP3 PUSH2 0x1AA0 JUMP JUMPDEST SWAP1 POP SWAP2 SWAP1 POP JUMP JUMPDEST PUSH2 0x1AD5 PUSH2 0x1AD0 DUP3 PUSH2 0x126A JUMP JUMPDEST PUSH2 0x1AB2 JUMP JUMPDEST DUP3 MSTORE POP POP JUMP JUMPDEST PUSH1 0x0 PUSH2 0x1AE7 DUP3 DUP5 PUSH2 0x1AC4 JUMP JUMPDEST PUSH1 0x14 DUP3 ADD SWAP2 POP DUP2 SWAP1 POP SWAP3 SWAP2 POP POP JUMP JUMPDEST DUP3 DUP2 DUP4 CALLDATACOPY POP POP POP JUMP JUMPDEST PUSH2 0x1B0C PUSH2 0x100 DUP4 DUP4 PUSH2 0x1AF6 JUMP JUMPDEST POP POP JUMP JUMPDEST PUSH1 0x0 PUSH2 0x1A0 DUP3 ADD SWAP1 POP PUSH2 0x1B26 PUSH1 0x0 DUP4 ADD DUP10 PUSH2 0x12B0 JUMP JUMPDEST PUSH2 0x1B33 PUSH1 0x20 DUP4 ADD DUP9 PUSH2 0x12B0 JUMP JUMPDEST PUSH2 0x1B40 PUSH1 0x40 DUP4 ADD DUP8 PUSH2 0x12B0 JUMP JUMPDEST PUSH2 0x1B4D PUSH1 0x60 DUP4 ADD DUP7 PUSH2 0x12B0 JUMP JUMPDEST PUSH2 0x1B5A PUSH1 0x80 DUP4 ADD DUP6 PUSH2 0x12B0 JUMP JUMPDEST PUSH2 0x1B67 PUSH1 0xA0 DUP4 ADD DUP5 PUSH2 0x1AFF JUMP JUMPDEST SWAP8 SWAP7 POP POP POP POP POP POP POP JUMP JUMPDEST PUSH1 0x0 DUP2 MLOAD SWAP1 POP SWAP2 SWAP1 POP JUMP JUMPDEST PUSH1 0x0 DUP2 SWAP1 POP SWAP3 SWAP2 POP POP JUMP JUMPDEST PUSH1 0x0 PUSH2 0x1B93 DUP3 PUSH2 0x1B72 JUMP JUMPDEST PUSH2 0x1B9D DUP2 DUP6 PUSH2 0x1B7D JUMP JUMPDEST SWAP4 POP PUSH2 0x1BAD DUP2 DUP6 PUSH1 0x20 DUP7 ADD PUSH2 0x11B4 JUMP JUMPDEST DUP1 DUP5 ADD SWAP2 POP POP SWAP3 SWAP2 POP POP JUMP JUMPDEST PUSH1 0x0 PUSH2 0x1BC5 DUP3 DUP5 PUSH2 0x1B88 JUMP JUMPDEST SWAP2 POP DUP2 SWAP1 POP SWAP3 SWAP2 POP POP JUMP INVALID LOG2 PUSH5 0x6970667358 0x22 SLT KECCAK256 0xAD SWAP4 ORIGIN DUP14 0xB5 0xAC 0xDE DUP6 0xDC 0xA7 PUSH31 0x5DBCF1AAB3261FB0B3D4674631688123C2CA431EC764736F6C634300081800 CALLER LOG2 PUSH5 0x6970667358 0x22 SLT KECCAK256 SDIV LT MLOAD 0xB0 PREVRANDAO PUSH13 0x13F910812FF266CBEEE6DC77CA 0x2E 0x22 PUSH30 0x825B6A25F1E057E3DA0264736F6C63430008180033000000000000000000 "
        },
        "methodIdentifiers": {
          "addr(bytes32)": "3b3b57de",
          "createOracle(string,bytes32,string,uint256,uint256,uint256)": "4657b3c1",
          "oracles(uint256)": "5b69a7d8",
          "oraclesByName(string)": "abd461fd",
          "oraclesByNode(bytes32)": "ad8c7fce"
        }
      }
    }
  }
}